:020000023000CC
:10E0000095C00000BAC00000B8C00000B6C0000053
:10E01000B4C00000B2C00000B0C00000AEC000003C
:10E02000ACC00000AAC00000A8C00000A6C000004C
:10E03000A4C00000A2C00000A0C000009EC000005C
:10E040009CC000009AC0000098C0000096C000006C
:10E0500094C0000092C0000090C000008EC000007C
:10E060008CC000008AC0000088C0000086C000008C
:10E0700084C0000082C0000080C000007EC000009C
:10E080007CC000007AC0000078C0000076C00000AC
:10E0900074C0000072C0000070C000006EC00000BC
:10E0A0006CC000006AC0000068C0000066C00000CC
:10E0B00064C0000062C0000060C000005EC00000DC
:10E0C0005CC000005AC0000058C0000056C00000EC
:10E0D00054C0000052C0000050C000004EC00000FC
:10E0E0004CC00000C2F2C8F2CCF2D3F2D7F2DFF299
:10E0F000ECF229F3FDF240F344F444F48AF344F4DF
:10E1000044F444F444F444F444F444F444F444F44F
:10E11000FDF250F381F39CF306F49CF306F444F40F
:10E120006DF344F460F353F344F4FFF211241FBE83
:10E13000CFEFD1E2DEBFCDBF01E00CBF12E0A0E027
:10E14000B2E0E8EDF4EF03E00BBF02C007900D92E0
:10E15000AC30B107D9F713E0ACE0B2E001C01D92DA
:10E16000A933B107E1F796D10D946AFA01E20EBF27
:10E170000FEF0DBF11241FBE8DC142CF209A229AEE
:10E18000219A2B9A089580EA3197319731970000B0
:10E190008A95D1F7089502D0289801C0289A8FEF68
:10E1A00098E087FD2A9A87FF2A98880F1B99839504
:10E1B000299A29989A95A9F7089580935700E89588
:10E1C0008091570080FDFCCF81E180935700E89556
:10E1D0008091570080FDFCCF089561157105810580
:10E1E0009105B9F0969587957795679520910201ED
:10E1F00060FF02C0206201C02F7D209302012FEF3B
:10E2000031EE44E0215030404040E1F700C00000D2
:10E21000E4CF08958F929F92AF92BF92DF92EF92D8
:10E22000FF920F931F93CF93DF9307B600FCFDCFB0
:10E230008B019C01A3E0FB0180935B00A09357003E
:10E24000E89507B600FCFDCFDA014B015C01C0E0A8
:10E25000D0E0ED90FD90DD24D3940701F401A0926D
:10E260005B00D0925700E8951124E2E08E0E911CDD
:10E27000A11CB11C2296C115E1E0DE0751F7A5E013
:10E28000FB0180935B00A0935700E89507B600FC64
:10E29000FDCF81E180935700E89507B600FCFDCFE4
:10E2A000DA0180E090E02BBFF801479156916D9123
:10E2B0007D914617570799F080E090E0DC0123E05C
:10E2C000FC01A0935B0020935700E89507B600FC83
:10E2D000FDCF6AE973EE81EE93E87FDFFACF0E5F40
:10E2E0001F4F2F4F3F4F0296811541E09407D9F6FB
:10E2F000DF91CF911F910F91FF90EF90DF90BF9032
:10E30000AF909F908F90089580E090E0DC01ABBFCC
:10E31000FC0187919691019721E08E3F9F4F08F075
:10E3200020E0822F0895F0DF811106C06FEF77E8BB
:10E3300080E090E052DFFACF0C94000008958F92B5
:10E340009F92AF92BF92CF92DF92EF92FF92CF93C4
:10E35000DF931F921F92CDB7DEB79A98A29A529878
:10E360005A9A11DF92997DC04A997BC08FE092E062
:10E3700000D483E092E0F3D4882331F062E87FE0B8
:10E380008FE893EB2ADFFACF8091020180628093BD
:10E3900002014A9906C06CE071E080E090E01DDF68
:10E3A000F8CF812C912C5401C12CD12C760140E066
:10E3B00051E06FEF70E089E392E00F9463FAAE01F1
:10E3C0004F5F5F4F60E071E089E392E025D689817D
:10E3D0009A81892B21F1A9E3B2E0EBBEF601979176
:10E3E0002D9181E0921301C080E093E0A933B90739
:10E3F00019F0882391F302C0882389F080910201EB
:10E4000090E289278093020149E352E0C701B601F7
:10E4100001DF89819A81880E991EA11CB11C8FEFA2
:10E42000D81AE80AF80AC11490EED90693E0E90672
:10E43000F10409F0BCCF89288A288B2861F060E0BC
:10E4400070E084E090E0C9DE6AE270EA82E094E085
:10E45000C4DE69DF06C062E070E084E090E0BDDE0B
:10E46000FACF0F900F90DF91CF91FF90EF90DF9058
:10E47000CF90BF90AF909F908F9008958093C600EB
:10E480008091C00086FFFCCF8091C00080648093A3
:10E49000C0000895AFE1B1E0EFE4F2EFC8C701E2D8
:10E4A0000EBF0FEF0DBF94B7F894A89514BE8091DE
:10E4B000600088618093600010926000789493FD02
:10E4C00032DF80910101806280930101809102011D
:10E4D0008F7D809302018091C00082608093C00094
:10E4E00080E18093C40088E18093C100000027DFB1
:10E4F00080E090E0DC0120E030E04091C00047FF88
:10E5000006C02F5F3F4F21153105A9F317C0211514
:10E510003105B9F725E02A95F1F700000196A11D14
:10E52000B11D51E040E0813E37E6930735E3A30794
:10E53000B10508F450E0252F342FDFCF213031050D
:10E5400009F0FFC1312C212CA12CB12C412C512CD4
:10E550003201C12CD12C760140E050E060E0213046
:10E56000310521F08091C00087FFFCCF2091C600CB
:10E57000862F90E08730910508F03CC0FC01EE58F2
:10E58000FF408CC72B3109F4D3C120E030E0E7CF46
:10E590002226322E62E0F9CF422F50E0542F44273A
:10E5A000222663E0F2CF422B222664E0EECF2E300B
:10E5B00009F0C5C12226A12CB12C65E0E6CFC5012A
:10E5C0000196FE01EA0DFB1D218322268417950783
:10E5D00009F4B2C15C01D9CF2211B1C12981822FC6
:10E5E00090E0FC013197ED31F10508F04DC1E7589D
:10E5F000FF4054C7673091F3C8CF90E052C08D817F
:10E60000803339F49F819923A9F09130A9F4E8E986
:10E6100016C0982F907591F0803519F4E0E0F0E085
:10E6200004C0883559F4E3E0F0E099E09093570096
:10E63000E49105C0EEE103C0E1E001C0E0E01A8230
:10E640001B828C831D82EE831F8290E007E010E026
:10E6500020C11A8288E08B8381E48C8386E58D83D8
:10E6600082E58E8389E48F8383E5888780E58987C7
:10E670008FE58A8782E38B8790E00BE010E009C189
:10E68000EA81E059E33028F4F0E0E050FE4F808169
:10E6900001C080E01A828B8390E003E010E0F9C0B3
:10E6A00091E01A82F4C08D81882321F0813021F419
:10E6B00088E903C08EE101C081E01A828B8308C023
:10E6C0001A82E1E0F0E089E080935700E491EB8367
:10E6D0001C8290E004E010E0DCC08B81803549F4BE
:10E6E0008C81883019F4E2E0F0E005C0E0E0F0E071
:10E6F00002C0E3E0F0E089E080935700E4911A82E1
:10E70000E6CF80EC8A8390E002E010E0412C512CAF
:10E710003201BFC08A81CB80D12CE12CF12C760153
:10E72000DD24CC24F82A8D81C82A8C81D82ACC0CEF
:10E73000DD1CEE1CFF1C68C08A8190E0982F8827A2
:10E740003B81832B233109F047C04114E0EC5E0686
:10E75000E3E06E06710474F423E0F20160925B0062
:10E7600020935700E89507B600FCFDCFFFEF5F1A36
:10E770006F0A7F0A7B8597018601AE01455F5F4F77
:10E78000DA011296AD01FD0131976081872E912C3F
:10E79000962A61E00401F80120935B006093570022
:10E7A000E89511240E5F1F4F2F4F3F4F02970097A0
:10E7B00011F07C91E5CF85E0F601E0925B0080935B
:10E7C0005700E89507B600FCFDCF81E18093570024
:10E7D000E8956801790118C0FE013B96C1BC772716
:10E7E000F7FC7A956F2D5E2D4D2D42BD2FEFC21A8D
:10E7F000D20AE20AF20A219120BDFA9AF99AF9990D
:10E80000FECF0197009751F71A8240C08A8190E0AD
:10E81000982F88273B81832B8C010D5F1F4F1A8215
:10E820002431A1F4DE011396EBBEF6012791369157
:10E830002C931296FD013197308332E0C30ED11C28
:10E84000E11CF11C0297009779F71BC0FE0133967B
:10E85000C1BC7727F7FC7A956F2D5E2D4D2D42BDFB
:10E860002FEFC21AD20AE20AF20AF89A9F012F5F2A
:10E870003F4FD90140B540830197009711F0F9014E
:10E88000E7CF1C9290E005C080EC8A8390E002E024
:10E8900010E08BE1C15EDE4F9883CF51D140EEDDB9
:10E8A000832DECDD812FEADD802FE8DD8EE0E6DDD3
:10E8B00095E1292E232420262126FE0131964F01A1
:10E8C0000E0F1F1FC15EDE4F9881CF51D1408016C1
:10E8D0009106B1F0F40121914F01822FC25EDE4F0B
:10E8E0002883CE51D140C15EDE4F9883CF51D140B5
:10E8F000C5DDC25EDE4F2881CE51D1402226E2CF57
:10E90000822DC15EDE4F9883CF51D140B7DD339465
:10E910008091020120E2822780930201C15EDE4FD6
:10E920009881CF51D14091110CC020E030E014CE3D
:10E930008BE1282E61E029CE5A0166E026CE60E008
:10E9400024CEF1DC80E090E0C15EDE4FE2E18BC5D9
:10E950000F931F939B01AC01E0910C02F0910D020B
:10E96000225031094109510986819781A085B185DD
:10E970000297A109B109281739074A075B0760F414
:10E98000A281B0E028D50289138924893589600FD6
:10E99000711F821F931F03C060E070E0CB011F91C5
:10E9A0000F9108950F931F93CF93DF93EC01E091A4
:10E9B0000C02F0910D02198218826C817D818E818A
:10E9C0009F81613071058105910551F106811781A3
:10E9D00020853185601771078207930708F5611557
:10E9E00071058105910539F42081233021F4668574
:10E9F000778580899189688779878A879B87611560
:10EA000071058105910511F0A3DF04C06685778546
:10EA1000808991896C877D878E879F8780E001C080
:10EA200081E0DF91CF911F910F910895A0E0B0E0B8
:10EA3000EBE1F5EF06C5EC016A017B0102E010E0B5
:10EA40002EEF31E071D4811124C088819981853500
:10EA50009A4A09F526E330E0B701A601CE0164D455
:10EA6000811107C0888199818634914411F480E036
:10EA700015C002E010E022E530E0B701A601CE01AA
:10EA800053D481110AC0888199818634914429F434
:10EA9000EECF83E003C082E001C081E0CDB7DEB7F6
:10EAA000E8E0EBC4A4E0B0E0E7E5F5EFCEC4E09128
:10EAB0000C02F0910D02623071058105910508F498
:10EAC00051C0068117812085318560177107820743
:10EAD000930708F047C02081223019F02330E9F075
:10EAE00041C09B013327220F331F472F582F692F17
:10EAF000772782859385A485B585480F591F6A1F9E
:10EB00007B1F02E010E0CE0101960ED481112AC0D5
:10EB100069817A8180E090E029C09B012F773327BB
:10EB2000220F331F220F331FAB01BC01A7E07695E4
:10EB3000679557954795AA95D1F782859385A485C2
:10EB4000B585480F591F6A1F7B1F04E010E0CE01F6
:10EB50000196EAD3811106C069817A818B819C81FB
:10EB60009F7004C061E070E080E090E02496E4E0F3
:10EB700088C4A8E2B0E0EEEBF5EF5BC45C01109254
:10EB80000D0210920C0236D380FDABC040E050E085
:10EB9000BA01CE0101964ADF8130E9F400E110E0CC
:10EBA0002EEB31E040E050E0BA01CE010196BCD33B
:10EBB000882311F081E0D0C08D81811102C086E0F0
:10EBC000CBC049845A846B847C84B301A201CE01FA
:10EBD00001962CDF03C0412C512C3201833051F3BC
:10EBE0008111EDCF04E210E02DE030E0B301A2018D
:10EBF000CE01019699D38111DDCF2A853B8540E076
:10EC000050E0211531054105510521F4288D398D3C
:10EC10004A8D5B8DAC81B0E0DED36B017C018A81D3
:10EC20009B81AC0160E070E0440E551E661E771EAD
:10EC3000D5011A964D925D926D927C921D97E98155
:10EC40001296EC9312972D813E8115963C932E934C
:10EC500014978F819885A0E0B0E00097A105B105D9
:10EC600021F48C899D89AE89BF89490104E096947D
:10EC700087940A95E1F7840120E030E00DA31EA3FC
:10EC80002FA338A78C019D01041B150B260B370BF6
:10EC9000C901B8016C197D098E099F090DA11EA13A
:10ECA0002FA138A5601B710B820B930B2E2F30E028
:10ECB00040E050E09AD3DA01C9010296A11DB11DCE
:10ECC000F50186839783A087B187BA01A901465FC2
:10ECD0005F40610971094F3F5F4E61057105A8F101
:10ECE00002C082E039C0873F9F4FA105B10508F4FB
:10ECF00066CF83E0D5018C93833029F488A199A154
:10ED0000AAA1BBA106C0D701C601840D951DA61DF1
:10ED1000B71DF50186879787A08BB18B0DA11EA12A
:10ED20002FA138A5400E511E621E731E4C0C5D1C97
:10ED30006E1C7F1C428A538A648A758A1182B09243
:10ED40000D02A0920C0280E007C0873F9F4FA105F3
:10ED5000B10578F682E0CECFA896E0E186C3ACE3B9
:10ED6000B0E0E4EBF6EF6BC3E0900C02F0900D0224
:10ED7000E114F10409F43EC1D70111961C929E01E1
:10ED80002F5C3F4F3CA32BA39C016901F9018081BB
:10ED90002F5F3F4F8032C9F38F3209F469011DA202
:10EDA0001EA21FA218A6D6018C91803208F067C05F
:10EDB000CE018196F7DD1982882309F4E5C029C1C7
:10EDC00080E090E028E031E0390FD601A90FB11DB5
:10EDD0009C91913208F05FC0C30ED11C81E091324A
:10EDE00008F080E08387CE018196DCDD811111C1BE
:10EDF00029A13AA12F703327F5E0220F331FFA958E
:10EE0000E1F74DA55EA56FA578A900E210E0CE015F
:10EE100001968AD28111F6C08981882309F4F8C04D
:10EE20004C8543FD4FC00BA11CA1FE013196C801CA
:10EE30009E01245F3F4FE217F307E9F5F801838550
:10EE40008111A2C044FFE4C0E0910C02F0910D02D8
:10EE50008081833009F0D8C04D895E8960E070E020
:10EE6000BA01552744278B8D9C8DA0E0B0E0842B00
:10EE7000952BA62BB72B8DA39EA3AFA3B8A7EBA171
:10EE8000FCA1DF01CF010B96A817B90709F498CFB1
:10EE900020E22D93F9CF9F3209F49ECF9E3209F4E0
:10EEA000ABC0821708F098CFDF01A80FB11D9C936B
:10EEB0008F5F932F88CF6191DC015D91CD01651744
:10EEC00009F4B9CF00910C0210910D02A9A0BAA0CB
:10EED000BFEFAB1ABB0AA114B10409F499C08DA508
:10EEE0009EA5AFA5B8A90097A105B10509F490C0EA
:10EEF00095012F703327232B09F043C00196A11DE4
:10EF0000B11D8DA79EA7AFA7B8AB69A57AA58BA5A4
:10EF10009CA5611571058105910541F4F801848175
:10EF20009581A816B90608F073C02BC0D8011296B7
:10EF30002C9130E021503109A501E4E05695479528
:10EF4000EA95E1F724233523232BD9F4ABDD623096
:10EF500071058105910508F455C0F80106811781F6
:10EF600020853185601771078207930708F050C02C
:10EF700069A77AA78BA79CA7EBDC6DA77EA78FA7B5
:10EF800098ABBAA2A9A234CF8981882309F440C0E2
:10EF90008C8584FD3DC0E0910C02F0910D028081D2
:10EFA000833041F44D895E8960E070E0BA015527F5
:10EFB000442703C040E050E0BA018B8D9C8DA0E057
:10EFC000B0E0842B952BA62BB72BF701868F978F5C
:10EFD000A0A3B1A38D8D9E8DAF8DB8A1828F938F8D
:10EFE000A48FB58F168A178A108E118E81E08183C7
:10EFF00080E00FC085E00DC0283009F0EDCE88E03C
:10F000002BE057CF81E005C040E050E0BA012BCFA4
:10F0100083E0EC96EAE02FC2A0E0B0E0E1E1F8EF97
:10F020000AC24C017B015A01C0910C02D0910D0221
:10F03000FA0111821082209709F49AC0898180FF19
:10F0400099C08A8D9B8DAC8DBD8D4E895F89688DF1
:10F05000798D841B950BA60BB70BA70160E070E0C0
:10F0600084179507A607B70708F47C013401E1145B
:10F07000F10409F47BC08E899F89A88DB98DAC01FC
:10F08000BD01517066277727452B462B472BC1F5CD
:10F09000DA80DA94AC01BD0129E076956795579541
:10F0A00047952A95D1F7D422B9F4892B8A2B8B2B3B
:10F0B00029F46E8D7F8D88A199A105C06AA17BA1DD
:10F0C0008CA19DA1EFDC623071058105910598F15D
:10F0D0006AA37BA38CA39DA36AA17BA18CA19DA104
:10F0E00037DC611571058105910529F1DC01CB0142
:10F0F0008D0D911DA11DB11D8EA39FA3A8A7B9A71A
:10F100002E893F89317080E092E0821B930B67016A
:10F110008E159F0508F46C014EA15FA168A579A525
:10F120008114910419F480E090E001C0C3018601CC
:10F13000FBD0882319F0198281E01DC08E899F8938
:10F14000A88DB98D8C0D9D1DA11DB11D8E8B9F8B22
:10F15000A88FB98F6C0C7D1CEC18FD08F50180811F
:10F1600091818C0D9D1D9183808381CF80E003C0B0
:10F1700085E001C084E0CDB7DEB7EEE078C1FF9254
:10F180000F931F93CF93DF93C82FD42F152F062FE4
:10F19000F72E87FF08C040E050E0BA0187E7EFDFB5
:10F1A000823020F5CF770F94CBF08C2F0F94D0F0D6
:10F1B0008F2D0F94D0F0802F0F94D0F0812F0F94CB
:10F1C000D0F08D2F0F94D0F0C03421F0C83421F04E
:10F1D00081E003C085E901C087E80F94D0F0CAE060
:10F1E0000F94CFF087FF02C0C150D1F7CDB7DEB783
:10F1F000E5E046C1A4E0B0E0EFEFF8EF24C10F94E2
:10F20000BEF014E60F94C3F01150E1F71AE00F942A
:10F21000CEF01150E1F740E050E0BA0180E4AFDFFA
:10F22000813009F059C04AEA51E060E070E088E4BA
:10F23000A6DF813049F57E0185E0E80EF11C8E01E4
:10F240000F5F1F4F0F94CFF0F80181938F01EE15E0
:10F25000FF05C1F78B81813009F03EC08C818A3A6D
:10F2600009F03AC000E117E240E050E060E070E4ED
:10F2700089EE85DF8823D1F10F94C3F00150110985
:10F280000115110589F728C040E050E0BA0189EE68
:10F2900076DF823028F422E0F22E39EEE32E04C02D
:10F2A000FF24F39491E4E92E00E117E240E050E0FE
:10F2B000BA018E2D64DF882341F00F94C3F0015012
:10F2C00011090115110591F707C040E052E060E017
:10F2D00070E080E554DF8111F12CF0920E020F9462
:10F2E000CEF081E0FF20E9F080E01BC040E050E07C
:10F2F000BA018AE744DF8111EFCF8E010F5F1F4F04
:10F300000F94CFF0F80181938F01EE15FF05C1F73F
:10F31000898186FF03C04CE0F42EDFCF84E0F82E15
:10F32000DCCF2496E6E0ABC0A1E0B0E0E9E9F9EF7C
:10F3300086C0D82EC92E790180910E0283FD07C0A8
:10F34000E9E0440F551F661F771FEA95D1F781E565
:10F3500016DF882311F081E037C060E4A62E6CE947
:10F36000B62E0F94CFF08F3F39F481E0A81AB10880
:10F37000A114B104B1F7EFCF8E3F69F752E0A52E8B
:10F38000BA2CA01AB10AAE18BF08E114F10419F49E
:10F39000ED2CFC2C06C00F94CFF0E1E0EE1AF10842
:10F3A000F4CF0F94CFF0F70181937F010150110941
:10F3B00001151105B1F70F94CFF0F1E0AF1AB108C4
:10F3C000A114B104C1F780E089830F94CEF0898144
:10F3D0002196EAE050C068D0A59F900DB49F900D93
:10F3E000A49F800D911D11240895A1E21A2EAA1B3D
:10F3F000BB1BFD010DC0AA1FBB1FEE1FFF1FA217E5
:10F40000B307E407F50720F0A21BB30BE40BF50BE1
:10F41000661F771F881F991F1A9469F7609570956A
:10F42000809590959B01AC01BD01CF0108952F926D
:10F430003F924F925F926F927F928F929F92AF9284
:10F44000BF92CF92DF92EF92FF920F931F93CF93D1
:10F45000DF93CDB7DEB7CA1BDB0B0FB6F894DEBF68
:10F460000FBECDBF19942A88398848885F846E847E
:10F470007D848C849B84AA84B984C884DF80EE80D8
:10F48000FD800C811B81AA81B981CE0FD11D0FB6E1
:10F49000F894DEBF0FBECDBFED010895EE0FFF1F44
:10F4A0000590F491E02D1994A29FB001B39FC00183
:10F4B000A39F700D811D1124911DB29F700D811DA0
:10F4C0001124911D0895DC0101C06D9341505040FD
:08F4D000E0F70895F894FFCF66
:0CF4D8000F03014150502E42494E00002D
:040000033000E000E9
:00000001FF
