:100000000C94091A0C946F1C0C94A01C0C94D11C19
:100010000C94021D0C94331D0C94641D0C94951DBE
:100020000C94C61D0C943A1A0C943A1A0C943A1A71
:100030000C943A1A0C941A900C943A1A0C943A1A9A
:100040000C943A1A0C94B66B0C943A1A0C943A1A13
:100050000C943A1A0C943A1A0C94B47B0C943C1AF3
:100060000C943A1A0C944E460C943A1A0C943A1A80
:100070000C943A1A0C943A1A0C943A1A0C943A1AB0
:100080000C943A1A0C943A1A0C943A1A0C943A1AA0
:100090000C943A1A0C943A1A0C943A1A0C946099EB
:1000A0000C943A1A0C943A1A0C943A1A0C943A1A80
:1000B0000C943A1A0C943A1A0C943A1A0C943A1A70
:1000C0000C943A1A0C943A1A0C943A1A0C943A1A60
:1000D0000C943A1A0C943A1A0C943A1A0C943A1A50
:1000E0000C943A1A1A1B1F1B241B2E1BA71B381B10
:1000F000401B481B521B5C1B661B751B7F1BA71BF1
:10010000891B931B9D1BC51BC81BBB1BBF1BFF1B58
:10011000CC1BD01BD61BDA1BDE1BE41BE81BEC1B25
:10012000FF1BF21BF61BFA1BCD8ED08ED78EDE8EF8
:10013000E58EEC8E7C8FF38EFA8E028F7C8F0A8F89
:10014000138F1A8F238F2A8F318F7C8F388F3F8F99
:10015000488F7C8F518F5A8F5C8F5E8F608F628F3C
:10016000648F668F688F6A8F6C8F6E8F708F728FBF
:10017000748F768F788FE693E693E993EC93F293FE
:10018000F593F893FB930094EF93084AD73B3BCE4B
:10019000016E84BCBFFDC12F3D6C74319ABD568386
:1001A0003DDA3D00C77F11BED9E4BB4C3E916BAA3E
:1001B000AABE000000803F05A84CCDB2D44EB9388D
:1001C00036A9020C50B9918688083CA6AAAA2ABE74
:1001D000000000803F0000090A02080B0C0D070612
:1001E0000304010000000000000000000000000007
:100200000011100F000000000000000000000000BE
:10021000000000000000000000000001021020208B
:10022000080810204010204080020102010804024A
:1002300001010204081020408080402010080402C0
:100240000180040201804020100804020108040219
:10025000010102040810204080010204081020401F
:100260008005050505070508080808020202020ABC
:100270000A08080404040401010101010101010349
:1002800003030303030303040707070C0C0C0C0C04
:100290000C0C0C0202020206060606060606060BF7
:1002A0000B0B0B0B0B0B0B00002200250028002B67
:1002B000002E003100340002010000050108010B8E
:1002C0000100002100240027002A002D0030003307
:1002D0000001010000040107010A015072696E74F7
:1002E00065722073746F7070656420647565207426
:1002F0006F206572726F72732E2046697820746861
:1003000065206572726F7220616E6420757365205E
:100310004D39393920746F20726573746172742E8F
:10032000202854656D7065726174757265206973FB
:100330002072657365742E20536574206974206182
:10034000667465722072657374617274696E672970
:10035000005072696E7465722068616C7465642EF9
:10036000206B696C6C28292063616C6C65642100CA
:100370006F6B00526573656E643A2000456E64735E
:10038000746F70207374696C6C2070726573736520
:1003900064206166746572206261636B696E6720B8
:1003A0006F66662E20456E6473746F70207374756B
:1003B000636B3F00456E6473746F70206E6F7420C2
:1003C0007072657373656420616674657220686F0E
:1003D0006D696E6720646F776E2E20456E6473744E
:1003E0006F702062726F6B656E3F00456E64737450
:1003F0006F70206E6F742070726573736564206116
:100400006674657220686F6D696E6720646F776EC1
:100410002E20456E6473746F702062726F6B656E10
:100420003F002200556E6B6E6F776E20636F6D6DAF
:10043000616E643A202200456C656374726F6E6968
:1004400063735F746573740020423A300020423A4F
:1004500031006F6B20523A002200556E6B6E6F7741
:100460006E20636F6D6D616E643A2022007A5F6D5D
:1004700061783A2000795F6D61783A2000785F6D8D
:10048000696E3A20005A3A00593A0020436F756E5F
:100490007420583A2000453A005A3A00593A005818
:1004A0003A004649524D574152455F4E414D453AFB
:1004B0004D61726C696E20556C74696D616B65720B
:1004C000323B20537072696E7465722F6772626C72
:1004D000206D617368757020666F722067656E3677
:1004E000204649524D574152455F55524C3A687427
:1004F00074703A2F2F6769746875622E636F6D2F61
:10050000556C74696D616B65722050524F544F4346
:100510004F4C5F56455253494F4E3A312E30204D85
:10052000414348494E455F545950453A556C7469AA
:100530006D616B65722045585452554445525F4376
:100540004F554E543A310A0020423A0020453A00B5
:10055000543A0020573A0020453A00543A002042CD
:10056000403A0020403A00202F0020423A00202F3D
:10057000006F6B20543A002569206D696E2C202590
:10058000692073656300456E642066696C65206C44
:1005900069737400426567696E2066696C65206CDA
:1005A00069737400256920686F757273202569204E
:1005B0006D696E7574657300446F6E652070726945
:1005C0006E74696E672066696C65005072696E743E
:1005D00065722073746F7070656420647565207433
:1005E0006F206572726F72732E204669782074686E
:1005F00065206572726F7220616E6420757365206C
:100600004D39393920746F20726573746172742E9C
:10061000202854656D706572617475726520697308
:100620002072657365742E2053657420697420618F
:10063000667465722072657374617274696E67297D
:10064000006F6B004E6F204C696E65204E756D62B9
:100650006572207769746820636865636B73756D74
:100660002C204C617374204C696E653A20004E6FEB
:1006700020436865636B73756D2077697468206CBF
:10068000696E65206E756D6265722C204C617374A5
:10069000204C696E653A2000636865636B73756D05
:1006A000206D69736D617463682C204C61737420D4
:1006B0004C696E653A20004C696E65204E756D621E
:1006C0006572206973206E6F74204C617374204CC6
:1006D000696E65204E756D6265722B312C204C6100
:1006E0007374204C696E653A20004D3131300044FE
:1006F0006F6E6520736176696E672066696C652E22
:10070000006F6B004D3239002020506C616E6E65B9
:100710007242756666657242797465733A2000208C
:1007200046726565204D656D6F72793A20004665A9
:1007300062203139203230313500436F6D70696C81
:1007400065643A200056657273696F6E3A5F3135A1
:100750002E30322E31676F00207C20417574686F17
:10076000723A20004665622031392032303135201E
:1007700030393A35393A353400204C61737420559C
:100780007064617465643A2000312E302E30004D63
:1007900061726C696E200020536F667477617265B8
:1007A00020526573657400205761746368646F67D5
:1007B000205265736574002042726F776E206F75EA
:1007C00074205265736574002045787465726E619B
:1007D0006C20526573657400506F776572557000B8
:1007E0007374617274002200656E717565696E675D
:1007F0002022002200656E717565696E67202200F7
:10080000FF01010000E0400000E0400000E0400087
:100810000008430000F84200000243000060C100ED
:1008200000F842000002430000F4420000F84200D9
:10083000000243000060C1000000000000000065ED
:1008400063686F3A004572726F723A0000002110BF
:10085000422063308440A550C660E770088129912A
:100860004AA16BB18CC1ADD1CEE1EFF131121002D2
:1008700073325222B5529442F772D662399318837A
:100880007BB35AA3BDD39CC3FFF3DEE3622443349E
:1008900020040114E664C774A44485546AA54BB5CA
:1008A00028850995EEE5CFF5ACC58DD55336722672
:1008B00011163006D776F6669556B4465BB77AA71A
:1008C00019973887DFF7FEE79DD7BCC7C448E558BE
:1008D0008668A7784008611802282338CCC9EDD96A
:1008E0008EE9AFF9488969990AA92BB9F55AD44A12
:1008F000B77A966A711A500A333A122AFDDBDCCBBA
:10090000BFFB9EEB799B588B3BBB1AABA66C877CDD
:10091000E44CC55C222C033C600C411CAEED8FFD09
:10092000ECCDCDDD2AAD0BBD688D499D977EB66EB1
:10093000D55EF44E133E322E511E700E9FFFBEEF59
:10094000DDDFFCCF1BBF3AAF599F788F8891A9811B
:10095000CAB1EBA10CD12DC14EF16FE18010A10005
:10096000C230E3200450254046706760B9839893F5
:10097000FBA3DAB33DC31CD37FE35EF3B102901255
:10098000F322D2323542145277625672EAB5CBA5C1
:10099000A89589856EF54FE52CD50DC5E234C324A5
:1009A000A01481046674476424540544DBA7FAB795
:1009B0009987B8975FE77EF71DC73CD7D326F236F5
:1009C0009106B01657667676154634564CD96DC9E1
:1009D0000EF92FE9C899E9898AB9ABA94458654845
:1009E00006782768C018E1088238A3287DCB5CDB35
:1009F0003FEB1EFBF98BD89BBBAB9ABB754A545A95
:100A0000376A167AF10AD01AB32A923A2EFD0FED00
:100A10006CDD4DCDAABD8BADE89DC98D267C076CE4
:100A2000645C454CA23C832CE01CC10C1FEF3EFFD4
:100A30005DCF7CDF9BAFBABFD98FF89F176E367E34
:100A4000554E745E932EB23ED10EF01E7C3C3E5E3F
:100A50002B3D3F2F5B5D3B2C2A225C0020746F6F87
:100A6000206C6F6E6720657874727573696F6E2085
:100A700070726576656E7465640020636F6C6420C7
:100A8000657874727573696F6E2070726576656EC5
:100A9000746564006563686F3A00205A3A00205913
:100AA0003A0020583A00656E6473746F7073206862
:100AB00069743A200024F4D43050C38E20C2A2407E
:100AC00017828B7011127A910D816CD90AA861E19D
:100AD00008C7586607615143061E4B5D05C145A70F
:100AE000041A411104093D9803713931034036DB82
:100AF0000265339102D4305402802E1D02632CEE25
:100B000001752AC501B028A001102781018F256435
:100B1000012B244B01E0223401AC211F018D200D5B
:100B200001801FFC00841EED00971DDF00B81CD261
:100B300000E61BC600201BBC00641AB200B219A854
:100B4000000A19A0006A189900D117910040178B6C
:100B500000B516840031167E00B31579003A15737E
:100B600000C7146F0058146A00EE13660088136300
:100B70000025135E00C7125B006C1257001512545B
:100B800000C111510070114F0021114B00D61049C6
:100B9000008D1047004610440002104200C00F4074
:100BA00000800F3E00420F3C00060F3B00CB0E388A
:100BB00000930E37005C0E3500270E3400F30D3223
:100BC00000C10D3100900D3000600D2E00320D2D52
:100BD00000050D2C00D90C2B00AE0C2900850C292A
:100BE000005C0C2700350C27000E0C2600E80B24B7
:100BF00000C40B2400A00B23007D0B23005A0B2103
:100C000000390B2100180B2000F80A1F00D90A1E1A
:100C100000BB0A1E009D0A1D00800A1D00630A1CFD
:100C200000470A1B002C0A1B00110A1A00F7091AB8
:100C300000DD091900C4091900AB09190092091750
:100C4000007B091800630917004C091600360916C5
:100C500000200916000A091500F5081500E008141F
:100C600000CC081400B8081400A40814009008135D
:100C7000007D0812006B0813005808120046081285
:100C80000034081100230811001208110001081196
:100C900000F0071000E0071000D0071000C0071098
:100CA00000B0070F00A107100091070E0083070F87
:100CB0000074070F0065070E0057070E0049070E66
:100CC000003B070D002E070E0020070D0013070D37
:100CD0000006070D00F9060C00ED060D00E0060CFD
:100CE00000D4060C00C8060C00BC060C00B0060CB4
:100CF00000A4060B0099060C008D060B0082060B63
:100D00000077060B006C060B0061060A0057060B05
:100D1000004C060A0042060A0038060A002E060A9F
:100D20000024060A001A060A001006090007060A2F
:100D300000FD050900F4050900EB050900E20509BD
:100D400000D9050900D0050900C7050900BE05093D
:100D500000B5050800AD050800A50509009C0508BB
:100D600000940508008C050800840508007C05082F
:100D700000740508006C050700650508005D05079F
:100D800000560508004E0507004705070040050806
:100D90000038050700310507002A0507002305076D
:100DA000001C050600160507000F050700080506CC
:100DB0000002050700FB040600F5040700EE040628
:100DC00000E8040600E2040700DB040600D5040680
:100DD00000CF040600C9040600C3040600BD0406D3
:100DE00000B7040600B1040500AC040600A6040622
:100DF00000A00405009B040600950405009004066D
:100E0000008A04050085040500800406007A0405B4
:100E10000075040500700405006B040500660405F8
:100E200000610405005C0405005704050052040538
:100E3000004D04050048040500430405003E040479
:100E4000003A04050035040500300404002C0405B4
:100E50000027040400230405001E0404001A0404EF
:100E60000016040500110404000D04040009040523
:100E7000000404040000040400FC030400F803045C
:100E800000F4030400F0030400EC030400E803048E
:100E900000E4030400E0030400DC030400D80304BE
:100EA00000D4030400D0030400CC030400C80303EF
:100EB00000C503030024F404D9201BC40C5C0E9865
:100EC00004C4095F0265077101F405F900FB04B36E
:100ED0000048048700C10369005803550003034517
:100EE00000BE023A008402310053022A0029022582
:100EF0000004022000E4011C00C8011900AF011722
:100F000000980114008401130071011000610110A8
:100F10000051010E0043010D0036010B002B010BA7
:100F20000020010B00150109000C01090003010854
:100F300000FB000800F3000800EB000700E40006D7
:100F400000DE000600D8000600D2000600CC000536
:100F500000C7000500C2000500BD000400B9000480
:100F600000B5000400B1000400AD000400A90004B5
:100F700000A5000300A20003009F0004009B0003E3
:100F80000098000300950002009300030090000306
:100F9000008D0002008B0003008800020086000222
:100FA0000084000300810002007F0002007D000237
:100FB000007B000200790002007700010076000249
:100FC000007400020072000100710002006F000254
:100FD000006D0001006C0002006A0001006900025F
:100FE0000067000100660001006500010064000266
:100FF000006200010061000100600001005F00026A
:10100000005D0001005C0001005B0001005A00016E
:10101000005900010058000100570001005600016E
:10102000005500010054000100530000005300016E
:10103000005200010051000100500001004F00016A
:10104000004E0000004E0001004D0001004C000168
:10105000004B0000004B0001004A00010049000164
:101060000048000000480001004700010046000061
:101070000046000100450000004500010044000159
:101080000043000000430001004200000042000154
:10109000004100000041000100400001003F00004D
:1010A000003F0001003E0000003E0001003D000046
:1010B000003D0001003C0000003C0000003C00013D
:1010C000003B0000003B0001003A0000003A000134
:1010D000003900000039000100380000003800002D
:1010E0000038000100370000003700010036000022
:1010F0000036000000360001003500000035000019
:10110000003500010034000000340000003400010C
:101110000033000000330000003300010032000003
:1011200000320000003200010031000000310000F8
:1011300000310001003000000030000000300001EC
:10114000002F0000002F0000002F0000002F0001E2
:10115000002E0000002E0000002E0001002D0000D7
:10116000002D0000002D0000002D0001002C0000CB
:10117000002C0000002C0000002C0001002B0000BF
:10118000002B0000002B0000002B0001002A0000B3
:10119000002A0000002A0000002A000100290000A7
:1011A000002900000029000000290000002900019A
:1011B000002800000028000000280000002800008F
:1011C0000028000100270000002700000027000081
:1011D0000027000000270001002600000026000074
:1011E0000026000000260000002600010025000067
:1011F000002500000025000000250000002500005B
:10120000002500010024000000240000002400004C
:10121000002400000024000100230000002300003F
:101220000023000000230000002300000023000032
:101230000023000100220000002200000022000024
:101240000022000000220000002200010021000016
:10125000002100000021000000210000002100000A
:1012600000210000002100010020000000200000FB
:1012700000200000002000000020000000200000EE
:101280000020000000200001001F0000001F0000DF
:10129000001F0000001F0000001F0000001F0000D2
:1012A000001F0001001E0000001E0000001E0000C4
:1012B000001E0000006563686F3A003A20457874AC
:1012C0007275646572207377697463686564206FF2
:1012D00066662E204D494E54454D50207472696704
:1012E00067657265642021003A20457874727564E0
:1012F0006572207377697463686564206F66662E13
:10130000204D415854454D5020747269676765728D
:101310006564202100202D20496E76616C6964206F
:101320006578747275646572206E756D6265722081
:101330002100504944204175746F74756E652066B4
:10134000696E6973686564212050757420746865DE
:10135000204B702C204B6920616E64204B6420630D
:101360006F6E7374616E747320696E746F20436F57
:101370006E66696775726174696F6E2E6800504998
:1013800044204175746F74756E65206661696C6583
:1013900064212074696D656F75740020403A006F98
:1013A0006B20543A006F6B20423A00504944204170
:1013B00075746F74756E65206661696C6564212053
:1013C00054656D706572617475726520746F6F20FD
:1013D0006869676800204B643A2000204B693A2016
:1013E00000204B703A200020436C617369632050E9
:1013F000494420002054753A2000204B753A2000C3
:10140000206D61783A2000206D696E3A20002064DA
:101410003A200020626961733A20004572726F724F
:101420003A000000000018070100A8071400300867
:101430002800B8083C0038095000C0096400480A78
:101440007800C80A8C00480BA000C80BB400480CF8
:10145000C800C80CDC00400DF000C00D0401380EBF
:101460001801B00E2C01280F4001A00F54011810D4
:10147000680188107C01001190013013F4014815B7
:1014800058024017BC0228192003F01A8403A81C34
:10149000E803401E4C044D383420582059205A206F
:1014A000450043616E6E6F7420656E7465722073C3
:1014B00075626469723A20004D3234004D32332037
:1014C0002573006175746F25692E67006572726FF0
:1014D000722077726974696E6720746F2066696C18
:1014E000650043617264206572726F723A004E6FDC
:1014F00074205344207072696E74696E67002F0007
:101500005344207072696E74696E672062797465E5
:1015100020002E0044656C6574696F6E20666169F9
:101520006C65642C2046696C653A200046696C65E0
:101530002064656C657465643A002E006F70656E9A
:10154000206661696C65642C2046696C653A2000F0
:1015500057726974696E6720746F2066696C653AAA
:1015600020002E006F70656E206661696C65642CCA
:101570002046696C653A20002E006F70656E20660B
:1015800061696C65642C2046696C653A2000466987
:101590006C652073656C6563746564002053697ABB
:1015A000653A200046696C65206F70656E65643A27
:1015B00020002E006F70656E206661696C65642C7A
:1015C0002046696C653A20005344206361726420B0
:1015D0006F6B006F70656E526F6F74206661696C1F
:1015E000656400766F6C756D652E696E6974206632
:1015F00061696C656400534420696E69742066619A
:10160000696C006563686F3A004572726F723A00E8
:1016100048617264636F6465642044656661756CDB
:10162000742053657474696E6773204C6F616465D0
:101630006400563031300053746F726564207365F6
:101640007474696E67732072657472696576656417
:10165000002044002049002020204D33303120500C
:10166000005049442073657474696E67733A0020B2
:101670005A0020590020204D323036205800486F43
:101680006D65206F666673657420286D6D293A005C
:10169000204500205A0020580020420020540020FD
:1016A000204D323035205300416476616E636564AD
:1016B000207661726961626C65733A20533D4D69B1
:1016C0006E20666565647261746520286D6D2F7388
:1016D000292C20543D4D696E2074726176656C2012
:1016E000666565647261746520286D6D2F73292CA1
:1016F00020423D6D696E696D756D207365676D651E
:101700006E742074696D6520286D73292C20583DF6
:101710006D6178696D756D205859206A65726B200E
:10172000286D6D2F73292C20205A3D6D6178696DCD
:10173000756D205A206A65726B20286D6D2F732994
:101740002C2020453D6D6178696D756D2045206ABE
:1017500065726B20286D6D2F7329002054002020A6
:101760004D323034205300416363656C657261749F
:10177000696F6E3A20533D616363656C6572617495
:10178000696F6E2C20543D726574726163742061C0
:101790006363656C65726174696F6E00204500203B
:1017A0005A0020590020204D3230312058004D6120
:1017B00078696D756D20416363656C6572617469EC
:1017C0006F6E20286D6D2F7332293A00204500205E
:1017D0005A0020590020204D3230332058004D61EE
:1017E00078696D756D2066656564726174657320D6
:1017F000286D6D2F73293A00204500205A0020598A
:101800000020204D393220580053746570732070C9
:10181000657220756E69743A0053657474696E67F9
:10182000732053746F726564006563686F3A005487
:101830004553540D0A000D0A00556E6B6E6F776E9E
:1018400020636F6D6D616E643A20000D0A003F00E9
:1018500056657273696F6E3A5F31352E30322E31B4
:10186000676F00025052494E54004D415445524951
:10187000414C004D41494E54454E414E4345005068
:1018800072696E74696E6720776974682055534277
:101890002E2E2E00737570706F727440756C7469A3
:1018A0006D616B65722E636F6D00436F6E74616363
:1018B000743A0058206F72205920737769746368F6
:1018C00020737475636B0058206F722059207377F2
:1018D000697463682062726F6B656E005A2073775B
:1018E0006974636820737475636B005A2073776939
:1018F0007463682062726F6B656E00536166657415
:1019000079206369726375697400486561746572F2
:10191000206572726F720054656D702073656E730E
:101920006F72204245440054656D702073656E737C
:101930006F72004552524F52202D2053544F505039
:10194000454400801506060606FEFEFEFEFC00006D
:101950000000000000FCFEFEFEFC0000000EFEFE8B
:10196000FEFE0000E0FCFEFEFCE0E0000000CECE4B
:10197000CE000000C0C0C0C0C0C080000000000099
:101980000080C0C0800000000000008080C0C0C097
:10199000C0C0C0C080800000000006FEFEFEFE0049
:1019A00000000080C0C0C00000000000008080C0B7
:1019B000C0C080808000000000C0C0C0C00080C0E7
:1019C000C0C0C08000000000007FFFFFFFFF80005C
:1019D0000000000080FFFFFFFFFF00000000FFFF8E
:1019F000FF00000081F1FFFF3F0F3FFFFCF0F0FC14
:101A0000FF3F0F3FFFFEF880000000C1E1F1F171E0
:101A100031010183FFFFFFFC000000FFFFFFFF001B
:101A20000C3EFFFFF7C301000000FCFEFF8703111F
:101A30003131333F3F3F1E000001FFFFFFFF07032F
:101A400001010101000000000000010307070F0F62
:101A50000F0F0F0F0F0707070F0F06000000070FEC
:101A60000F07000000070F0F0700000000000F0F16
:101A70000F0000060F0F070100000001070F0F07FE
:101A80000100000001070F0F06000003070F0F0EF3
:101A90000E060703070F0F07000000070F0F0700D0
:101AA000000000030F0F0F060000000307070F0ED2
:101AB0000E0E0E0E0E06000000000F0F0F0F00009E
:101AC000000000000043414E43454C002073656315
:101AD00000206D696E0020686F75720020686F7558
:101AE000727300000000000000005F0000000700AB
:101AF0000700147F147F14242A7F2A1223130864FA
:101B00006236495522500005030000001C224100A6
:101B10000041221C00082A1C2A0808083E08080068
:101B2000503000000808080808006060000020101D
:101B30000804023E5149453E00427F400042615147
:101B400049462141454B311814127F102745454520
:101B5000393C4A494930017109050336494949363A
:101B6000064949291E00363600000056360000009E
:101B70000814224114141414144122140800020100
:101B8000510906324979413E7E1111117E7F494942
:101B900049363E414141227F4141221C7F4949490A
:101BA000417F090901013E414151327F0808087F08
:101BB00000417F41002040413F017F081422417FC6
:101BC000404040407F0204027F7F0408107F3E4176
:101BD00041413E7F090909063E4151215E7F0919B5
:101BE0002946464949493101017F01013F404040B2
:101BF0003F1F2040201F7F2018207F63140814639C
:101C00000304780403615149454300007F414102C8
:101C10000408102041417F000004020102044040FA
:101C2000404040000102040020545454787F48444E
:101C300044383844444420384444487F3854545449
:101C400018087E090102081454543C7F08040478E3
:101C500000447D40002040443D00007F10284400A7
:101C6000417F40007C041804787C080404783844E0
:101C70004444387C14141408081414187C7C080498
:101C800004084854545420043F4440203C40402021
:101C90007C1C2040201C3C4030403C442810284400
:101CA0000C5050503C4464544C44000836410000F1
:101CB000007F0000004136080008082A1C08081CA4
:101CC0002A0808473120462569205A2569205825C9
:101CD000692059256900473238205A302058302071
:101CE0005930006275696C64706C6174652E006FA8
:101CF000662061646A757374696E6720796F7572A6
:101D0000007468726F756768207468652070726F00
:101D10006365737300492077696C6C20677569642B
:101D20006520796F7500434F4E54494E5545004329
:101D3000414E43454C00473238205A3000746F20E2
:101D40007072696E742069742100616E6420707213
:101D50006573732074686520627574746F6E006FAC
:101D60006E207468652053442D636172640053656E
:101D70006C6563742061207072696E742066696C92
:101D8000650032312F3231004C45542753205052D8
:101D9000494E540052656164696E672063617264E4
:101DA0002E2E2E0032312F323100796F7572205570
:101DB0006C74696D616B6572322E2E2E00746861D1
:101DC000742063616D65207769746800506C65618B
:101DD000736520696E736572742053442D6361725C
:101DE000640032312F3231006D616B652061203328
:101DF00044205072696E74210049276D207265611C
:101E00006479206C657427730032302F32310041C1
:101E1000524520594F552052454144593F00536582
:101E20006C65637420746865206D617465726961A6
:101E30006C006974206973207573696E672E006F7A
:101E400066206D6174657269616C006B6E6F77738B
:101E50002077686174206B696E64004E6F7720791B
:101E60006F757220556C74696D616B6572320031EB
:101E7000392F323100434F4E54494E554500697356
:101E800020746869732072696768743F00596F75C0
:101E900020686176652063686F73656E0031382F46
:101EA000323100594553004E4F00206173206D615F
:101EB00074657269616C2C0031372F3231004D41ED
:101EC00054455249414C00556C74696D616B6572A3
:101ED000322E00696E73657274656420696E2074B9
:101EE000686973006D6174657269616C20796F75E2
:101EF0002068617665004E6578742C2073656C658A
:101F00006374207468650031362F323100524541C8
:101F100044590066726F6D206E6F7A7A6C652E2E52
:101F20002E006D6174657269616C206578697473E7
:101F3000005075736820627574746F6E20776865E1
:101F40006E0031352F323100434F4E54494E5545C6
:101F5000004C6F6164696E67206D617465726961C0
:101F60006C2E2E2E0031342F32310061626F766577
:101F700020746865206172726F772E00796F7572B8
:101F800020556C74696D616B6572322C0066726FDE
:101F90006D207468652072656172206F6600496EFD
:101FA00073657274206E6577206D61746572696106
:101FB0006C0031332F323100434F4E54494E55455A
:101FC000006D6174657269616C206C6F6164696E2B
:101FD00067007072696E7468656164206865617419
:101FE000696E6720666F7200506C6561736520775B
:101FF0006169742C0031322F3231004D3834004782
:102000003120463132303030205831313020593192
:102010003000746F20696E73657274206D61746531
:102020007269616C2E00746865206E657874207327
:1020300074657020697300746865206275696C64EA
:10204000706C617465004E6F7720746861742077DE
:1020500065206C6576656C65640031312F32310026
:10206000434F4E54494E5545007468652072696768
:10207000687420636F726E65722E2E2E005265702A
:10208000656174207468697320666F720031302F47
:10209000323100434F4E54494E554500444F4E4552
:1020A00000746865206C65667420636F726E65727B
:1020B0002E2E2E005265706561742074686973203D
:1020C000666F7200392F323100434F4E54494E55DE
:1020D000450062697420726573697374616E63652B
:1020E0002E00756E74696C20796F75206665656C5D
:1020F0002061006275696C64706C61746520616E4A
:1021000064206E6F7A7A6C6500536C696465206137
:10211000207061706572206265747765656E003845
:102120002F323100434F4E54494E554500434F4ED8
:1021300054494E554500473120462569205A300004
:1021400047312046256920582569205925690047CF
:102150003120462569205A3500746865206275690A
:102160006C64706C617465206C6576656C2E0070B3
:102170006170657220746F2066696E652D74756E6E
:1021800065006E6F772075736520612073686565E3
:1021900074206F660052657065617420746869739D
:1021A00020737465702C2062757400372F323100F3
:1021B000434F4E54494E55450066726F6D2074680A
:1021C00065206275696C64706C6174652E0069735A
:1021D0002061206D696C6C696D6574657220617732
:1021E00061790073637265772074696C6C20746820
:1021F00065206E6F7A7A6C65005475726E20726914
:10220000676874206275696C64706C61746500360F
:102210002F323100434F4E54494E5545004731202F
:10222000462569205A300047312046256920582527
:10223000692059256900473120462569205A350013
:1022400066726F6D20746865206275696C64706C6D
:102250006174652E0069732061206D696C6C696D15
:1022600065746572206177617900736372657720A8
:1022700074696C6C20746865206E6F7A7A6C650086
:102280005475726E206C656674206275696C64703A
:102290006C61746500352F323100434F4E54494E06
:1022A000554500473120462569205A3000473120E6
:1022B000462569205825692059256900473120465F
:1022C0002569205A350066726F6D2074686520623A
:1022D00075696C64706C6174652E0061206D696C49
:1022E0006C696D65746572206177617900756E74D3
:1022F000696C20746865206E6F7A7A6C65206973EA
:1023000000526F746174652074686520627574741E
:102310006F6E00342F323100434F4E54494E5545B5
:1023200000434F4E54494E554500473120462569DC
:10233000205A2569205825692059256900473238D7
:1023400020583020593000676F696E6720746F2005
:10235000646F2074686174206E6F772E0061646A08
:102360007573746D656E74732C207765206172656A
:10237000007765206E65656420746F20646F20733C
:102380006F6D65004166746572207472616E737062
:102390006F72746174696F6E00332F323100434F76
:1023A0004E54494E554500473120462569205A254F
:1023B0006900473238205A300061206669727374B0
:1023C0002072756E2077697A6172642E0077616C75
:1023D0006B20796F75207468726F75676800666925
:1023E00072737420737461727475702049207769F8
:1023F0006C6C004265636175736520746869732055
:1024000069732074686500322F323100434F4E5497
:10241000494E554500627574746F6E20746F206369
:102420006F6E74696E756500556C74696D616B656E
:102430007221205072657373207468650073746133
:1024400072747570206F6620796F75720057656CB5
:10245000636F6D6520746F207468652066697273A0
:102460007400312F323100434F4E54494E554500D0
:102470003F3F3F00466163746F72792072657365F8
:10248000740052756E74696D6520737461747300A5
:1024900056657273696F6E004D6F74696F6E20734D
:1024A000657474696E6773005265747261637469F0
:1024B0006F6E2073657474696E6773005365742062
:1024C00066616E207370656564004D6F7665206D82
:1024D0006174657269616C00496E73657274206D18
:1024E0006174657269616C0052616973652062751F
:1024F000696C64706C617465004C6F776572206202
:1025000075696C64706C61746500486F6D652068F6
:1025100065616400486561747570206E6F7A7A6CCD
:1025200065004C45442073657474696E6773003CA4
:102530002052455455524E0056657273696F6E3A7B
:102540005F31352E30322E31676F00250043004356
:102550002F0025003F3F3F0020476C6F77207768B2
:10256000656E20646F6E6500204F6E207768696C21
:1025700065207072696E74696E670020416C7761C6
:102580007973204F66660020416C77617973204F24
:102590006E004272696768746E657373003C205206
:1025A000455455524E0025002500427269676874F3
:1025B0006E657373004C4544004300432F00436C29
:1025C00069636B20746F2072657475726E004E6F54
:1025D0007A7A6C652074656D706572617475726568
:1025E0003A00473238205830205930004300432FFA
:1025F00000436C69636B20746F2072657475726E32
:1026000000526F7461746520746F20657874727500
:102610006465004E6F7A7A6C652074656D706572C2
:1026200061747572653A003F3F3F00526574726194
:1026300063742073706565640052657472616374BD
:10264000206C656E677468003C2052455455524EAC
:10265000006D6D2F736563006D6D006D6D2F73657B
:102660006300526574726163742073706565640001
:102670006D6D0052657472616374206C656E677471
:10268000680052455452414354494F4E003F3F3F2A
:102690000043757272656E742045004375727265F1
:1026A0006E74205A0043757272656E7420582F59EB
:1026B000004D6178207370656564205A004D617823
:1026C0002073706565642059004D617820737065D2
:1026D0006564205800582F59204A65726B00416389
:1026E00063656C65726174696F6E003C205245547D
:1026F00055524E006D41006D41006D41006D6D2FD2
:10270000736563006D6D2F736563006D6D2F736569
:1027100063006D6D2F736563006D6D2F7365635E70
:1027200032006D410043757272656E742045006D14
:10273000410043757272656E74205A006D4100430A
:10274000757272656E7420582F59006D6D2F736508
:1027500063004D6178207370656564205A006D6D6B
:102760002F736563004D617820737065656420592F
:10277000006D6D2F736563004D6178207370656522
:10278000642058006D6D2F73656300582F59204ADF
:1027900065726B0030306D6D2F7365635E32004182
:1027A0006363656C65726174696F6E004D4F544967
:1027B0004F4E0056657273696F6E3A5F31352E3039
:1027C000322E31676F004665622031392032303158
:1027D000352030393A35393A3538005265747572DA
:1027E0006E006D00204D61743A003A005072696EBF
:1027F00074696E673A003A004D616368696E6520DE
:102800006F6E20666F723A0052657475726E007456
:102810006F2064656661756C743F00526573657402
:102820002065766572797468696E67005945530052
:102830004E4F00250046616E207370656564004749
:1028400031204625692058256920592569004732DD
:1028500038205830205930004731205A3430004752
:102860003238205A3000473238205A300047323848
:1028700020583020593000414456414E43454400D1
:102880004255494C442D7C504C41544500414456DE
:10289000414E4345440052455455524E00504C4120
:1028A000006D6174657269616C20696E7365727424
:1028B000696F6E0048656174696E67207072696E39
:1028C000746865616420666F7200250046616E3A27
:1028D000200043002500466C6F773A006D6D004D77
:1028E0004154455249414C00636F6D6573206F75CB
:1028F0007420746865206E6F7A7A6C650057616920
:10290000742074696C6C206D6174657269616C000F
:1029100052454144590043414E43454C00466F7275
:1029200077617264696E67206D6174657269616C4C
:102930000061626F766520746865206172726F77DE
:102940002E00796F7572206D616368696E652C0069
:1029500066726F6D20746865206261636B73696471
:1029600065206F6600496E73657274206E6577200E
:102970006D6174657269616C005245414459004350
:10298000414E43454C0052656D6F7665206D617414
:10299000657269616C0052454144590043414E43A0
:1029A000454C00526576657273696E67206D61747F
:1029B000657269616C00666F72206D617465726921
:1029C000616C2072656D6F76616C00486561746939
:1029D0006E67207072696E74686561640047323892
:1029E00020583020593000496D706F727420667223
:1029F0006F6D205344004578706F727420746F209F
:102A0000534400437573746F6D697A65003C2052BE
:102A1000455455524E004C6F61647320616C6C20BC
:102A20006D6174657269616C7300536176657320C2
:102A3000616C6C206D6174657269616C73004D6FBF
:102A400064696679207468652073657474696E675B
:102A50007300250046616E3A200043002500466C55
:102A60006F773A006D6D003F3F3F0053746F7265A2
:102A70002061732070726573657400466C6F7720F7
:102A8000250046616E004469616D6574657200548D
:102A9000656D7065726174757265003C20524554B5
:102AA00055524E00250025006D6D0043004E6577A0
:102AB00020707265736574003C2052455455524E27
:102AC00000505245534554530025004D61746572C2
:102AD00069616C20666C6F7700250046616E20731B
:102AE00070656564006D6D004D6174657269616C3F
:102AF000204469616D6574657200430054656D70B2
:102B000065726174757265004D4154455249414C7E
:102B100000696E204D4154455249414C2E54585441
:102B200000746F20746865205344206361726400F0
:102B30005361766564206D6174657269616C7300C0
:102B40004F6B000A0A006469616D657465723D002F
:102B50000A00666C6F773D000A0066616E5F7370F5
:102B60006565643D000A0074656D70657261747519
:102B700072653D000A006E616D653D005B6D6174BC
:102B8000657269616C5D0A0052656164696E6720F7
:102B9000636172642E2E2E00506C6561736520692E
:102BA0006E736572742063617264004E6F205344CB
:102BB0002D43415244210066726F6D207468652078
:102BC00053442063617264004C6F61646564206DDE
:102BD0006174657269616C73004F6B006469616D4B
:102BE0006574657200666C6F770066616E5F737006
:102BF000656564006265645F74656D7065726174BB
:102C00007572650074656D706572617475726500CA
:102C10006E616D65005B6D6174657269616C5D000C
:102C2000466F756E64206F6E20636172642E004E75
:102C30006F206578706F72742066696C65005265EC
:102C40006164696E6720636172642E2E2E00506C81
:102C50006561736520696E73657274206361726467
:102C6000004E6F2053442D43415244210053656C64
:102C70006563746564206D6174657269616C3A00A6
:102C80004F4B004D4154455249414C00473120467D
:102C90002569205825692059256900473238205870
:102CA00030205930004348414E4745005345545465
:102CB000494E47530052455455524E004300432F4E
:102CC00000436C69636B20746F2072657475726E5B
:102CD000004E6F7A7A6C652074656D7065726174F0
:102CE0007572653A00507265706172696E67207422
:102CF0006F207072696E743A0048656174696E671E
:102D00002075702E2E2E0054554E450041424F52D4
:102D100054004C4544204272696768746E65737351
:102D20000052657472616374696F6E004D61746501
:102D30007269616C20666C6F770046616E207370FB
:102D40006565640054656D706572617475726500C7
:102D500053706565640041626F7274003C20524597
:102D60005455524E00250025002500430043002500
:102D70000041626F727420746865207072696E74AD
:102D80003F00594553004E4F003F3F3F005265748E
:102D9000726163742073706565640052657472615A
:102DA0006374206C656E677468003C20524554550E
:102DB000524E006D6D2F736563006D6D006D6D2F4C
:102DC0007365630052657472616374207370656526
:102DD00064006D6D0052657472616374206C656E81
:102DE0006774680052455452414354494F4E002580
:102DF000004272696768746E6573730025004D61E7
:102E000074657269616C20666C6F7700250046619D
:102E10006E2073706565640025005072696E7420C1
:102E200073706565640054554E450054696D6520A6
:102E30006C6566740054696D65206C6566742075F8
:102E40006E6B6E6F776E0043004300486561746976
:102E50006E67206275696C64706C61746500430014
:102E6000430048656174696E67005072696E7469E9
:102E70006E673A0054554E45005041555345005237
:102E80004553554D457C5052494E54004348414EA0
:102E900047457C4D4154455249414C0054554E459F
:102EA000004D38340047323800473238205A30005D
:102EB00047323820583020593000473120462569A4
:102EC0002045300047393220452569004D343031E6
:102ED000004D3630312058313020593230205A30B0
:102EE000204C3230004D36303120583130205932AC
:102EF00030205A32204C3230004D3630312058319B
:102F00003020593230205A3230204C323000746830
:102F100065207072696E742E00596F752063616E42
:102F20002072656D6F7665005072696E74206669F7
:102F30006E6973686564004241434B20544F204DD5
:102F4000454E55004320005072696E7465722063CF
:102F50006F6F6C696E6720646F776E004241434B00
:102F600020544F204D454E5500436F64653A005341
:102F7000442D63617264210072656164696E67004B
:102F80004572726F72207768696C650052455455BE
:102F9000524E20544F204D41494E0066726F6D20B5
:102FA00074686520736C696365722E007365747450
:102FB000696E6720776974682073657474696E67D9
:102FC000006F76657272696465206D616368696E11
:102FD0006500546869732066696C652077696C6C5C
:102FE00000434F4E54494E55450043414E43454CD6
:102FF000003C204241434B003C2052455455524E28
:10300000005344204341524400473120463132307E
:10301000303020582D3130205931300047323800BF
:103020003B464C41564F523A556C746947436F6466
:1030300065003B464C41564F523A556C74694743C4
:103040006F6465004E6F2066696C657320666F75EE
:103050006E6421004F4B004F4B0052656164696EF6
:103060006720636172642E2E2E00506C656173655B
:1030700020696E736572742063617264004E6F2004
:1030800053442D4341524421004E6F20696E666FB8
:1030900020617661696C61626C65006D006D004D48
:1030A0006174657269616C3A200054696D653A20FB
:1030B000003B4D4154455249414C3A003B54494D27
:1030C000453A00466F6C646572004E414E494E4968
:1030D0005459494E46CDCCCC3D0AD7233C17B7D1E5
:1030E0003877CC2B329595E6241FB14F0A0000208B
:1030F000410000C84200401C4620BCBE4CCA1B0E0A
:103100005AAEC59D74000C94FAA40C9454B80C9457
:1031100045C20C9415A60C9405B90C94661B0C942E
:1031200046C50C94F6C80C942E1B0C94B2BD0C949E
:103130007EB20C948CA30C9406C80C9460A60C94DC
:10314000EECC0C944ABC0C948AC90C94D2BA0C9460
:10315000931B0C9424C10C94EFAE0C94EEA60C942B
:10316000F5930C94C7AA0C94028F0C9432BB0C9468
:10317000481B0C94521B0C9449C60C9473CF0C94AE
:10318000381B0C94FDB60C94E9930C943DA50C945B
:103190003AA80C94FB930C949D1B0C945AB50C9478
:1031A0005A8F0C9459CC0C94F71D0C945AC70C945C
:1031B000628F0C94FF1B0C94CBA90C9400940C947C
:1031C000E6AB0C94F2C50C94A71B0C94D61B0C9484
:1031D000EC8E0C9439910C94EF930C94BDA40C9448
:1031E00083C50C9457AC0C942BA70C942A8F0C9489
:1031F000A9A50C941A1B0C94388F0C949EBB0C94AC
:103200001CB60C94EC1B0C94CDB20C9487BD0C94A2
:103210005CAA0C94F0A80C94608F0C94DE8E0C9435
:10322000E81B0C94AFAB0C946DC40C9471CC0C9453
:10323000D78E0C945C8F0C94CC1B0C942ACF0C94DE
:10324000D4AD0C94F21B0C947C8F0C9449A40C9478
:1032500003C30C947A900C94CAB70C945FB70C9487
:1032600030B20C9410AC0C944A460C9495B40C9467
:103270006FB80C94C51B0C9420C60C94F2930C945C
:1032800042C50C940A8F0C94F0BF0C94F2AD0C94D0
:1032900088B00C94BB1B0C9486A30C94E41B0C9478
:1032A0006E8F0C9425AF0C9473A40C94E6930C943D
:1032B000C7BB0C946BB60C949EAC0C94F3CF0C94DF
:1032C00073D10C945C1B0C94F8930C9447B80C9439
:1032D000CDCB0C943F8F0C94FA1B0C9468C60C94C5
:1032E000768F0C94F3BD0C9485BA0C94B9CE0C94E3
:1032F0007EBA0C941F980C94CBA30C949ABE0C9499
:1033000004CF0C94FEB60C94488F0C9435C10C94E9
:10331000D01B0C94F6CD0C94AEAD0C94F8CC0C9460
:1033200008AE0C9446AB0C94BF1B0C94688F0C94A5
:1033300037B70C9495B00C940AA40C94748F0C9429
:1033400010AD0C941F1B0C94EFAF0C944DB70C9464
:1033500000B10C9484A70C9463A90C94C81B0C9422
:10336000668F0C944FAD0C94138F0C9460BD0C942D
:10337000401B0C94A7A60C94DA1B0C949FCC0C94C5
:10338000728F0C94DE1B0C94EC930C94F4B50C949B
:103390006A8F0C948C910C94F61B0C9466B20C946E
:1033A000B9940C942E540C947F1B0C941A8F0C948B
:1033B00039460C94241B0C94CEC40C94518F0C945D
:1033C0005E8F0C94788F0C94238F0C94708F0C94D8
:1033D00018B70C94891B0C94FA8E0C94CD8E0C9417
:1033E00066AA0C946C8F0C94D08E0C94318F0C9434
:1033F000751B0C949DA40C94F6AB0C94F38E0C945A
:10340000BEBC0C94648F0C94E58E0C947DAD394653
:103410004A4611241FBECFEFD1E2DEBFCDBF00E090
:103420000CBF14E0A0E0B2E0E2E1F5EC01E00BBF7C
:1034300002C007900D92AC32B107D9F71AE1ACE2A5
:10344000B4E001C01D92AF33B107E1F714E3C0E16E
:10345000D4E300E006C022970109FE010BBF0E94E1
:103460005BDBCE30D10780E00807A9F70E9421D6A8
:103470000C9477E20C9400001F920F920FB60F92FB
:1034800011242F933F938F939F93AF93BF9380917A
:103490002D0490912E04A0912F04B091300430910E
:1034A0002C0423E0230F2D3720F40196A11DB11D1C
:1034B00005C026E8230F0296A11DB11D20932C0400
:1034C00080932D0490932E04A0932F04B093300486
:1034D0008091310490913204A0913304B09134046E
:1034E0000196A11DB11D8093310490933204A093E5
:1034F0003304B0933404BF91AF919F918F913F916A
:103500002F910F900FBE0F901F9018952FB7F89422
:1035100060912D0470912E0480912F0490913004BD
:103520002FBF0895789484B5826084BD84B581608E
:1035300084BD85B5826085BD85B5816085BDEEE6BB
:10354000F0E0808181608083E1E8F0E0108280819A
:1035500082608083808181608083E0E8F0E0808108
:1035600081608083E1EBF0E0808184608083E0EB28
:10357000F0E0808181608083E1E9F0E08081826019
:103580008083808181608083E0E9F0E080818160D8
:103590008083E1EAF0E080818260808380818160C5
:1035A0008083E0EAF0E0808181608083E1E2F1E005
:1035B000808182608083808181608083E0E2F1E0AD
:1035C000808181608083EAE7F0E08081846080838D
:1035D0008081826080838081816080838081806837
:1035E00080831092C10008951F93CF93DF93182F0B
:1035F000EB0161E00E94001C209711F460E004C020
:10360000CF3FD10539F461E0812FDF91CF911F9138
:103610000C94391CE12FF0E0EB52FE4F449150E046
:10362000FA013197E131F10508F091C0EE58FF4FF2
:103630000C9432DB84B5806884BDC7BD8DC084B571
:10364000806284BDC8BD88C08091800080688093FE
:103650008000D0938900C09388007EC08091800054
:10366000806280938000D0938B00C0938A0074C0E6
:103670008091B00080688093B000C093B3006CC0AC
:103680008091B00080628093B000C093B40064C0A9
:1036900080919000806880939000D0939900C093AF
:1036A00098005AC080919000806280939000D093DF
:1036B0009B00C0939A0050C08091900088608093D6
:1036C0009000D0939D00C0939C0046C08091A000C4
:1036D00080688093A0008091A0008F7B8093A000E1
:1036E000D093A900C093A80037C08091A000806249
:1036F0008093A000D093AB00C093AA002DC080910E
:10370000A00088608093A000D093AD00C093AC006F
:1037100023C080912001806880932001D0932901EB
:10372000C093280119C080912001806280932001FC
:10373000D0932B01C0932A010FC080912001886093
:1037400080932001D0932D01C0932C0105C0C03877
:10375000D1050CF058CF52CFDF91CF911F91089532
:1037600090E0FC013197E131F10508F048C0ED57D8
:10377000FF4F0C9432DB809180008F7703C08091E3
:1037800080008F7D80938000089584B58F7702C07C
:1037900084B58F7D84BD08958091B0008F7703C07C
:1037A0008091B0008F7D8093B0000895809190004B
:1037B0008F7707C0809190008F7D03C0809190002B
:1037C000877F8093900008958091A0008F7707C035
:1037D0008091A0008F7D03C08091A000877F80939F
:1037E000A0000895809120018F7707C0809120016B
:1037F0008F7D03C080912001877F809320010895F1
:10380000CF93DF9390E0FC01E55EFD4F2491FC0136
:10381000EF59FD4F8491882349F190E0880F991F5B
:10382000FC01EF53FD4FA591B49189559D4FFC01CB
:10383000C591D4919FB7611108C0F8948C912095DF
:1038400082238C93888182230AC0623051F4F894D9
:103850008C91322F309583238C938881822B88839F
:1038600004C0F8948C91822B8C939FBFDF91CF91F1
:1038700008950F931F93CF93DF931F92CDB7DEB7B9
:10388000282F30E0F901EB52FE4F8491F901E55EFB
:10389000FD4F1491F901EF59FD4F04910023C9F038
:1038A000882321F069830E94B01B6981E02FF0E03A
:1038B000EE0FFF1FE955FD4FA591B4919FB7F89406
:1038C0008C91611103C01095812301C0812B8C93D1
:1038D0009FBF0F90DF91CF911F910F9108951F927D
:1038E0000F920FB60F9211240BB60F922F933F93A6
:1038F0004F935F936F937F938F939F93AF93BF93F8
:10390000EF93FF938091390490913A04892B29F029
:10391000E0913904F0913A041995FF91EF91BF912C
:10392000AF919F918F917F916F915F914F913F9157
:103930002F910F900BBE0F900FBE0F901F901895F8
:103940001F920F920FB60F9211240BB60F922F9366
:103950003F934F935F936F937F938F939F93AF9317
:10396000BF93EF93FF9380913B0490913C04892B8C
:1039700029F0E0913B04F0913C041995FF91EF91FF
:10398000BF91AF919F918F917F916F915F914F9177
:103990003F912F910F900BBE0F900FBE0F901F9075
:1039A00018951F920F920FB60F9211240BB60F921B
:1039B0002F933F934F935F936F937F938F939F9337
:1039C000AF93BF93EF93FF9380913D0490913E049A
:1039D000892B29F0E0913D04F0913E041995FF9167
:1039E000EF91BF91AF919F918F917F916F915F9177
:1039F0004F913F912F910F900BBE0F900FBE0F90E4
:103A00001F9018951F920F920FB60F9211240BB6AC
:103A10000F922F933F934F935F936F937F938F9367
:103A20009F93AF93BF93EF93FF9380913F04909147
:103A30004004892B29F0E0913F04F091400419954E
:103A4000FF91EF91BF91AF919F918F917F916F9176
:103A50005F914F913F912F910F900BBE0F900FBE32
:103A60000F901F9018951F920F920FB60F9211246E
:103A70000BB60F922F933F934F935F936F937F9368
:103A80008F939F93AF93BF93EF93FF9380913504F0
:103A900090913604892B29F0E0913504F091360499
:103AA0001995FF91EF91BF91AF919F918F917F9168
:103AB0006F915F914F913F912F910F900BBE0F909F
:103AC0000FBE0F901F9018951F920F920FB60F9276
:103AD00011240BB60F922F933F934F935F936F93E5
:103AE0007F938F939F93AF93BF93EF93FF938091B7
:103AF000370490913804892B29F0E0913704F09134
:103B000038041995FF91EF91BF91AF919F918F91DB
:103B10007F916F915F914F913F912F910F900BBECD
:103B20000F900FBE0F901F9018951F920F920FB617
:103B30000F9211240BB60F922F933F934F935F93E5
:103B40006F937F938F939F93AF93BF93EF93FF9365
:103B50008091410490914204892B29F0E091410425
:103B6000F09142041995FF91EF91BF91AF919F9110
:103B70008F917F916F915F914F913F912F910F9016
:103B80000BBE0F900FBE0F901F9018951F920F92B3
:103B90000FB60F9211240BB60F922F933F934F93B2
:103BA0005F936F937F938F939F93AF93BF93EF93A5
:103BB000FF938091430490914404892B29F0E09174
:103BC0004304F09144041995FF91EF91BF91AF9197
:103BD0009F918F917F916F915F914F913F912F9125
:103BE0000F900BBE0F900FBE0F901F901895CF92A5
:103BF000DF92EF92FF920F931F93CF93DF936C01AD
:103C00007A01EB01E60EF71E00E010E0CE15DF05AD
:103C100061F06991D601ED91FC910190F081E02D68
:103C2000C6011995080F191FF1CFC801DF91CF9177
:103C30001F910F91FF90EF90DF90CF900895FC01BE
:103C4000659175918591949108950F931F93CF93EA
:103C5000DF93EC01CC0FDD1FCC0FDD1FCE01855EA5
:103C6000974F0E941F1E8E010F58154FFE01EB59F2
:103C7000F54F20813181428153810E942FD6F80176
:103C80006083718382839383CE018D5C974F0E9402
:103C90001F1EFE01E05DFD4F60837183828393836D
:103CA000CE01895D974F0E941F1ECC5DDD4F68835A
:103CB00079838A839B83DF91CF911F910F91089520
:103CC000FC012491222341F03091C00035FFFCCF4C
:103CD0002093C6000196F4CF22E030E084E89CE017
:103CE0000C947F48FC012491222341F03091C000C4
:103CF00035FFFCCF2093C6000196F4CF2AE030E0D8
:103D000084E89CE00C94CE47CF93DF931F921F92E0
:103D1000CDB7DEB78091391A90913A1A9E012F5F84
:103D20003F4F009719F42F533A4102C0281B390B1B
:103D30003A83298389819A810F900F90DF91CF91E7
:103D400008958091610490916204181619069CF4FC
:103D50008091650490916604019668E070E00E948D
:103D6000DDDA909364048093630481E090E09093A3
:103D7000620480936104089520916104309162048B
:103D8000283031050CF06AC04091630450916404FE
:103D900060E6649F9001659F300D1124BC01C9014C
:103DA00081599B4F0E940FDFEFE3F8E08491882355
:103DB00041F09091C00095FFFCCF8093C6003196F2
:103DC000F5CFE5EFF7E08491882341F09091C000B2
:103DD00095FFFCCF8093C6003196F5CF80916304A8
:103DE0009091640420E6289FF001299FF00D112492
:103DF000E159FB4F8191882339F09091C00095FFE4
:103E0000FCCF8093C600F6CFE3EFF7E084918823E0
:103E100041F09091C00095FFFCCF8093C600319691
:103E2000F5CF8091C00085FFFCCF8AE08093C6006B
:103E30008091630490916404019668E070E00E94B0
:103E4000DDDA90936404809363048091610490911F
:103E50006204019690936204809361040895209116
:103E6000610430916204283031050CF06AC0409141
:103E700063045091640460E6649F9001659F300D77
:103E80001124BC01C90181599B4F0E9484DEEFE3DC
:103E9000F8E08491882341F09091C00095FFFCCF19
:103EA0008093C6003196F5CFE8EEF7E08491882341
:103EB00041F09091C00095FFFCCF8093C6003196F1
:103EC000F5CF809163049091640420E6289FF0016F
:103ED000299FF00D1124E159FB4F8191882339F07E
:103EE0009091C00095FFFCCF8093C600F6CFE6EE20
:103EF000F7E08491882341F09091C00095FFFCCFBA
:103F00008093C6003196F5CF8091C00085FFFCCF2D
:103F10008AE08093C60080916304909164040196C6
:103F200068E070E00E94DDDA90936404809363049B
:103F30008091610490916204019690936204809351
:103F40006104089581E020916104309162041216A9
:103F500013060CF080E008958091610408950A9A98
:103F6000129A08950E94AF1F40E950ED63E070E09F
:103F700084E89CE00E948746E0EEF7E08491882385
:103F800041F09091C00095FFFCCF8093C600319620
:103F9000F5CF8091C00085FFFCCF8AE08093C600FA
:103FA0008FE398E0FC012491222341F03091C0007E
:103FB00035FFFCCF2093C6003196F5CF24B720FF04
:103FC00014C0E8EDF7E03491332341F04091C00094
:103FD00045FFFCCF3093C6003196F5CF3091C0003D
:103FE00035FFFCCF3AE03093C60021FF14C0E8EC67
:103FF000F7E03491332341F04091C00045FFFCCFFE
:104000003093C6003196F5CF3091C00035FFFCCF1C
:104010003AE03093C60022FF14C0E7EBF7E034919A
:10402000332341F04091C00045FFFCCF3093C600E0
:104030003196F5CF3091C00035FFFCCF3AE0309398
:10404000C60023FF14C0E7EAF7E03491332341F0C0
:104050004091C00045FFFCCF3093C6003196F5CFAC
:104060003091C00035FFFCCF3AE03093C60025FF09
:1040700014C0E7E9F7E02491222341F03091C00019
:1040800035FFFCCF2093C6003196F5CF2091C000BC
:1040900025FFFCCF2AE02093C60014BEEFE8F7E02E
:1040A0002491222341F03091C00035FFFCCF2093B2
:1040B000C6003196F5CFE9E8F7E02491222341F0DC
:1040C0003091C00035FFFCCF2093C6003196F5CF6C
:1040D0002091C00025FFFCCF2AE02093C600FC0100
:1040E0002491EFE3F8E0222349F03091C00035FF3E
:1040F000FCCF2093C60031962491F5CFE9E7F7E095
:104100002491222341F03091C00035FFFCCF209351
:10411000C6003196F5CFE4E6F7E02491222341F082
:104120003091C00035FFFCCF2093C6003196F5CF0B
:10413000E8E5F7E02491222341F03091C00035FFFB
:10414000FCCF2093C6003196F5CFE5E4F7E024914B
:10415000222341F03091C00035FFFCCF2093C600F0
:104160003196F5CF2091C00025FFFCCF2AE02093A7
:10417000C600EAE3F7E02491222341F03091C00029
:1041800035FFFCCF2093C6003196F5CFEEE2F7E085
:104190002491222341F03091C00035FFFCCF2093C1
:1041A000C6003196F5CF2091C00025FFFCCF2AE054
:1041B0002093C600FC018491EFE3F8E0882349F0E6
:1041C0009091C00095FFFCCF8093C60031968491FA
:1041D000F5CFEFE1F7E08491882341F09091C000A2
:1041E00095FFFCCF8093C6003196F5CF0E94841EC8
:1041F0004AE050E0BC0184E89CE00E949F47E8E070
:10420000F7E08491882341F09091C00095FFFCCFA6
:104210008093C6003196F5CF4AE050E060ED74E03F
:1042200084E89CE00E949F478091C00085FFFCCFFE
:104230008AE08093C600E7E6F4E0119284E0EF366E
:10424000F807D9F70E94398D0E94B6D30E94A9744D
:104250000E94BB5F0E94678E0E942D730C946D9329
:1042600080915B0490915C0460E070E001960C9496
:104270005FDB80915B0490915C044AE050E060E079
:1042800070E001960C94DCDC682F70E020916504EE
:104290003091660440E6429FC001439F900D112477
:1042A00081599B4F0E9404DF90935C0480935B04D0
:1042B00021E0892B09F420E0822F08950E94861ABC
:1042C00060935704709358048093590490935A0450
:1042D000E0916504F0916604E959FB4F80818111FA
:1042E00014C0E0E7F3E08491882341F09091C0008E
:1042F00095FFFCCF8093C6003196F5CF8091C0002A
:1043000085FFFCCF8AE08093C600089584E89CE096
:104310000E94D946E3E7F3E08491882341F090912D
:10432000C00095FFFCCF8093C6003196F5CF409139
:1043300074075091750760917607709177074F5F0A
:104340005F4F6F4F7F4F2AE030E084E89CE00E948F
:1043500078478091C00085FFFCCF8AE08093C6003B
:104360000C945E212F923F924F925F926F927F92B8
:104370008F929F92AF92BF92CF92DF92EF92FF9275
:104380000F931F93CF93DF93CDB7DEB76F970FB621
:10439000F894DEBF0FBECDBF30E6D32E48E0E42E4A
:1043A000F12CEBECF5E0B4905AE0C52EE1E4F6E038
:1043B000A490992493948091050D9091060D2091DD
:1043C000070D3091080D821B930B8F779927892B4E
:1043D00009F453C2809161049091620408970CF033
:1043E0004CC284E89CE00E94BD468093600420910A
:1043F0005E0430915F048A3061F08D3051F08A3371
:1044000021F490915D04992321F02F3531050CF4AE
:10441000B8C12115310509F4D2C18091630490918E
:104420006404D89E8001D99E100D1124F801E20F7A
:10443000F31FE159FB4F108220915D0421119CC1B3
:1044400010925D04FC01E959FB4F1082980121593B
:104450003B4F39016EE470E0C9010E9404DF009710
:1044600009F4A2C090935C0480935B0486199709B9
:10447000800F911F4AE050E060E070E080599B4F50
:104480000E94DCDC609378077093790780937A0749
:1044900090937B0740907407509075076090760763
:1044A000709077073FEF431A530A630A730A00912B
:1044B000630410916404641575058605970509F475
:1044C00081C1D09EC001D19E900D11246AEE76E08C
:1044D00081599B4F0E94C9DE892B09F073C1E5E425
:1044E000F8E08491882341F09091C00095FFFCCFC3
:1044F0008093C6003196F5CFE7EBF6E084918823F0
:1045000041F09091C00095FFFCCF8093C60031969A
:10451000F5CF4091740750917507609176077091BF
:1045200077072AE030E084E89CE00E947847809199
:10453000C00085FFFCCF32C090935C0480935B0485
:1045400084199509860D971D60E070E080599B4F96
:104550000E945FDB0E9477D7212F30E026173707B4
:1045600009F45EC0E5E4F8E08491811176C1E8E9E0
:10457000F6E08491811179C14091740750917507DB
:1045800060917607709177072AE030E084E89CE03C
:104590000E9478478091C00085FFFCCF8AE080931D
:1045A000C6000E94862137C06AE270E0C3010E9403
:1045B00004DF892B09F444C0E5E4F8E08491882302
:1045C00041F09091C00095FFFCCF8093C6003196DA
:1045D000F5CFE4E4F6E08491882341F09091C000A7
:1045E00095FFFCCF8093C6003196F5CF40917407BC
:1045F0005091750760917607709177072AE030E057
:1046000084E89CE00E9478478091C00085FFFCCF41
:104610008AE08093C60010925F0410925E04ECC2A0
:104620008091780790917907A0917A07B0917B07E4
:104630008093740790937507A0937607B0937707DC
:104640008091630490916404D89E8001D99E100DDE
:104650001124C80181599B4F3C0167E470E00E941E
:1046600004DF009709F442C090935C0480935B04DC
:1046700086199709800F911F60E070E080599B4F69
:104680000E945FDB0E9477D76430710578F58091D6
:104690004904811117C08091870A811127C08A2D92
:1046A000E1E4F6E0882349F09091C00095FFFCCF4B
:1046B0008093C60031968491F5CF8091C00085FF2C
:1046C000FCCF12C08B2DEBECF5E0882349F09091E4
:1046D000C00095FFFCCF8093C60031968491F5CF42
:1046E0008091C00085FFFCCFC092C600809163041A
:1046F00090916404D89E8001D99E100D1124D80198
:10470000A159BB4F3D016DE470E0CD010E9404DF73
:1047100090935C0480935B0486199709800F911F26
:104720004AE050E060E070E080599B4F0E94DCDC82
:10473000693671058105910551F00E94861A6093D2
:104740001C1570931D1580931E1590931F15809155
:104750006304909164040196B7010E94DDDA90939E
:1047600064048093630480916104909162040196D3
:10477000909362048093610410925F0410925E042F
:104780001ACE8B3311F490925D0490915D049111D7
:1047900012CE4091630450916404B9016F5F7F4F62
:1047A00070935F0460935E04D49EF001D59EF00D7B
:1047B0001124E20FF31FE159FB4F8083FCCD1092CF
:1047C0005D041AC2D09E3001D19E700C1124930159
:1047D00021593B4F29016AE270E0C9010E9404DFC0
:1047E000009769F5E5E4F8E08491882341F0909121
:1047F000C00095FFFCCF8093C6003196F5CFEEE662
:10480000F6E08491882341F09091C00095FFFCCFA1
:104810008093C6003196F5CF40917407509175078B
:1048200060917607709177072AE030E084E89CE099
:104830000E9478478091C00085FFFCCFAFCE20E07A
:1048400010E0F301E20FF11DE159FB4F30813A32E4
:1048500009F472CE2F5F1327F4CF9091C00095FF1B
:10486000FCCF8093C60031967FCE9091C00095FF1B
:10487000FCCF8093C60031967CCE8091890A882334
:1048800009F4BAC180915E0490915F04892BC1F054
:104890000E94861A00911C1510911D1520911E155D
:1048A00030911F15601B710B820B930B683873419D
:1048B0008105910508F4A0C110925F0410925E0476
:1048C00080918A0A811198C1E8EBF5E024912F8F3D
:1048D0001AE09CE3C92ED12CE12CF12C20E1422ED0
:1048E0002EE0522E612C712CCE0101961C01EFE3BB
:1048F000F8E0049140917A0C50917B0C60917C0C13
:1049000070917D0C8091720C9091730CA091740C3D
:10491000B091750C481759076A077B0708F06CC1FE
:10492000809161049091620408970CF065C18091B8
:104930005F0C9091600CA091610CB091620C80931F
:104940007A0C90937B0CA0937C0CB0937D0C87E544
:104950009CE00E94D64D2091310C2223B9F1809128
:104960008B0A811105C087E89AE00E94898053CEA6
:104970001092310C10925F0410925E044091450435
:104980005091460460914704709148048091720CE4
:104990009091730CA091740CB091750C9250A10978
:1049A000B10984179507A607B70718F41092890A6A
:1049B00023C140937A0C50937B0C60937C0C7093D2
:1049C0007D0C87E59CE00E94A24E16C1482F809383
:1049D00060048A30A1F08D3091F08A3321F4209167
:1049E0005D04222361F020915E0430915F042F3535
:1049F00031052CF48F3FAFEF9A0709F0C9C08090C2
:104A00007A0C90907B0CA0907C0CB0907D0C409127
:104A1000720C5091730C6091740C7091750C84162B
:104A20009506A606B70608F0D3C0019609F06AC03D
:104A3000CFC09091C00095FFFCCF8093C600319607
:104A400084918111F6CF8091C00085FFFCCF109337
:104A5000C6000E94861A60934B0470934C048093A6
:104A60004D0490934E0480904F0490905004A09079
:104A70005104B0905204681979098A099B0928EEFB
:104A800033E040E050E00E94F1DA49015A01CA01E6
:104A9000B901A70196010E94F1DACA01B901A70183
:104AA00096010E94F1DA7F936F93C501B401A301CF
:104AB00092010E94F1DA3F932F93A4EAB5E0BF93ED
:104AC000AF933F922F920E945BDF802F0FB6F89436
:104AD000DEBF0FBECDBFEFE3F8E081117DC0F10175
:104AE0008191811182C08091C00085FFFCCF10931D
:104AF000C60087E89AE00E946B8761E087E89AE049
:104B00000E94AD8420915E0430915F04211531052F
:104B100009F455CE809163049091640440E6489F67
:104B2000F001499FF00D1124E20FF31FE159FB4FF3
:104B30001082FC01E959FB4F21E0208320916104A0
:104B4000309162042F5F3F4F3093620420936104E1
:104B5000019668E070E00E94DDDA9093640480932F
:104B6000630410925D0410925F0410925E048091C1
:104B70007A0C90917B0CA0917C0CB0917D0C809371
:104B8000450490934604A0934704B0934804B2CEE2
:104B90004B3319F441E040935D0440915D044111B1
:104BA000A9CE4091630450916404B9016F5F7F4FB7
:104BB00070935F0460935E0490E6949FF001959F6C
:104BC000F00D1124E20FF31FE159FB4F808392CEC9
:104BD0008F8DE8EBF5E035CF9091C00095FFFCCFCD
:104BE0008093C6003196849178CF9091C00095FF54
:104BF000FCCF8093C60074CF6F960FB6F894DEBFDB
:104C00000FBECDBFDF91CF911F910F91FF90EF901D
:104C1000DF90CF90BF90AF909F908F907F906F90DC
:104C20005F904F903F902F9008954F925F926F92B8
:104C30007F928F929F92AF92BF92CF92DF92EF922C
:104C4000FF920F931F93CF93DF9300D01F92CDB7A6
:104C5000DEB719821A821B821C826CEAA62E63E0E0
:104C6000B62E71E7C72E7AE0D72EE0E9EE2EE7E008
:104C7000FE2E00E010E099249394F50181915F01EC
:104C80000E944421882369F10E9430212B013C01BC
:104C9000F801ED57F54F8081811103C060916F07D6
:104CA00001C061E070E080E090E00E94AAD7F601C8
:104CB00020813181428153810E94DDD99B01AC0169
:104CC000C301B2010E942FD6F701608371838283F2
:104CD0009383E1E0F0E0EC0FFD1FE00FF11F908205
:104CE0000AC0F60180819181A281B381F70180839E
:104CF0009183A283B3830F5F1F4FF4E0CF0ED11CCB
:104D000084E0E80EF11C0430110509F0B6CF86E40A
:104D10000E9444218823D9F00E9430216B017C013C
:104D20006093800770938107809382079093830735
:104D300020E030E0A9010E940BD9181644F4C0927B
:104D40000E02D0920F02E0921002F09211028091B6
:104D5000A607882309F4BCC089818111B9C08A8162
:104D60008111B6C08B818111B3C08C81882309F475
:104D7000AFC080907D0A90907E0AA0907F0AB0908C
:104D8000800AA501940160919C0770919D07809114
:104D90009E0790919F070E942ED66B017C012DECFF
:104DA0003CEC4CEC5DEB0E9408D787FF4DC0809136
:104DB000A50781118DC020911702309118024091F2
:104DC000190250911A026091980770919907809189
:104DD0009A0790919B070E942FD660939807709333
:104DE000990780939A0790939B07C701B601905843
:104DF00020911F0230912002409121025091220205
:104E00000E942ED69B01AC01C501B4010E942ED692
:104E100060937D0A70937E0A80937F0A9093800A44
:104E200080911B0290911C02A0911D02B0911E0264
:104E300080930E0290930F02A0931002B093110280
:104E400081E08093A50744C02DEC3CEC4CEC5DE385
:104E5000C701B6010E940BD91816D4F58091A50799
:104E60008823B1F1A701960160911F027091200281
:104E700080912102909122020E942ED62091A107BA
:104E80003091A2074091A3075091A4070E942FD60A
:104E90009B01AC01C501B4010E942FD660937D0A2D
:104EA00070937E0A80937F0A9093800A8091130208
:104EB00090911402A0911502B091160280930E02F7
:104EC00090930F02A0931002B09311021092A507C5
:104ED0000F900F900F900F90DF91CF911F910F9136
:104EE000FF90EF90DF90CF90BF90AF909F908F900A
:104EF0007F906F905F904F9008950E94152689E4EF
:104F00000E944421882359F00E9430216093840735
:104F100070938507809386079093870708C0109247
:104F200084071092850710928607109287078AE4FB
:104F30000E944421882359F00E9430216093880701
:104F40007093890780938A0790938B070895109236
:104F500088071092890710928A0710928B0708958C
:104F6000CF92DF92EF92FF92CF93DF93EC01C0904C
:104F70003002D0903102E0903202F0903302A7016B
:104F80009601688179818A819B810E9408D787FF79
:104F900004C0C882D982EA82FB82C0903402D090D9
:104FA0003502E0903602F0903702A70196016C813D
:104FB0007D818E819F810E9408D787FF04C0CC82AB
:104FC000DD82EE82FF82C0903802D0903902E090FC
:104FD0003A02F0903B02A7019601688579858A859F
:104FE0009B850E9408D787FF04C0C886D986EA86B9
:104FF000FB86C0902402D0902502E0902602F0901B
:105000002702A7019601688179818A819B810E948C
:105010000BD9181624F4C882D982EA82FB82C09088
:105020002802D0902902E0902A02F0902B02A701DA
:1050300096016C817D818E819F810E940BD918160B
:1050400024F4CC82DD82EE82FF82C0902C02D090CC
:105050002D02E0902E02F0902F02A70196016885A4
:1050600079858A859B850E940BD9181624F4C886F9
:10507000D986EA86FB86DF91CF91FF90EF90DF9093
:10508000CF900895CF92DF92EF92FF920F931F93EC
:1050900080E997E00E94B0270E94861A6093570427
:1050A000709358048093590490935A042091900768
:1050B0003091910740919207509193076091710A46
:1050C0007091720A8091730A9091740A0E9408D7B5
:1050D000811179C0209194073091950740919607EE
:1050E000509197076091750A7091760A8091770ABE
:1050F0009091780A0E9408D7811165C020E030E0C5
:1051000040E752E460910E0270910F02809110020C
:10511000909111020E940FD7F4E6CF2EFAE0DF2E15
:105120007B018C012CE937E048E957E064E977E03E
:1051300080E997E00E9452608091900790919107DA
:10514000A0919207B09193078093710A9093720A8D
:10515000A093730AB093740A809194079091950775
:10516000A0919607B09197078093750A9093760A5D
:10517000A093770AB093780A809198079091990745
:10518000A0919A07B0919B078093790A90937A0A2D
:10519000A0937B0AB0937C0A80919C0790919D0715
:1051A000A0919E07B0919F0780937D0A90937E0AFD
:1051B000A0937F0AB093800A1F910F91FF90EF9008
:1051C000DF90CF90089560913E0270913F02882752
:1051D00077FD8095982F0E94AAD720910E023091DA
:1051E0000F0240911002509111020E94DDD920E07F
:1051F00030E040E752E40E940FD720E030E048EC76
:1052000052E488CFAF92BF92CF92DF92EF92FF929B
:105210000F931F93CF93DF93D82F2091880730915E
:10522000890740918A0750918B076091840770919C
:10523000850780918607909187070E9418D9C62F0D
:10524000172F082FF92E60913E0270913F02882798
:1052500077FD8095982F0E94AAD720910E02309159
:105260000F0240911002509111020E94DDD920E0FE
:1052700030E040E752E40E940FD720E030E048ECF5
:1052800052E40E940FD72091640A2F93DF93FF927C
:105290000F931F93CF935B016C01A2E0EA2E01E014
:1052A00020E044E857E060E977E081E79AE00E9477
:1052B000EA588091900790919107A0919207B09140
:1052C00093078093710A9093720AA093730AB09324
:1052D000740A8091940790919507A0919607B091D8
:1052E00097078093750A9093760AA093770AB093F4
:1052F000780A8091980790919907A0919A07B091A8
:105300009B078093790A90937A0AA0937B0AB093C3
:105310007C0A80919C0790919D07A0919E07B09177
:105320009F0780937D0A90937E0AA0937F0AB09393
:10533000800A0E94861A60935704709358048093E1
:10534000590490935A040F900F900F900F900F9064
:105350000F90DF91CF911F910F91FF90EF90DF9011
:10536000CF90BF90AF900895F8940E942C75159A35
:10537000469A439A409A60E088E10E94001CE5E466
:10538000F8E08491882341F09091C00095FFFCCF14
:105390008093C6003196F5CFE1E5F3E08491882350
:1053A00041F09091C00095FFFCCF8093C6003196EC
:1053B000F5CF8091C00085FFFCCF8AE08093C600C6
:1053C000FFCFCF93DF931F92CDB7DEB789830E94C3
:1053D0002C75909149048981911133C080934904BF
:1053E0008091740790917507A0917607B091770727
:1053F0008093700790937107A0937207B09373071F
:10540000E5E4F8E08491882341F09091C00095FF95
:10541000FCCF8093C6003196F5CFEBEDF2E084919E
:10542000882341F09091C00095FFFCCF8093C60087
:105430003196F5CF8091C00085FFFCCF8AE0809344
:10544000C6000F90DF91CF9108952F923F924F9217
:105450005F926F927F928F929F92AF92BF92CF9204
:10546000DF92EF92FF920F931F93CF93DF9300D0C1
:1054700000D0CDB7DEB79E838D831C01220C331C78
:10548000220C331C91012F58354F5901F90110821C
:105490001182128213822DE73AE049E75AE065E76C
:1054A0007AE081E79AE00E94D469C101815F974F59
:1054B0000E941F1E2D813E812050384F3A83298340
:1054C000F901449091012057384F3C832B8320E011
:1054D00030E040EC5FE30E94DDD96B017C01552494
:1054E00047FC5094652C752CC301B2010E94AAD7C9
:1054F0009B01AC01C701B6010E94DDD9EB81FC81A3
:105500006083718382839383F101E05CFD4F60814E
:1055100071818281938160930E0270930F02809358
:1055200010029093110220E030E040E752E40E9424
:105530000FD724E6C22E2AE0D22E7B018C012CE963
:1055400037E048E957E064E977E080E997E00E94B6
:1055500052600E9436720E94996B8111B9C02D81F0
:105560003E812230310509F077C01092790A1092FD
:105570007A0A10927B0A10927C0A2DE73AE049E7FA
:105580005AE065E77AE081E79AE00E94D4698BE00F
:1055900098E00E941F1E6B017C01F7FAF094F7F867
:1055A000F094C301B2010E94AAD79B01AC01C701CC
:1055B000B6010E94DDD920E030E040E251E40E94D3
:1055C000DDD9609398077093990780939A07909319
:1055D0009B0720E030E040E752E460910E027091BA
:1055E0000F0280911002909111020E940FD704E6E1
:1055F000C02E0AE0D02E7B018C012CE937E048E96F
:1056000057E064E977E080E997E00E9452600E94E9
:105610003672E5E4F8E08491882341F09091C0006F
:1056200095FFFCCF8093C6003196F5CFEBEEF3E00B
:105630008491882341F09091C00095FFFCCF809326
:10564000C6003196F5CF8091C00085FFFCCF8AE07F
:105650008093C60085E022C0E5E4F8E084918823C9
:1056600041F09091C00095FFFCCF8093C600319629
:10567000F5CFE4EBF3E08491882341F09091C000F2
:1056800095FFFCCF8093C6003196F5CF8091C00086
:1056900085FFFCCF8AE08093C60087E026960FB690
:1056A000F894DEBF0FBECDBFDF91CF911F910F9158
:1056B000FF90EF90DF90CF90BF90AF909F908F9032
:1056C0007F906F905F904F903F902F900C94E129C6
:1056D000F50110821182128213822DE73AE049E728
:1056E0005AE065E77AE081E79AE00E94D469C10157
:1056F0008D5F974F0E941F1E4B015C016B017C0167
:10570000F7FAF094F7F8F094C301B2010E94AAD717
:105710009B01AC01C701B6010E94DDD9EB81FC8180
:10572000608371838283938320E030E040E752E41A
:1057300060910E0270910F028091100290911102FF
:105740000E940FD714E6C12E1AE0D12E7B018C01E6
:105750002CE937E048E957E064E977E080E997E031
:105760000E9452600E9436722D813E8121303105A7
:1057700029F02230310521F0232B49F580B127C0D3
:10578000079925C0E5E4F8E08491882341F09091E1
:10579000C00095FFFCCF8093C6003196F5CFECE7B3
:1057A000F3E08491882341F09091C00095FFFCCFF5
:1057B0008093C6003196F5CF8091C00085FFFCCF65
:1057C0008AE08093C60086E00E94E12967C0E981F3
:1057D000FA81549091012057384F3901A501940165
:1057E000C501B4010E942FD66B017C01652D77277E
:1057F00067FD7095872F972F0E94AAD79B01AC0158
:10580000C701B6010E94DDD9F301608371838283F1
:105810009383F101E05CFD4F20E030E040E450E490
:1058200060817181828193810E940FD760930E0203
:1058300070930F02809310029093110220E030E0E9
:1058400040E752E40E940FD7B4E6CB2EBAE0DB2E3D
:105850007B018C012CE937E048E957E064E977E007
:1058600080E997E00E9452600E9436728D819E818D
:105870000E94251EF101EF58F54F80819181A28190
:10588000B381F30180839183A283B38310920E02CC
:1058900010920F02109210021092110226960FB66B
:1058A000F894DEBF0FBECDBFDF91CF911F910F9156
:1058B000FF90EF90DF90CF90BF90AF909F908F9030
:1058C0007F906F905F904F903F902F900C94A66BBD
:1058D000CF92DF92EF92FF920F931F930E94861A4E
:1058E00000915304109154042091550430915604B2
:1058F000C0905704D0905804E0905904F0905A0496
:105900006C197D098E099F090617170728073907A3
:1059100030F4012B022B032B11F00E94B42980914B
:105920000A0290910B02A0910C02B0910D02892BFA
:105930008A2B8B2BF9F00E94861A00915704109144
:1059400058042091590430915A04601B710B820B4A
:10595000930B00910A0210910B0220910C023091DE
:105960000D02061717072807390720F480911B0F2F
:1059700080911A0F069B03C08AE00E94E1291F91C3
:105980000F91FF90EF90DF90CF900C94FB5F81E040
:1059900090914904911101C080E0089580914904DB
:1059A0000895CF93DF93EC018091640A80934A04B9
:1059B00084E50E944421811102C080E065C00E94FC
:1059C00030210E947CD760934A046623B1F3EFE351
:1059D000F8E08491882341F09091C00095FFFCCFBE
:1059E0008093C6003196F5CFC936D10599F034F4CD
:1059F000C836D105C9F5EDEFF2E015C0CD36D105B9
:105A000031F0CA3DD10581F5E8EBF2E02AC0EFECB8
:105A1000F2E01DC0E6EEF2E010C09091C00095FFEC
:105A2000FCCF8093C60081918111F7CF1DC090916A
:105A3000C00095FFFCCF8093C60081918111F7CF04
:105A400013C09091C00095FFFCCF8093C600819158
:105A50008111F7CF09C09091C00095FFFCCF8093D2
:105A6000C60081918111F7CF40E050E060914A0477
:105A700084E89CE00E94DA478091C00085FFFCCF5B
:105A80008AE08093C60081E0DF91CF9108952F9244
:105A90003F924F925F926F927F928F929F92AF92BE
:105AA000BF92CF92DF92EF92FF920F931F93CF930B
:105AB000DF93CDB7DEB7E3970FB6F894DEBF0FBE26
:105AC000CDBF1092A00787E40E944421882309F4E7
:105AD00044C50E9430210E9477D76A30710509F4CD
:105AE00090C084F46230710581F124F477FF23C003
:105AF0000C9486436330710581F164307105C1F106
