:100000000C94220F0C94DC110C940D120C943E12E3
:100010000C946F120C94A0120C94D1120C94021335
:100020000C9433130C94530F0C94530F0C94530FE4
:100030000C94530F0C9480840C94530F0C94530F16
:100040000C94530F0C94015C0C94530F0C94530FAD
:100050000C94530F0C94530F0C94AD6D0C94550FDE
:100060000C94530F0C9458370C94530F0C94530F5B
:100070000C94530F0C94530F0C94530F0C94530F78
:100080000C94530F0C94530F0C94530F0C94530F68
:100090000C94530F0C94530F0C94530F0C94530F58
:1000A0000C94530F0C94530F0C94530F0C94530F48
:1000B0000C94530F0C94530F0C94530F0C94530F38
:1000C0000C94530F0C94530F0C94530F0C94530F28
:1000D0000C94530F0C94530F0C94530F0C94530F18
:1000E0000C94530F87108C1091109B101411A510B5
:1000F000AD10B510BF10C910D310E210EC101411E0
:10010000F61000110A113211351128112C116C1141
:1001100039113D11431147114B115111551159110D
:100120006C115F1163116711072007201220122044
:1001300012201D201D201D203220282028202820AC
:10014000F66D056E216E306E4A6E596E736E776E67
:100150007F6E084AD73B3BCE016E84BCBFFDC12FEA
:100160003D6C74319ABD56833DDA3D00C77F11BEA8
:10017000D9E4BB4C3E916BAAAABE000000803F05AB
:10018000A84CCDB2D44EB93836A9020C50B99186DC
:1001900088083CA6AAAA2ABE000000803F000009E9
:1001A0000A02080B0C0D0706030401000000000002
:1001C00000000000000000000011100F00000000FF
:1001E00000000001021020200808102040102040CC
:1001F00080020102010804020101020408102040EB
:100200008080402010080402018004020180402008
:100210001008040201080402010102040810204031
:100220008001020408102040800505050507050827
:10023000080808020202020A0A0808040404040169
:10024000010101010101010303030303030303048B
:100250000707070C0C0C0C0C0C0C0C02020202061B
:10026000060606060606060B0B0B0B0B0B0B0B000C
:10027000002200250028002B002E0031003400024F
:10028000010000050108010B0100002100240027E6
:10029000002A002D00300033000101000004010796
:1002A000010A0153544F505045442E2000507269AA
:1002B0006E7465722073746F707065642064756508
:1002C00020746F206572726F72732E2046697820D9
:1002D000746865206572726F7220616E6420757338
:1002E00065204D39393920746F20726573746172DD
:1002F000742E202854656D70657261747572652066
:1003000069732072657365742E2053657420697457
:100310002061667465722072657374617274696EAF
:100320006729004B494C4C45442E20005072696EA1
:100330007465722068616C7465642E206B696C6CE6
:1003400028292063616C6C656421006F6B00526525
:1003500073656E643A20002200556E6B6E6F776E87
:1003600020636F6D6D616E643A2022004368616E98
:1003700067652066696C616D656E74005A204F6612
:1003800066736574203A20007A5F6D61783A2000C8
:100390007A5F6D696E3A20005A204F666673657405
:1003A000005A204F6666736574206F6B007A5F6D2C
:1003B00061783A20007A5F6D696E3A2000795F6D4E
:1003C00061783A2000795F6D696E3A2000785F6D40
:1003D00061783A2000785F6D696E3A2000205A3AC1
:1003E0000020593A0020436F756E7420583A20005F
:1003F00020453A00205A3A0020593A00583A00461F
:1004000049524D574152455F4E414D453A4D6172FB
:100410006C696E2056313B20537072696E74657240
:100420002F6772626C206D617368757020666F72E1
:100430002067656E36204649524D574152455F55FB
:10044000524C3A687474703A2F2F6669726D7761F6
:1004500072652E756C74696D616B65722E636F6D5C
:100460002050524F544F434F4C5F56455253494FC3
:100470004E3A312E30204D414348494E455F545944
:1004800050453A556C74696D616B657220455854DE
:1004900052554445525F434F554E543A31205555BD
:1004A00049443A30303030303030302D3030303018
:1004B0002D303030302D303030302D303030303045
:1004C000303030303030300A00556C74696D616BFB
:1004D0006572204F66662E0042656420646F6E650B
:1004E0002E0020423A0020453A00543A004265640A
:1004F0002048656174696E672E0048656174696E95
:100500006720646F6E652E0020573A0020453A0040
:10051000543A0048656174696E672E2E2E002042A1
:10052000403A0020403A00202F003A00205400209A
:100530002F0020423A00202F006F6B20543A0025F4
:1005400069206D696E2C2025692073656300456EF6
:10055000642066696C65206C697374004265676924
:100560006E2066696C65206C697374004E6F206D37
:100570006F76652E00526573756D696E67207072B7
:10058000696E74005761697420666F7220757365B7
:10059000722E2E2E00536C6565702E2E2E0025694E
:1005A00020686F757273202569206D696E7574659A
:1005B0007300446F6E65207072696E74696E672097
:1005C00066696C650053544F505045442E200050CE
:1005D00072696E7465722073746F707065642064E4
:1005E000756520746F206572726F72732E20466974
:1005F0007820746865206572726F7220616E642065
:10060000757365204D39393920746F2072657374A4
:100610006172742E202854656D70657261747572F4
:10062000652069732072657365742E20536574208C
:100630006974206166746572207265737461727486
:10064000696E6729006F6B004E6F204C696E6520E4
:100650004E756D62657220776974682063686563A2
:100660006B73756D2C204C617374204C696E653A08
:1006700020004E6F20436865636B73756D2077694A
:100680007468206C696E65206E756D6265722C20D1
:100690004C617374204C696E653A20006368656331
:1006A0006B73756D206D69736D617463682C204C7C
:1006B000617374204C696E653A20004C696E652048
:1006C0004E756D626572206973206E6F74204C6187
:1006D0007374204C696E65204E756D6265722B31A6
:1006E0002C204C617374204C696E653A20004D31AA
:1006F000313000446F6E6520736176696E672066E5
:10070000696C652E006F6B004D3239002020506CF3
:10071000616E6E6572427566666572427974657364
:100720003A20002046726565204D656D6F72793AFA
:100730002000466562203139203230313500436F68
:100740006D70696C65643A200028446176696420A4
:10075000427261616D2900207C20417574686F725E
:100760003A20004665622031392032303135203060
:10077000393A35393A303100204C61737420557064
:1007800064617465643A2000312E302E30004D6172
:10079000726C696E0020536F6674776172652052C7
:1007A0006573657400205761746368646F672052D5
:1007B00065736574002042726F776E206F757420C8
:1007C0005265736574002045787465726E616C20A3
:1007D000526573657400506F77657255700073745D
:1007E000617274002200656E717565696E67202202
:1007F000002200656E717565696E67202200FFFF3B
:10080000FF0000A0400000A0400000004000005297
:10081000430000524300005243000000000000006B
:10082000000000000000005243000052430000524C
:100830004300000000000000000000000065636845
:100840006F3A004572726F723A007C3C3E5E2B3DFF
:100850003F2F5B5D3B2C2A225C0020746F6F206C65
:100860006F6E6720657874727573696F6E20707231
:100870006576656E7465640020636F6C64206578CE
:1008800074727573696F6E2070726576656E7465CB
:1008900064006563686F3A00656E6473746F7073AB
:1008A000206869743A205A00205A3A00656E6473D1
:1008B000746F7073206869743A20590020593A00A7
:1008C000656E6473746F7073206869743A205800A1
:1008D00020583A00656E6473746F70732068697491
:1008E0003A200024F4D43050C38E20C2A240178294
:1008F0008B7011127A910D816CD90AA861E108C739
:10090000586607615143061E4B5D05C145A7041A91
:10091000411104093D9803713931034036DB02650A
:10092000339102D4305402802E1D02632CEE0175E7
:100930002AC501B028A001102781018F2564012B51
:10094000244B01E0223401AC211F018D200D0180D8
:100950001FFC00841EED00971DDF00B81CD200E6CE
:100960001BC600201BBC00641AB200B219A8000A02
:1009700019A0006A189900D117910040178B00B593
:1009800016840031167E00B31579003A157300C73E
:10099000146F0058146A00EE136600881363002574
:1009A000135E00C7125B006C12570015125400C191
:1009B00011510070114F0021114B00D61049008DCC
:1009C0001047004610440002104200C00F40008053
:1009D0000F3E00420F3C00060F3B00CB0E38009349
:1009E0000E37005C0E3500270E3400F30D3200C1C7
:1009F0000D3100900D3000600D2E00320D2D0005E0
:100A00000D2C00D90C2B00AE0C2900850C29005CA4
:100A10000C2700350C27000E0C2600E80B2400C420
:100A20000B2400A00B23007D0B23005A0B2100395F
:100A30000B2100180B2000F80A1F00D90A1E00BB6A
:100A40000A1E009D0A1D00800A1D00630A1C004743
:100A50000A1B002C0A1B00110A1A00F7091A00DDF4
:100A6000091900C4091900AB091900920917007B84
:100A7000091800630917004C0916003609160020F2
:100A80000916000A091500F5081500E0081400CC45
:100A9000081400B8081400A4081400900813007D7E
:100AA0000812006B081300580812004608120034A0
:100AB000081100230811001208110001081100F0AC
:100AC000071000E0071000D0071000C0071000B0AA
:100AD000070F00A107100091070E0083070F007495
:100AE000070F0065070E0057070E0049070E003B71
:100AF000070D002E070E0020070D0013070D00063E
:100B0000070D00F9060C00ED060D00E0060C00D400
:100B1000060C00C8060C00BC060C00B0060C00A4B5
:100B2000060B0099060C008D060B0082060B007761
:100B3000060B006C060B0061060A0057060B004C02
:100B4000060A0042060A0038060A002E060A002499
:100B5000060A001A060A001006090007060A00FD28
:100B6000050900F4050900EB050900E2050900D9B3
:100B7000050900D0050900C7050900BE050900B533
:100B8000050800AD050800A50509009C05080094AE
:100B90000508008C050800840508007C0508007421
:100BA0000508006C050700650508005D050700568F
:100BB0000508004E050700470507004005080038F6
:100BC000050700310507002A050700230507001C5B
:100BD000050600160507000F0507000805060002B8
:100BE000050700FB040600F5040700EE040600E814
:100BF000040600E2040700DB040600D5040600CF6B
:100C0000040600C9040600C3040600BD040600B7BC
:100C1000040600B1040500AC040600A6040600A00A
:100C20000405009B04060095040500900406008A54
:100C300004050085040500800406007A040500759B
:100C4000040500700405006B0405006604050061DE
:100C50000405005C04050057040500520405004D1E
:100C600004050048040500430405003E0404003A5E
:100C700004050035040500300404002C0405002799
:100C8000040400230405001E0404001A04040016D2
:100C9000040500110404000D040400090405000407
:100CA00004040000040400FC030400F8030400F43E
:100CB000030400F0030400EC030400E8030400E470
:100CC000030400E0030400DC030400D8030400D4A0
:100CD000030400D0030400CC030400C8030300C5D0
:100CE00003030024F404D9201BC40C5C0E9804C434
:100CF000095F0265077101F405F900FB04B30048C0
:100D0000048700C10369005803550003034500BE72
:100D1000023A008402310053022A0029022500040D
:100D2000022000E4011C00C8011900AF011700985F
:100D300001140084011300710110006101100051C1
:100D4000010E0043010D0036010B002B010B0020AA
:100D5000010B00150109000C01090003010800FB4B
:100D6000000800F3000800EB000700E4000600DEC6
:100D7000000600D8000600D2000600CC000500C71F
:100D8000000500C2000500BD000400B9000400B564
:100D9000000400B1000400AD000400A9000400A597
:100DA000000300A20003009F0004009B00030098C2
:100DB0000003009500020093000300900003008DE3
:100DC0000002008B000300880002008600020084FD
:100DD000000300810002007F0002007D0002007B12
:100DE0000002007900020077000100760002007422
:100DF00000020072000100710002006F0002006D2D
:100E00000001006C0002006A000100690002006736
:100E1000000100660001006500010064000200623C
:100E200000010061000100600001005F0002005D40
:100E30000001005C0001005B0001005A0001005944
:100E40000001005800010057000100560001005544
:100E50000001005400010053000000530001005243
:100E600000010051000100500001004F0001004E40
:100E70000000004E0001004D0001004C0001004B3D
:100E80000000004B0001004A000100490001004839
:100E90000000004800010047000100460000004635
:100EA000000100450000004500010044000100432E
:100EB0000000004300010042000000420001004128
:100EC00000000041000100400001003F0000003F21
:100ED0000001003E0000003E0001003D0000003D1A
:100EE0000001003C0000003C0000003C0001003B11
:100EF0000000003B0001003A0000003A0001003908
:100F000000000039000100380000003800000038FF
:100F100000010037000000370001003600000036F5
:100F200000000036000100350000003500000035EB
:100F300000010034000000340000003400010033E0
:100F400000000033000000330001003200000032D6
:100F500000000032000100310000003100000031CB
:100F60000001003000000030000000300001002FC0
:100F70000000002F0000002F0000002F0001002EB5
:100F80000000002E0000002E0001002D0000002DAA
:100F90000000002D0000002D0001002C0000002C9E
:100FA0000000002C0000002C0001002B0000002B92
:100FB0000000002B0000002B0001002A0000002A86
:100FC0000000002A0000002A00010029000000297A
:100FD000000000290000002900000029000100286D
:100FE0000000002800000028000000280000002861
:100FF0000001002700000027000000270000002754
:101000000000002700010026000000260000002646
:101010000000002600000026000100250000002539
:10102000000000250000002500000025000000252C
:10103000000100240000002400000024000000241F
:101040000000002400010023000000230000002312
:101050000000002300000023000000230000002304
:1010600000010022000000220000002200000022F7
:1010700000000022000000220001002100000021E9
:1010800000000021000000210000002100000021DC
:1010900000000021000100200000002000000020CE
:1010A00000000020000000200000002000000020C0
:1010B000000000200001001F0000001F0000001FB2
:1010C0000000001F0000001F0000001F0000001FA4
:1010D0000001001E0000001E0000001E0000001E97
:1010E0000000006563686F3A004572723A204D4116
:1010F0005854454D50204245440054656D7065720A
:1011000061747572652068656174656420626564E8
:10111000207377697463686564206F66662E204D5E
:10112000415854454D502074726967676572656413
:10113000202121004572723A204D494E54454D50B0
:10114000003A20457874727564657220737769740B
:1011500063686564206F66662E204D494E54454D88
:10116000502074726967676572656420210045725A
:10117000723A204D415854454D50003A20457874FC
:101180007275646572207377697463686564206F33
:1011900066662E204D415854454D50207472696743
:1011A000676572656420210048656174696E672017
:1011B0006661696C656400202D20496E76616C69FA
:1011C00064206578747275646572206E756D6265F1
:1011D00072202100504944204175746F74756E650A
:1011E0002066696E69736865642120507574207487
:1011F0006865206C617374204B702C204B692061F2
:101200006E64204B6420636F6E7374616E74732020
:1012100066726F6D2061626F766520696E746F20F3
:10122000436F6E66696775726174696F6E2E6800D0
:10123000504944204175746F74756E65206661690C
:101240006C6564212074696D656F75740020403A87
:10125000006F6B20543A006F6B20423A00504944B3
:10126000204175746F74756E65206661696C656484
:10127000212054656D706572617475726520746F9C
:101280006F206869676800204B643A2000204B6932
:101290003A2000204B703A200020436C6173736940
:1012A000632050494420002054753A2000204B759B
:1012B0003A2000206D61783A2000206D696E3A2056
:1012C0000020643A200020626961733A200065635F
:1012D000686F3A004572726F723A00000000003089
:1012E0000E0100C00E0A00500F1400D00F1E006047
:1012F000102800E010320070113C00F01146007020
:1013000012500000135A008013640000146E009005
:101310001478001015820090158C0010169600901D
:1013200016A0001017AA009017B4001018BE009065
:1013300018C8001019D2009019DC00101AE60080BD
:101340001AF000001BFA00801B0401F01B0E017054
:101350001C1801F01C2201601D2C01E01D360150FB
:101360001E4001D01E4A01401F5401B01F5E0130D3
:10137000206801A020720110217C019021860100CB
:101380002290016026F401902A5802802EBC02505F
:10139000322003E03584035039E803803C4C044D8F
:1013A000383420582059205A20450043616E6E6F12
:1013B0007420656E746572207375626469723A2078
:1013C000004D3234004D3233202573006175746F47
:1013D00025692E67006572726F7220777269746971
:1013E0006E6720746F2066696C65004E6F742053C1
:1013F00044207072696E74696E67002F0053442038
:101400007072696E74696E67206279746520002E4F
:101410000044656C6574696F6E206661696C656413
:101420002C2046696C653A200046696C652064652D
:101430006C657465643A002E006F70656E2066619D
:10144000696C65642C2046696C653A2000577269A6
:1014500074696E6720746F2066696C653A20002E8F
:10146000006F70656E206661696C65642C2046694A
:101470006C653A20002E006F70656E206661696CA5
:1014800065642C2046696C653A200046696C6520CD
:1014900073656C6563746564002053697A653A20EE
:1014A0000046696C65206F70656E65643A20002E99
:1014B000006F70656E206661696C65642C204669FA
:1014C0006C653A20004E6F772066726573682066FF
:1014D000696C653A20004E6F7720646F696E6720F3
:1014E00066696C653A20002220706F7300222070BC
:1014F0006172656E743A2200535542524F555449F9
:101500004E452043414C4C207461726765743A2209
:1015100000747279696E6720746F2063616C6C204F
:101520007375622D67636F64652066696C657320EF
:101530007769746820746F6F206D616E79206C65B7
:1015400076656C732E204D4158206C6576656C2055
:1015500069733A0053442063617264206F6B006FBB
:1015600070656E526F6F74206661696C6564007699
:101570006F6C756D652E696E6974206661696C6546
:101580006400534420696E6974206661696C00656B
:1015900063686F3A004572726F723A004861726414
:1015A000636F6465642044656661756C742053657F
:1015B0007474696E6773204C6F6164656400537462
:1015C0006F7265642073657474696E6773207265E9
:1015D000747269657665640020440020490020200B
:1015E000204D3330312050005049442073657474CD
:1015F000696E67733A00205A0020590020204D324E
:101600003036205800486F6D65206F6666736574CC
:1016100020286D6D293A00204500205A00205800EE
:1016200020420020540020204D323035205300410C
:101630006476616E636564207661726961626C656F
:10164000733A20533D4D696E20666565647261741E
:101650006520286D6D2F73292C20543D4D696E2017
:1016600074726176656C206665656472617465206C
:10167000286D6D2F73292C20423D6D696E696D7543
:101680006D207365676D656E742074696D652028C3
:101690006D73292C20583D6D6178696D756D2058EA
:1016A00059206A65726B20286D6D2F73292C2020BC
:1016B0005A3D6D6178696D756D205A206A65726B4F
:1016C00020286D6D2F73292C2020453D6D61786990
:1016D0006D756D2045206A65726B20286D6D2F73C6
:1016E000290020540020204D323034205300416323
:1016F00063656C65726174696F6E3A20533D616316
:1017000063656C65726174696F6E2C20543D7265FF
:10171000747261637420616363656C65726174697E
:101720006F6E00204500205A0020590020204D32C5
:1017300030312058004D6178696D756D20416363CB
:10174000656C65726174696F6E20286D6D2F7332E0
:10175000293A00204500205A0020590020204D320F
:1017600030332058004D6178696D756D2066656570
:1017700064726174657320286D6D2F73293A00209F
:101780004500205A0020590020204D3932205800B1
:1017900053746570732070657220756E69743A00B9
:1017A00053657474696E67732053746F7265640057
:1017B0006563686F3A0002436172642072656D6F01
:1017C000766564004361726420696E736572746546
:1017D00064002D2D3A2D2D002D2D2D005344002079
:1017E00059000120000120004D363030004368616F
:1017F0006E67652066696C616D656E7400466C6F1E
:101800007700466C6F770046616E20737065656483
:101810000046616E20737065656400426564004235
:101820006564004E6F7A7A6C65004E6F7A7A6C65EB
:10183000005370656564005370656564004D6169AF
:101840006E004D383420583020593000473238006F
:101850005A005072656865617420504C41204265A1
:1018600064005072656865617420504C41203100FD
:1018700050726570617265005072656865617420B0
:10188000414253204265640050726568656174206E
:1018900041425320310050726570617265005800FA
:1018A00059005A0045787472756465720045787401
:1018B0007275646572004D6F7665205A004D6F76C3
:1018C000652059004D6F76652058004D6F76652074
:1018D00061786973004D6F766520302E316D6D0033
:1018E0004D6F766520316D6D004D6F76652031301E
:1018F0006D6D0050726570617265004D6F76652088
:101900006178697300436F6F6C646F776E0050721B
:101910006568656174204142530050726568656175
:101920007420504C41004D6F7665205A004175740B
:101930006F20686F6D65004D3834004469736162D3
:101940006C65207374657070657273004D61696EAB
:101950000053746F7265206D656D6F72790042651A
:101960006400426564004E6F7A7A6C65004E6F7A4F
:101970007A6C650046616E2073706565640046612F
:101980006E2073706565640054656D706572617476
:101990007572650053746F7265206D656D6F727935
:1019A0000042656400426564004E6F7A7A6C65009F
:1019B0004E6F7A7A6C650046616E2073706565645F
:1019C0000046616E2073706565640054656D7065D6
:1019D000726174757265005072656865617420414A
:1019E000425320636F6E66005072656865617420B3
:1019F000504C4120636F6E66005049442D430050A7
:101A000049442D43005049442D44005049442D443D
:101A1000005049442D49005049442D490050494443
:101A20002D50005049442D500046616E2073706562
:101A300065640046616E207370656564004265648C
:101A400000426564004E6F7A7A6C65004E6F7A7A58
:101A50006C6500436F6E74726F6C004573746570D3
:101A6000732F6D6D004573746570732F6D6D005A23
:101A700073746570732F6D6D005A73746570732F76
:101A80006D6D005973746570732F6D6D00597374AB
:101A90006570732F6D6D005873746570732F6D6D65
:101AA000005873746570732F6D6D00412D726574ED
:101AB0007261637400412D726574726163740041D8
:101AC0006D6178206500416D6178206500416D6130
:101AD00078207A00416D6178207A00416D6178202C
:101AE0007900416D6178207900416D61782078003E
:101AF000416D61782078005654726176206D696E70
:101B0000005654726176206D696E00566D696E00E4
:101B1000566D696E00566D6178206500566D61786E
:101B2000206500566D6178207A00566D6178207AC4
:101B300000566D6178207900566D617820790056E5
:101B40006D6178207800566D617820780056652D9B
:101B50006A65726B0056652D6A65726B00567A2D48
:101B60006A65726B00567A2D6A65726B00567879D9
:101B70002D6A65726B005678792D6A65726B00412B
:101B80006363656C00416363656C00436F6E7472E0
:101B90006F6C00466562203139203230313520309B
:101BA000393A35393A3034003131353230305F73BB
:101BB000696E676C655F484200556C74696D616B56
:101BC00065723A5F31352E30322E31004669726DC2
:101BD000776172652076657273696F6E004669720F
:101BE0006D776172652076657273696F6E005265FC
:101BF00073746F7265206661696C73616665004C11
:101C00006F6164206D656D6F72790053746F7265DA
:101C1000206D656D6F7279004D6F74696F6E005441
:101C2000656D7065726174757265004D61696E00F5
:101C30004D383420582059205A2045004D32340068
:101C40004D323320257300052E2E004D61696E0044
:101C50004E6F2053442063617264005072696E7449
:101C60002066726F6D2053440053746F7020707241
:101C7000696E7400526573756D65207072696E745B
:101C8000005061757365207072696E7400436F6EE9
:101C900074726F6C00507265706172650054756E7D
:101CA0006500496E666F2073637265656E004E4114
:101CB0004E494E495459494E46CDCCCC3D0AD723C6
:101CC0003C17B7D13877CC2B329595E6241FB14F0E
:101CD0000A000020410000C84200401C4620BCBE53
:101CE0004CCA1B0E5AAEC59D74000C9442880C94CD
:101CF00032200C94596E0C94D3100C940E5B0C94FF
:101D00009B100C9400110C94418B0C941EB20C94FB
:101D1000D1440C94B5100C9407B40C94BF100C94DF
:101D200012900C94A5100C940A110C9464130C944A
:101D30006C110C94178A0C9414110C9443110C948C
:101D400021970C941D200C94306E0C94E3B90C94E4
:101D500087100C94216E0C9459110C9464B30C945C
:101D6000D29C0C94C98E0C9455110C94FB890C9444
:101D70004A6E0C9439110C942D8B0C9412200C94F7
:101D800007200C94DBAF0C945F110C94CC940C9452
:101D9000AC920C94E3A90C9432110C9419A30C94FA
:101DA00028110C9451110C9467B50C9489B00C94C3
:101DB000C9100C947FAE0C94098A0C94FB8B0C9484
:101DC00067110C9450370C94F66D0C94A89E0C94EB
:101DD000776E0C94B5AD0C94736E0C94DC860C94F9
:101DE0003D110C9487B10C942C110C94AFB40C944D
:101DF00007B10C948C100C9454370C9435110C943E
:101E0000056E0C94AD100C9494B50C9447110C9481
:101E100028200C944B110C9463110C9402AE0C947A
:101E2000FC9A0C94EC100C942DAF0C9491100C9423
:101E3000C1B20C94F6100C94E2100C947F6E5037E3
:101E4000B5AD543711241FBECFEFD1E2DEBFCDBFF9
:101E500000E00CBF14E0A0E0B2E0E8ECFAE801E03A
:101E60000BBF02C007900D92AA39B107D9F712E152
:101E7000AAE9B4E001C01D92A336B107E1F71EE163
:101E8000C2E4DEE100E006C022970109FE010BBFBB
:101E90000E940CBFCE33D10780E00807A9F70E944B
:101EA000E9B90C9452C50C9400001F920F920FB622
:101EB0000F9211242F933F938F939F93AF93BF93D0
:101EC00080919B0490919C04A0919D04B0919E04EC
:101ED00030919A0423E0230F2D3720F40196A11DA1
:101EE000B11D05C026E8230F0296A11DB11D209348
:101EF0009A0480939B0490939C04A0939D04B093B8
:101F00009E0480919F049091A004A091A104B0919F
:101F1000A2040196A11DB11D80939F049093A0047B
:101F2000A093A104B093A204BF91AF919F918F9110
:101F30003F912F910F900FBE0F901F9018952FB7C4
:101F4000F89460919B0470919C0480919D04909101
:101F50009E042FBF08953FB7F89480919F049091FD
:101F6000A004A091A104B091A20426B5A89B05C02D
:101F70002F3F19F00196A11DB11D3FBF6627782F95
:101F8000892F9A2F620F711D811D911D42E0660FEE
:101F9000771F881F991F4A95D1F70895CF92DF9236
:101FA000EF92FF92CF93DF936B017C010E94AB0F06
:101FB000EB01C114D104E104F10479F00E94AB0FEC
:101FC0006C1B7D0B683E7340A0F381E0C81AD108FA
:101FD000E108F108C851DC4FECCFDF91CF91FF90C1
:101FE000EF90DF90CF9008950197009739F0880F18
:101FF000991F880F991F02970197F1F70895789418
:1020000084B5826084BD84B5816084BD85B58260FD
:1020100085BD85B5816085BDEEE6F0E0808181609B
:102020008083E1E8F0E0108280818260808380819B
:1020300081608083E0E8F0E0808181608083E1EB73
:10204000F0E0808184608083E0EBF0E0808181605B
:102050008083E1E9F0E0808182608083808181601B
:102060008083E0E9F0E0808181608083E1EAF0E054
:10207000808182608083808181608083E0EAF0E0FB
:10208000808181608083E1E2F1E0808182608083F1
:10209000808181608083E0E2F1E0808181608083E3
:1020A000EAE7F0E0808184608083808182608083C1
:1020B0008081816080838081806880831092C100EC
:1020C00008951F93CF93DF93182FEB0161E00E94D7
:1020D0006D11209711F460E004C0CF3FD10539F4B1
:1020E00061E0812FDF91CF911F910C94A611E12F18
:1020F000F0E0E356FE4F449150E0FA013197E131B0
:10210000F10508F091C0EE58FF4F0C94F7BE84B56E
:10211000806884BDC7BD8DC084B5806284BDC8BDE4
:1021200088C080918000806880938000D09389006F
:10213000C09388007EC08091800080628093800080
:10214000D0938B00C0938A0074C08091B0008068E7
:102150008093B000C093B3006CC08091B0008062E7
:102160008093B000C093B40064C0809190008068F8
:1021700080939000D0939900C09398005AC08091AA
:102180009000806280939000D0939B00C0939A004F
:1021900050C080919000886080939000D0939D0003
:1021A000C0939C0046C08091A00080688093A000EE
:1021B0008091A0008F7B8093A000D093A900C09352
:1021C000A80037C08091A00080628093A000D093C7
:1021D000AB00C093AA002DC08091A00088608093BE
:1021E000A000D093AD00C093AC0023C0809120012B
:1021F000806880932001D0932901C093280119C0E1
:1022000080912001806280932001D0932B01C093A4
:102210002A010FC080912001886080932001D09313
:102220002D01C0932C0105C0C038D1050CF058CF4A
:1022300052CFDF91CF911F91089590E0FC0131972B
:10224000E131F10508F048C0ED57FF4F0C94F7BE9F
:10225000809180008F7703C0809180008F7D809374
:102260008000089584B58F7702C084B58F7D84BDCA
:1022700008958091B0008F7703C08091B0008F7D6A
:102280008093B0000895809190008F7707C080916F
:1022900090008F7D03C080919000877F8093900095
:1022A00008958091A0008F7707C08091A0008F7D56
:1022B00003C08091A000877F8093A0000895809143
:1022C00020018F7707C0809120018F7D03C080910E
:1022D0002001877F809320010895CF93DF9390E0C2
:1022E000FC01ED51FE4F2491FC01E75DFD4F84910F
:1022F000882349F190E0880F991FFC01E757FD4FB3
:10230000A591B49181599D4FFC01C591D4919FB77E
:10231000611108C0F8948C91209582238C93888158
:1023200082230AC0623051F4F8948C91322F309598
:1023300083238C938881822B888304C0F8948C91AA
:10234000822B8C939FBFDF91CF9108950F931F93A2
:10235000CF93DF931F92CDB7DEB7282F30E0F9017E
:10236000E356FE4F8491F901ED51FE4F1491F901AE
:10237000E75DFD4F04910023C9F0882321F06983B4
:102380000E941D116981E02FF0E0EE0FFF1FE1595F
:10239000FD4FA591B4919FB7F8948C91611103C042
:1023A0001095812301C0812B8C939FBF0F90DF91EB
:1023B000CF911F910F9108951F920F920FB60F9218
:1023C00011240BB60F922F933F934F935F936F930C
:1023D0007F938F939F93AF93BF93EF93FF938091DE
:1023E000A7049091A804892B29F0E091A704F0910B
:1023F000A8041995FF91EF91BF91AF919F918F9193
:102400007F916F915F914F913F912F910F900BBEF4
:102410000F900FBE0F901F9018951F920F920FB63E
:102420000F9211240BB60F922F933F934F935F930C
:102430006F937F938F939F93AF93BF93EF93FF938C
:102440008091A9049091AA04892B29F0E091A90414
:10245000F091AA041995FF91EF91BF91AF919F91CF
:102460008F917F916F915F914F913F912F910F903D
:102470000BBE0F900FBE0F901F9018951F920F92DA
:102480000FB60F9211240BB60F922F933F934F93D9
:102490005F936F937F938F939F93AF93BF93EF93CC
:1024A000FF938091AB049091AC04892B29F0E091CB
:1024B000AB04F091AC041995FF91EF91BF91AF91EE
:1024C0009F918F917F916F915F914F913F912F914C
:1024D0000F900BBE0F900FBE0F901F9018951F927C
:1024E0000F920FB60F9211240BB60F922F933F93BA
:1024F0004F935F936F937F938F939F93AF93BF930C
:10250000EF93FF938091AD049091AE04892B29F055
:10251000E091AD04F091AE041995FF91EF91BF9158
:10252000AF919F918F917F916F915F914F913F916B
:102530002F910F900BBE0F900FBE0F901F9018950C
:102540001F920F920FB60F9211240BB60F922F937A
:102550003F934F935F936F937F938F939F93AF932B
:10256000BF93EF93FF938091A3049091A404892BD0
:1025700029F0E091A304F091A4041995FF91EF9143
:10258000BF91AF919F918F917F916F915F914F918B
:102590003F912F910F900BBE0F900FBE0F901F9089
:1025A00018951F920F920FB60F9211240BB60F922F
:1025B0002F933F934F935F936F937F938F939F934B
:1025C000AF93BF93EF93FF938091A5049091A604DE
:1025D000892B29F0E091A504F091A6041995FF91AB
:1025E000EF91BF91AF919F918F917F916F915F918B
:1025F0004F913F912F910F900BBE0F900FBE0F90F8
:102600001F9018951F920F920FB60F9211240BB6C0
:102610000F922F933F934F935F936F937F938F937B
:102620009F93AF93BF93EF93FF938091AF049091EB
:10263000B004892B29F0E091AF04F091B004199512
:10264000FF91EF91BF91AF919F918F917F916F918A
:102650005F914F913F912F910F900BBE0F900FBE46
:102660000F901F9018951F920F920FB60F92112482
:102670000BB60F922F933F934F935F936F937F937C
:102680008F939F93AF93BF93EF93FF938091B10488
:102690009091B204892B29F0E091B104F091B20439
:1026A0001995FF91EF91BF91AF919F918F917F917C
:1026B0006F915F914F913F912F910F900BBE0F90B3
:1026C0000FBE0F901F901895CF92DF92EF92FF925E
:1026D0000F931F93CF93DF936C017A01EB01E60E0A
:1026E000F71E00E010E0CE15DF0561F06991D6011C
:1026F000ED91FC910190F081E02DC6011995080F34
:10270000191FF1CFC801DF91CF911F910F91FF9059
:10271000EF90DF90CF9008956115710581F0DB0196
:102720000D900020E9F7AD0141505109461B570BB0
:10273000DC01ED91FC910280F381E02D199480E0A1
:1027400090E008950C948C13DC01ED91FC910190C4
:10275000F081E02D1994FC0165917591859194911A
:102760000895CF92DF92EF92FF920F931F93CF9332
:10277000DF93EC01CC0FDD1FCC0FDD1FCE01875E98
:10278000974F0E94AB13FE01E256F94FC080D180F3
:10279000E280F3808E010655194FA70196010E9431
:1027A000F7B9F8016083718382839383CE018F5CD4
:1027B000974F0E94AB138E010E56194FA701960139
:1027C0000E94F7B9F8016083718382839383CE01FD
:1027D0008B5D974F0E94AB13CB5EDD4FA701960137
:1027E0000E94F7B9688379838A839B83DF91CF91B5
:1027F0001F910F91FF90EF90DF90CF9008952F924F
:102800003F924F925F926F927F928F929F92AF9280
:10281000BF92CF92DF92EF92FF920F931F93CF93CD
:10282000DF9300D000D0CDB7DEB79A838983FC0157
:10283000E250F84F94905C01AA0CBB1CAA0CBB1C84
:10284000C5018655994F1C01DC011D921D921D92F8
:102850001C92139726EB36E042EB56E06EEA76E0E8
:102860008AEA96E00E943C5AC501835F974F0E9416
:10287000AB136B017C01692D772767FD7095872F5E
:10288000972F0E9472BB2B013C01F501E858F94FCC
:10289000FC83EB8320E030E040EC5FE3C701B6014E
:1028A0000E94A5BDA30192010E94A5BDAB81BC8180
:1028B0006D937D938D939C931397F501E55DFD4F8B
:1028C000FE83ED83608171818281938160930F0229
:1028D00070931002809311029093120220E030E076
:1028E00040E752E40E94D7BA2AE8C22E26E0D22E50
:1028F0007B018C0124E836E040E856E06CE776E0A6
:1029000088E796E00E94A2500E94B663D1011D9212
:102910001D921D921C92139726EB36E042EB56E077
:102920006EEA76E08AEA96E00E943C5AC5018F5F23
:10293000974F0E94AB134B015C019058A301920189
:102940000E94A5BDEB81FC816083718382839383A8
:1029500020E030E040E752E460910F0270911002F5
:1029600080911102909112020E94D7BA7B018C01D2
:1029700024E836E040E856E06CE776E088E796E049
:102980000E94A2500E94B663A5019401C501B40142
:102990000E94F7B9A30192010E94A5BDAB81BC8141
:1029A0006D937D938D939C93139720E030E040E0EE
:1029B0005FE3ED81FE8160817181828193810E945C
:1029C000A5BD60930F027093100280931102909343
:1029D000120220E030E040E752E40E94D7BA7B01C7
:1029E0008C0124E836E040E856E06CE776E088E7C2
:1029F00096E00E94A2500E94B66389819A810E944B
:102A0000B113F10180819181A281B381EB81FC81BD
:102A100080839183A283B38310920F0210921002DD
:102A200010921102109212020E94F15BE981FA8168
:102A3000E157F94F81E0808326960FB6F894DEBF08
:102A40000FBECDBFDF91CF911F910F91FF90EF90FF
:102A5000DF90CF90BF90AF909F908F907F906F90BE
:102A60005F904F903F902F900895FC012491222376
:102A700041F03091C00035FFFCCF2093C600019695
:102A8000F4CF22E030E08DE499E00C948939FC0128
:102A90002491222341F03091C00035FFFCCF2093D8
:102AA000C6000196F4CF2AE030E08DE499E00C9462
:102AB000D838CF93DF931F921F92CDB7DEB78091A6
:102AC0005D1290915E129E012F5F3F4F009719F4A7
:102AD0002356324102C0281B390B3A83298389814E
:102AE0009A810F900F90DF91CF9108952091CD049E
:102AF0003091CE04243031050CF06AC04091CF04EF
:102B00005091D00460E6649F9001659F300D1124C0
:102B1000BC01C90189529B4F0E9445C2EDE3F8E018
:102B20008491882341F09091C00095FFFCCF809361
:102B3000C6003196F5CFE3EFF7E08491882341F0AA
:102B40009091C00095FFFCCF8093C6003196F5CFE1
:102B50008091CF049091D00420E6289FF001299F16
:102B6000F00D1124E952FB4F8191882339F09091A7
:102B7000C00095FFFCCF8093C600F6CFE1EFF7E0F1
:102B80008491882341F09091C00095FFFCCF809301
:102B9000C6003196F5CF8091C00085FFFCCF8AE05A
:102BA0008093C6008091CF049091D004019664E098
:102BB00070E00E94A2BE9093D0048093CF048091D5
:102BC000CD049091CE0401969093CE048093CD04D1
:102BD00008952091CD043091CE04243031050CF0BD
:102BE0006AC04091CF045091D00460E6649F900188
:102BF000659F300D1124BC01C90189529B4F0E9471
:102C0000D1C1EDE3F8E08491882341F09091C000B8
:102C100095FFFCCF8093C6003196F5CFE6EEF7E046
:102C20008491882341F09091C00095FFFCCF809360
:102C3000C6003196F5CF8091CF049091D00420E664
:102C4000289FF001299FF00D1124E952FB4F81913B
:102C5000882339F09091C00095FFFCCF8093C60087
:102C6000F6CFE4EEF7E08491882341F09091C00024
:102C700095FFFCCF8093C6003196F5CF8091C000C0
:102C800085FFFCCF8AE08093C6008091CF049091AD
:102C9000D004019664E070E00E94A2BE9093D0043C
:102CA0008093CF048091CD049091CE0401969093AF
:102CB000CE048093CD040895809A889A0895809ACE
:102CC000889808950E945C1640E052EC61E070E044
:102CD0008DE499E00E949137EEEDF7E0849188232E
:102CE00041F09091C00095FFFCCF8093C6003196D3
:102CF000F5CF8091C00085FFFCCF8AE08093C600AD
:102D00008DE398E0FC012491222341F03091C00032
:102D100035FFFCCF2093C6003196F5CF24B720FFB6
:102D200014C0E6EDF7E03491332341F04091C00048
:102D300045FFFCCF3093C6003196F5CF3091C000EF
:102D400035FFFCCF3AE03093C60021FF14C0E6EC1B
:102D5000F7E03491332341F04091C00045FFFCCFB0
:102D60003093C6003196F5CF3091C00035FFFCCFCF
:102D70003AE03093C60022FF14C0E5EBF7E034914F
:102D8000332341F04091C00045FFFCCF3093C60093
:102D90003196F5CF3091C00035FFFCCF3AE030934B
:102DA000C60023FF14C0E5EAF7E03491332341F075
:102DB0004091C00045FFFCCF3093C6003196F5CF5F
:102DC0003091C00035FFFCCF3AE03093C60025FFBC
:102DD00014C0E5E9F7E02491222341F03091C000CE
:102DE00035FFFCCF2093C6003196F5CF2091C0006F
:102DF00025FFFCCF2AE02093C60014BEEEE8F7E0E2
:102E00002491222341F03091C00035FFFCCF209364
:102E1000C6003196F5CFE8E8F7E02491222341F08F
:102E20003091C00035FFFCCF2093C6003196F5CF1E
:102E30002091C00025FFFCCF2AE02093C600FC01B2
:102E40002491EDE3F8E0222349F03091C00035FFF2
:102E5000FCCF2093C60031962491F5CFE8E7F7E048
:102E60002491222341F03091C00035FFFCCF209304
:102E7000C6003196F5CFE3E6F7E02491222341F036
:102E80003091C00035FFFCCF2093C6003196F5CFBE
:102E9000E7E5F7E02491222341F03091C00035FFAF
:102EA000FCCF2093C6003196F5CFE9E4F7E02491FA
:102EB000222341F03091C00035FFFCCF2093C600A3
:102EC0003196F5CF2091C00025FFFCCF2AE020935A
:102ED000C600EEE3F7E02491222341F03091C000D8
:102EE00035FFFCCF2093C6003196F5CFE2E3F7E043
:102EF0002491222341F03091C00035FFFCCF209374
:102F0000C6003196F5CF2091C00025FFFCCF2AE006
:102F10002093C600FC018491EDE3F8E0882349F09A
:102F20009091C00095FFFCCF8093C60031968491AC
:102F3000F5CFE3E2F7E08491882341F09091C0005F
:102F400095FFFCCF8093C6003196F5CF0E945915AE
:102F50004AE050E0BC018DE499E00E94A938ECE021
:102F6000F7E08491882341F09091C00095FFFCCF59
:102F70008093C6003196F5CF4AE050E060ED74E0F2
:102F80008DE499E00E94A9388091C00085FFFCCFB4
:102F90008AE08093C6001092D3041092D404109259
:102FA000D5041092D6040E9442800E94B6670E9407
:102FB00052500E9441810E9434630E94EC98FFEFBE
:102FC00023ED80E3F15020408040E1F700C0000095
:102FD00008958091C7049091C80460E070E0019664
:102FE0000C9410BF8091C7049091C8044AE050E04F
:102FF00060E070E001960C948DC0682F70E0209125
:10300000D1043091D20440E6429FC001439F900D0D
:10301000112489529B4F0E943AC29093C804809316
:10302000C70421E0892B09F420E0822F08950E9433
:103030009F0F6093C3047093C4048093C50490935E
:10304000C60408950E949F0F6093C3047093C40444
:103050008093C5049093C604E091D104F091D2040A
:10306000ED52FB4F8081811114C0EBE4F3E08491B9
:10307000882341F09091C00095FFFCCF8093C6005B
:103080003196F5CF8091C00085FFFCCF8AE0809318
:10309000C60008958DE499E00E94E337EEE4F3E082
:1030A0008491882341F09091C00095FFFCCF8093DC
:1030B000C6003196F5CF40915C0650915D06609157
:1030C0005E0670915F064F5F5F4F6F4F7F4F2AE044
:1030D00030E08DE499E00E9482388091C00085FF45
:1030E000FCCF8AE08093C6000C9422182F923F9266
:1030F0004F925F926F927F928F929F92AF92BF9208
:10310000CF92DF92EF92FF920F931F93CF93DF93B3
:10311000CDB7DEB76F970FB6F894DEBF0FBECDBF49
:1031200060E6D62E74E0E72EF12CEFECF5E0B490DB
:10313000EAE0CE2EE5E4F6E0A49099249394809101
:10314000CE099091CF092091D0093091D109821BED
:10315000930B8F779927892B39F08091CD0490912B
:10316000CE0404970CF44DC08091C206882309F464
:103170008CC38091CA049091CB04892B09F085C33C
:103180008091CD049091CE04892B11F41092B30458
:10319000E2EBF5E024904CE3C42ED12CE12CF12C91
:1031A00050E1452E5EE0552E612C712C8E010F5F93
:1031B0001F4F30E6332EEDE3F8E094919F8F40915E
:1031C00043095091440960914509709146098091E5
:1031D0003B0990913C09A0913D09B0913E094817E7
:1031E00059076A077B0708F050C38091CD0490917E
:1031F000CE0404970CF049C38091B304811145C3F8
:1032000021C28DE499E00E94C7378093CC042091BD
:10321000CA043091CB048A3061F08D3051F08A338A
:1032200021F49091C904992321F02F3531050CF434
:103230008DC12115310509F4A7C18091CF0490916A
:10324000D004D89E8001D99E100D1124F801E20F00
:10325000F31FE952FB4F10822091C904211171C163
:103260001092C904FC01ED52FB4F108298012952C3
:103270003B4F39016EE470E0C9010E943AC20097E9
:1032800009F4A2C09093C8048093C70486199709D3
:10329000800F911F4AE050E060E070E088529B4F41
:1032A0000E948DC0609360067093610680936206F1
:1032B0009093630640905C0650905D0660905E06B9
:1032C00070905F063FEF431A530A630A730A009136
:1032D000CF041091D004641575058605970509F48F
:1032E00056C1D09EC001D19E900D11246EEE76E0A5
:1032F00089529B4F0E94FFC1892B09F048C1E3E42A
:10330000F8E08491882341F09091C00095FFFCCFB4
:103310008093C6003196F5CFEBEBF6E084918823DD
:1033200041F09091C00095FFFCCF8093C60031968C
:10333000F5CF40915C0650915D0660915E067091FC
:103340005F062AE030E08DE499E00E9482388091A7
:10335000C00085FFFCCF32C09093C8048093C7049F
:1033600084199509860D971D60E070E088529B4F87
:103370000E9410BF0E943FBB212F30E02617370765
:1033800009F45EC0E3E4F8E0849181114BC1ECE9FB
:10339000F6E0849181114EC140915C0650915D062A
:1033A00060915E0670915F062AE030E08DE499E05E
:1033B0000E9482388091C00085FFFCCF8AE0809314
:1033C000C6000E944A1837C06AE270E0C3010E943A
:1033D0003AC2892B09F444C0E3E4F8E084918823DD
:1033E00041F09091C00095FFFCCF8093C6003196CC
:1033F000F5CFE8E4F6E08491882341F09091C00095
:1034000095FFFCCF8093C6003196F5CF40915C06C6
:1034100050915D0660915E0670915F062AE030E093
:103420008DE499E00E9482388091C00085FFFCCF36
:103430008AE08093C6001092CB041092CA0425C281
:103440008091600690916106A0916206B09163063A
:1034500080935C0690935D06A0935E06B0935F0632
:103460008091CF049091D004D89E8001D99E100DF8
:103470001124C80189529B4F3C0167E470E00E940F
:103480003AC2009709F448C09093C8048093C704D7
:1034900086199709800F911F60E070E088529B4F5A
:1034A0000E9410BF0E943FBB64307105A8F5809157
:1034B000B504811119C08091C00681112DC08A2DDB
:1034C000E5E4F6E0882349F09091C00095FFFCCF39
:1034D0008093C60031968491F5CF8091C00085FF1E
:1034E000FCCFC092C60018C08B2DEFECF5E088230E
:1034F00049F09091C00095FFFCCF8093C6003196B3
:103500008491F5CF8091C00085FFFCCFC092C600AA
:1035100085EC95E00E9479988091CF049091D00439
:103520000196B7010E94A2BE9093D0048093CF046D
:103530008091CD049091CE0401969093CE04809317
:10354000CD041092CB041092CA04F9CD8B3311F440
:103550009092C9049091C9049111F1CD4091CF048A
:103560005091D004B9016F5F7F4F7093CB0460938B
:10357000CA04D49EF001D59EF00D1124E20FF31F72
:10358000E952FB4F8083DBCD1092C9047EC1D09EEF
:103590003001D19E700C1124930129523B4F290117
:1035A0006AE270E0C9010E943AC2009769F5E3E45B
:1035B000F8E08491882341F09091C00095FFFCCF02
:1035C0008093C6003196F5CFE2E7F6E08491882338
:1035D00041F09091C00095FFFCCF8093C6003196DA
:1035E000F5CF40915C0650915D0660915E0670914A
:1035F0005F062AE030E08DE499E00E9482388091F5
:10360000C00085FFFCCFDACE20E010E0F301E20F2E
:10361000F11DE952FB4F30813A3209F49DCE2F5F04
:103620001327F4CF9091C00095FFFCCF8093C60084
:103630003196AACE9091C00095FFFCCF8093C60032
:103640003196A7CE8091960890919708A0919808FE
:10365000B09199088093430990934409A093450938
:10366000B09346098EE898E00E94793E482F8093F7
:10367000CC048A30B9F04D30A9F0433229F42091BE
:10368000C904222379F002C04A33C9F32091CA0445
:103690003091CB042F3531052CF48F3FAFEF9A07D3
:1036A00009F0D4C040914309509144096091450903
:1036B0007091460980913B0990913C09A0913D0988
:1036C000B0913E09481759076A077B0708F482C082
:1036D000822DE2EBF5E0882349F09091C00095FF40
:1036E000FCCF8093C60031968491F5CF8091C000C5
:1036F00085FFFCCF8AE08093C6000E949F0F6093F5
:10370000B7047093B8048093B9049093BA0480907E
:10371000BB049090BC04A090BD04B090BE04681996
:1037200079098A099B0928EE33E040E050E00E94C5
:10373000B6BE49015A01CA01B901A70196010E940A
:10374000B6BECA01B901A70196010E94B6BE7F9319
:103750006F93C501B401A30192010E94B6BE3F93CD
:103760002F93AEE9B5E0BF93AF931F930F930E94E1
:1037700069C28F8D0FB6F894DEBF0FBECDBFEDE3EB
:10378000F8E0882349F09091C00095FFFCCF80932A
:10379000C60031968491F5CFF8018191882339F0E4
:1037A0009091C00095FFFCCF8093C600F6CF80912A
:1037B000C00085FFFCCF8AE08093C600C8010E944C
:1037C0006A9880EC96E00E94607A61E080EC96E076
:1037D0000E94C3778091CC04833219F481E08093F6
:1037E000B3042091CA043091CB042115310509F4AA
:1037F000CBCE8091CF049091D004389EF001399EB9
:10380000F00D1124E20FF31FE952FB4F1082FC016F
:10381000ED52FB4F21E020832091CD043091CE0466
:103820002F5F3F4F3093CE042093CD04019664E088
:1038300070E00E94A2BE9093D0048093CF041092B7
:10384000C9041092CB041092CA04B9CC4B3319F4BA
:1038500041E04093C9044091C9044111AACC409170
:10386000CF045091D004B9016F5F7F4F7093CB04A8
:103870006093CA04349EF001359EF00D1124E20FCE
:10388000F31FE952FB4F80839ACC6F960FB6F894E2
:10389000DEBF0FBECDBFDF91CF911F910F91FF9083
:1038A000EF90DF90CF90BF90AF909F908F907F90E0
:1038B0006F905F904F903F902F9008958F929F92BE
:1038C000AF92BF92CF92DF92EF92FF920F931F932E
:1038D000CF93DF93F1E1EF2EF4E0FF2E0AEA16E03A
:1038E000C8E7D6E0ACEBCA2EA6E0DA2EF70181914C
:1038F0007F010E94FD17882319F10E94E9174B01EF
:103900005C01F6018081811103C06091570601C0FE
:1039100061E070E080E090E00E9472BBF8012081DD
:103920003181428153810E94A5BD9B01AC01C5013B
:10393000B4010E94F7B9688379838A839B8309C0A5
:10394000F80180819181A281B38188839983AA83C0
:10395000BB830C5F1F4F2496FFEFCF1ADF0A85E170
:10396000E81684E0F80611F686E40E94FD17882325
:10397000D9F00E94E9176B017C016093680670938F
:10398000690680936A0690936B0620E030E0A901F7
:103990000E94D3BC181644F4C0920F02D0921002B9
:1039A000E0921102F0921202DF91CF911F910F91DC
:1039B000FF90EF90DF90CF90BF90AF909F908F904F
:1039C00008950E945E1C89E40E94FD17882359F027
:1039D0000E94E91760936C0670936D0680936E06E3
:1039E00090936F0608C010926C0610926D061092AC
:1039F0006E0610926F068AE40E94FD17882359F024
:103A00000E94E917609370067093710680937206A6
:103A1000909373060895109270061092710610929A
:103A20007206109273060895CF92DF92EF92FF9282
:103A3000CF93DF93EC01C0909206D0909306E09074
:103A40009406F0909506A7019601688179818A8194
:103A50009B810E94D0BA87FF04C0C882D982EA82C3
:103A6000FB82C0909606D0909706E0909806F09062
:103A70009906A70196016C817D818E819F810E94AC
:103A8000D0BA87FF04C0CC82DD82EE82FF82C09074
:103A90009A06D0909B06E0909C06F0909D06A701A8
:103AA0009601688579858A859B850E94D0BA87FFB3
:103AB00004C0C886D986EA86FB86C0901502D090DD
:103AC0001602E0901702F0901802A7019601688193
:103AD00079818A819B810E94D3BC181624F4C88204
:103AE000D982EA82FB82C0901902D0901A02E0903B
:103AF0001B02F0901C02A70196016C817D818E81D2
:103B00009F810E94D3BC181624F4CC82DD82EE8201
:103B1000FF82C0901D02D0901E02E0901F02F09024
:103B20002002A7019601688579858A859B850E9478
:103B3000D3BC181624F4C886D986EA86FB86DF91A2
:103B4000CF91FF90EF90DF90CF900895CF92DF92CA
:103B5000EF92FF920F931F9388E796E00E94141D47
:103B60000E949F0F6093C3047093C4048093C504A4
:103B70009093C604209178063091790640917A0698
:103B800050917B066091AA067091AB068091AC06BD
:103B90009091AD060E94D0BA811179C020917C0627
:103BA00030917D0640917E0650917F066091AE0671
:103BB0007091AF068091B0069091B1060E94D0BA84
:103BC000811165C020E030E040E752E460910F02CF
:103BD0007091100280911102909112020E94D7BA46
:103BE000BAE8CB2EB6E0DB2E7B018C0124E836E070
:103BF00040E856E06CE776E088E796E00E94A25045
:103C00008091780690917906A0917A06B0917B0612
:103C10008093AA069093AB06A093AC06B093AD0632
:103C200080917C0690917D06A0917E06B0917F06E2
:103C30008093AE069093AF06A093B006B093B10602
:103C40008091800690918106A0918206B0918306B2
:103C50008093B2069093B306A093B406B093B506D2
:103C60008091840690918506A0918606B091870682
:103C70008093B6069093B706A093B806B093B906A2
:103C80001F910F91FF90EF90DF90CF90089560917A
:103C9000290270912A02882777FD8095982F0E942B
:103CA00072BB20910F02309110024091110250918D
:103CB00012020E94A5BD20E030E040E752E40E94DD
:103CC000D7BA20E030E048EC52E488CFAF92BF9200
:103CD000CF92DF92EF92FF920F931F93CF93DF93D8
:103CE000D82F209170063091710640917206509144
:103CF000730660916C0670916D0680916E069091CE
:103D00006F060E94E0BCC62F172F082FF92E609176
:103D1000290270912A02882777FD8095982F0E94AA
:103D200072BB20910F02309110024091110250910C
:103D300012020E94A5BD20E030E040E752E40E945C
:103D4000D7BA20E030E048EC52E40E94D7BA209184
:103D50008A062F93DF93FF920F931F93CF935B01FC
:103D60006C01C2E0EC2E01E020E04CE656E068E792
:103D700076E08AEA96E00E948149809178069091E7
:103D80007906A0917A06B0917B068093AA0690935B
:103D9000AB06A093AC06B093AD0680917C069091E3
:103DA0007D06A0917E06B0917F068093AE0690932B
:103DB000AF06A093B006B093B106809180069091B3
:103DC0008106A0918206B09183068093B2069093FB
:103DD000B306A093B406B093B50680918406909183
:103DE0008506A0918606B09187068093B6069093CB
:103DF000B706A093B806B093B9060E949F0F6093D0
:103E0000C3047093C4048093C5049093C6040F90B8
:103E10000F900F900F900F900F90DF91CF911F9107
:103E20000F91FF90EF90DF90CF90BF90AF900895EB
:103E3000F8940E949B68159A10928F06179A109218
:103E40009006429A10929106A09AE3E4F8E08491D9
:103E5000882341F09091C00095FFFCCF8093C6006D
:103E60003196F5CFECE2F3E08491882341F0909114
:103E7000C00095FFFCCF8093C6003196F5CF8091AE
:103E8000C00085FFFCCF8AE08093C60083E293E008
:103E90000E9488980E945F16FFCFCF92DF92EF9228
:103EA000FF920F931F930E949F0F0091BF041091E8
:103EB000C0042091C1043091C204C090C304D090CA
:103EC000C404E090C504F090C6046C197D098E0905
:103ED0009F09061717072807390730F4012B022B13
:103EE000032B11F00E94181F80910B0290910C027D
:103EF000A0910D02B0910E02892B8A2B8B2B09F118
:103F00000E949F0F0091C3041091C4042091C50426
:103F10003091C604601B710B820B930B00910B0256
:103F200010910C0220910D0230910E020617170716
:103F30002807390730F49091E00B8091DF0B981738
:103F400041F01F910F91FF90EF90DF90CF900C9474
:103F50008650159A10928F06179A10929006429AE0
:103F600010929106A09AEDCF0E949B688091B504B3
:103F7000811138C081E08093B50480915C069091F6
:103F80005D06A0915E06B0915F06809358069093FF
:103F90005906A0935A06B0935B06E3E4F8E08491D7
:103FA000882341F09091C00095FFFCCF8093C6001C
:103FB0003196F5CFEDEAF2E08491882341F09091BB
:103FC000C00095FFFCCF8093C6003196F5CF80915D
:103FD000C00085FFFCCF8AE08093C60083EA92E0B0
:103FE0000C94799808958091B504089567707727A7
:103FF000E82FF0E0E356FE4F849190E0FC01369705
:10400000EC30F10578F5EC56FF4F0C94F7BE80913B
:10401000B100887F8093B1008091B100862B80939E
:10402000B100089580919100887F809391008091E4
:104030009100862B8093910008958091A100887F44
:104040008093A1008091A100862B8093A100089508
:1040500080912101887F8093210180912101862B0D
:10406000809321010895CF93DF93EC0180918A061C
:104070008093B60484E50E94FD17811102C080E0A0
:1040800075C00E94E9170E9444BB6093B604662382
:10409000B1F3EDE3F8E08491882341F09091C00002
:1040A00095FFFCCF8093C6003196F5CFCD36D10574
:1040B000B9F054F4C836D105B1F0C936D10509F0CC
:1040C00045C0E2E3F3E021C0CA3DD10531F0CD3D6A
:1040D000D105E1F5EDEEF2E036C0E4E0F3E029C011
:1040E000EBE1F3E01CC0E9E4F3E08191882371F196
:1040F0009091C00095FFFCCF8093C600F6CF9091C1
:10410000C00095FFFCCF8093C60081918111F7CF4D
:104110001DC09091C00095FFFCCF8093C600819197
:104120008111F7CF13C09091C00095FFFCCF809311
:10413000C60081918111F7CF09C09091C00095FF11
:10414000FCCF8093C60081918111F7CF40E050E011
:104150006091B6048DE499E00E94E4388091C0003B
:1041600085FFFCCF8AE08093C60081E0DF91CF918C
:1041700008952F923F924F925F926F927F928F920B
:104180009F92AF92BF92CF92DF92EF92FF920F93E6
:104190001F93CF93DF93CDB7DEB7E5970FB6F894B3
:1041A000DEBF0FBECDBF87E40E94FD17882309F450
:1041B00089C30E94E9170E943FBB64307105D9F1A1
:1041C00044F46230710521F15CF577FF17C00C945F
:1041D000C3346A35710509F421C334F46C317105B7
:1041E00009F471C00C94C3346B35710509F41AC31A
:1041F0006C35710509F41BC30C94C3348091B5046C
:10420000811106C00E945E1C0E94A61D0C945836A7
:104210008091B504811104C00E94E11C81E007C0B7
:104220008091B504811107C00E94E11C80E00E94CA
:10423000661E0C94583685E995E00E94799880E5D1
:104240000E94FD17882339F00E94E9170E9444BBA1
:104250004B015C0103C0812C912C540183E50E9429
:10426000FD17882361F00E94E91720E030E04AE75B
:1042700054E40E94A5BD0E9444BB4B015C010E9416
:10428000B6630E949F0F6B017C01C80CD91CEA1C0D
:10429000FB1C0E949F0F6093C3047093C40480931F
:1042A000C5049093C6040E949F0F6C157D058E0572
:1042B0009F0510F00C94C3340E9472650E944D1F3C
:1042C0000E941599F0CF80910F0290911002A09159
:1042D0001102B09112028093640690936506A09338
:1042E0006606B09367068091290290912A02909306
:1042F000BB068093BA0684E690E090932A028093EE
:1043000029020E949F0F6093C3047093C40480939A
:10431000C5049093C60481E00E94F85B8091AA06D0
:104320009091AB06A091AC06B091AD068093780653
:1043300090937906A0937A06B0937B068091AE069F
:104340009091AF06A091B006B091B10680937C0623
:1043500090937D06A0937E06B0937F068091B2066F
:104360009091B306A091B406B091B50680938006F3
:1043700090938106A0938206B09383068091B6063F
:104380009091B706A091B806B091B90680938406C3
:1043900090938506A0938606B093870610920F022D
:1043A00010921002109211021092120288E50E94DF
:1043B000FD17882311F090E00AC089E50E94FD17DF
:1043C0008111F9CF8AE50E94FD1791E0982790931B
:1043D000130291110CC088E50E94FD17882309F48F
:1043E0006CC189E50E94FD17882309F466C110920B
:1043F000AA061092AB061092AC061092AD0610926F
:10440000AE061092AF061092B0061092B106EEEF13
:10441000F7E0149126EB36E042EB56E06EEA76E0E8
:104420008AEA96E00E943C5A8DE098E00E94AB1325
:104430006B017C0120E030E040EC5FE30E94A5BD11
:104440004B015C01612F772767FD7095872F972FB0
:104450000E9472BB9B01AC01C501B4010E94A5BDC5
:10446000609378067093790680937A0690937B0622
:1044700081E198E00E94AB134B015C01EFEFF7E0A4
:10448000149120E030E040EC5FE30E94A5BD2B01D9
:104490003C01612F772767FD7095872F972F0E942A
:1044A00072BB9B01AC01C301B2010E94A5BD609328
:1044B0007C0670937D0680937E0690937F06209104
:1044C0002B0230912C0240912D0250912E0220930C
:1044D0000F02309310024093110250931202409049
:1044E0002F02509030026090310270903202C3016E
:1044F000B2010E94D0BA87FF08C040920F025092CA
:1045000010026092110270921202A5019401C7017B
:10451000B6010E94D3BC181614F00C94C634A7013F
:104520009601C501B4010E94D7BA9B01AC010E945B
:10453000A5BD20E030E040E85FE30E94F7B90E94AB
:1045400012BE9B01AC0160910F027091100280912C
:104550001102909112020E94A5BD60930F02709308
:104560001002809311029093120220E030E040E7A5
:1045700052E460910F0270911002809111029091AB
:1045800012020E94D7BAEAE8CE2EE6E0DE2E7B01C8
:104590008C0124E836E040E856E06CE776E088E7F6
:1045A00096E00E94A2500E94B66380E090E00E94D4
:1045B000B11381E090E00E94B11326EB36E042EBAC
:1045C00056E06EEA76E08AEA96E00E943C5A8091D4
:1045D000AA069091AB06A091AC06B091AD0680936F
:1045E000780690937906A0937A06B0937B06809123
:1045F000AE069091AF06A091B006B091B10680933F
:104600007C0690937D06A0937E06B0937F0620E003
:1046100030E040E752E460910F0270911002809107
:104620001102909112020E94D7BA7B018C0124E8FA
:1046300036E040E856E06CE776E088E796E00E94D6
:10464000A25010920F0210921002109211021092BA
:1046500012020E94B6630E94F15B809178069091ED
:104660007906A0917A06B0917B068093AA06909372
:10467000AB06A093AC06B093AD0680917C069091FA
:104680007D06A0917E06B0917F068093AE06909342
:10469000AF06A093B006B093B106809180069091CA
:1046A0008106A0918206B09183068093B206909312
:1046B000B306A093B406B093B5068091130281119E
:1046C0000C94CC3488E50E94FD1781110C94CC34F5
:1046D0008091130281110C94D23489E50E94FD1758
:1046E00081110C94D23488E50E94FD178823D1F003
:1046F0000E94F217672B682B692BA1F00E94E91723
:1047000020919E0630919F064091A0065091A106EF
:104710000E94F7B96093AA067093AB068093AC062B
:104720009093AD0689E50E94FD178823D1F00E9481
:10473000F217672B682B692BA1F00E94E9172091D3
:10474000A2063091A3064091A4065091A5060E94AE
:10475000F7B96093AE067093AF068093B00690935E
:10476000B1068091130281110C94D8348AE50E941D
:10477000FD1781110C94D8348AE50E94FD17882317
:10478000D1F00E94F217672B682B692BA1F00E94D1
:10479000E9172091A6063091A7064091A8065091EE
:1047A000A9060E94F7B96093B2067093B30680938E
:1047B000B4069093B50626EB36E042EB56E06EEA7F
:1047C00076E08AEA96E00E943C5A80E00E94F85B1C
:1047D0008091640690916506A0916606B091670687
:1047E00080930F0290931002A0931102B0931202D3
:1047F0008091BA069091BB0690932A028093290279
:104800000E949F0F6093C3047093C4048093C504F7
:104810009093C6040E94F15B0C94C3341092570627
:104820000C94C33481E0809357060C94C33485E420
:104830000E94FD17811102C00E94B66361E1C62E7D
:1048400064E0D62E7EE9E72E76E0F72E0AEA16E03F
:10485000B12CF60181916F010E94FD17882339F177
:10486000F3E0BF120CC00E94E917F8016083718366
:104870008283938386EB96E00E94E15A18C00E94DF
:10488000E917F70120813181428153810E94F7B9F4
:10489000F801608371838283938326EB36E042EBD9
:1048A00056E06EEA76E08AEA96E00E943C5AB394BB
:1048B000F4E0EF0EF11C0C5F1F4F24E0B212C9CFE1
:1048C0000C94C3348DE40E94FD17882311F40C94DA
:1048D000F2330E94E9170E943FBB6237710511F461
:1048E0000C941B2C0CF0BFC06E31710509F46CC226
:1048F0000CF046C06631710509F4F7C1BCF46131B2
:10490000710509F4B4C134F46230710508F454C17E
:104910000C94C3346431710509F4B3C10CF0DFC1E8
:104920006231710509F4A9C60C94C334693171056B
:1049300009F4FAC1CCF46731710509F4DCC16831BE
:10494000710511F00C94C33480EC96E00E94437220
:104950000E949F0F6093BB047093BC048093BD04BE
:104960009093BE040C94C3346B31710509F4F0C10B
:104970000CF4E0C16C31710509F4F0C10C94C3343E
:104980006435710509F479C6CCF56A32710509F40C
:1049900055C354F46F31710509F4F3C260327105E7
:1049A00009F451C20C94C3346235710509F45CC634
:1049B0000CF05EC66135710511F00C94C3340E9491
:1049C0009B680E94B663A09A0E941F641092890699
:1049D0001092880668EE73E080E090E00E94CE0FAF
:1049E0000E94B6630E945F161092140289EC94E054
:1049F0000E9479980E9415990C94C3346936710508
:104A000009F476C324F56C35710509F46EC6683671
:104A1000710509F43EC36535710511F00C94C3347A
:104A200083E50E94FD170E94E91720E030E04AE785
:104A300054E40E94A5BD0E9444BB6093BF047093E0
:104A4000C0048093C1049093C2040C94C3346B36A9
:104A5000710509F403C60CF4D1C56D36710509F46E
:104A600054C40C94C3346D3D710511F40C94502F53
:104A70000CF048C06E3B710509F4C0C4ECF4673714
:104A8000710509F496C054F46337710509F4AFC693
:104A90006537710509F4BAC60C94C33469377105DA
:104AA00011F40C94002D14F40C94FB2C6C3871054B
:104AB00009F40DC30C94C3346C3C710511F40C94CF
:104AC000A72E8CF4693C710511F40C946B2E6B3C91
:104AD000710511F40C948B2E683C710511F00C9447
:104AE000C3340C94F32D6E3C710511F40C94252FF6
:104AF00014F40C94C72E6C3D710511F40C94412FE5
:104B00000C94C334643F31E0730711F40C94E33028
:104B10002CF56D3291E0790711F40C94D72F64F4E1
:104B2000623E710511F40C94762F6C32714011F4D1
:104B30000C94A12F0C94C3346F3221E0720711F44E
:104B40000C94AB3014F40C949D306039714011F02A
:104B50000C94C3340E94B6630C94C334683592E05D
:104B6000790711F40C94C13194F4663FF1E07F07AA
:104B700011F40C94E93014F40C94E630673F714062
:104B800011F00C94C3340E94097C0C94C334603A35
:104B900083E0780709F4C1C1673E93E0790711F417
:104BA0000C94DB336335734011F00C94C3340C94D4
:104BB000EC30EFE6F3E02EC784E895E00E947998A8
:104BC00080E50E94FD17882339F00E94E9170E94B2
:104BD00044BB6B017C0103C0C12CD12C760183E561
:104BE0000E94FD17882361F00E94E91720E030E061
:104BF0004AE754E40E94A5BD0E9444BB6B017C01BE
:104C00000E94B6630E949F0F6093C3047093C40414
:104C10008093C5049093C604C114D104E104F10447
:104C2000A9F00E949F0F4B015C018C0C9D1CAE1CD7
:104C3000BF1C0E949F0F681579058A059B0588F4A3
:104C40000E94D99981110DC00C94DE340E94D9992B
:104C5000811107C00E9472650E944D1F0E94159924
:104C6000F5CF85E795E00E9479980C94C3348CE6E3
:104C700095E00E947998159817984298A0980C94FE
:104C8000C334ECE5F5E08491882341F09091C000B5
:104C900095FFFCCF8093C6003196F5CF8091C00080
:104CA00085FFFCCF8AE08093C60080EC96E00E94EE
:104CB0002171EEE4F5E08491882341F09091C000E9
:104CC00095FFFCCF8093C6003196F5CF8091C00050
:104CD00085FFFCCF8AE08093C6000C94C33480EC3F
:104CE00096E00E9478710C94C33480EC96E00E94A8
:104CF0003F720C94C3340091C7041091C8040C5F38
:104D00001F4F6AE270E0C8010E943AC2009719F092
:104D1000FC013197108221E041E0B80180EC96E07F
:104D20000E94AE720C94C33480EC96E00E944A72EA
:104D30000C94C3348091C306882311F40C94C334BB
:104D400083E50E94FD1781110C94E6340C94C33462
:104D500080EC96E00E94FD760C94C3348091C704E9
:104D60009091C8046AE270E004960E943AC28C01F5
:104D70000097E1F02091D1043091D20440E6429FA7
:104D8000C001439F900D11246EE470E089529B4F47
:104D90000E943AC260E270E00E943AC2019690938B
:104DA000C8048093C704F801319710826091C7044A
:104DB0007091C8046C5F7F4F21E040E080EC96E08A
:104DC0000E94AE720C94C3348091C306882311F400
:104DD0000C94C33460E080EC96E00E94B678809139
:104DE000C7049091C8046AE270E004960E943AC237
:104DF0008C010097E1F02091D1043091D20440E67B
:104E0000429FC001439F900D11246EE470E08952CF
:104E10009B4F0E943AC260E270E00E943AC2019643
:104E20009093C8048093C704F80131971082609171
:104E3000C7047091C8046C5F7F4F80EC96E00E94BD
:104E4000C3750C94C3348091C20681110E94B6636D
:104E50000091C7041091C8040C5F1F4F6AE270E014
:104E6000C8010E943AC27C0161E270E0C8010E9460
:104E70003AC2009719F08C010F5F1F4FE114F10443
:104E800019F0F7013197108280E50E94FD17F82E86
:104E90002091C7043091C8040217130708F4F12CBD
:104EA0008091C306882311F40C94C33421E02F258C
:104EB00041E0B80180EC96E00E94AE7283E50E946A
:104EC000FD178823B9F02091C7043091C80420173A
:104ED000310780F40E94F217AB01BC0140934309F3
:104EE0005093440960934509709346098EE898E011
:104EF0000E94453F80EC96E00E944372F1100C94B2
:104F0000C3340E949F0F6093BB047093BC048093D2
:104F1000BD049093BE040C94C3348091C704909157
:104F2000C8046AE270E005960E943AC28C010097BC
:104F3000E1F02091D1043091D20440E6429FC001BB
:104F4000439F900D11246EE470E089529B4F0E94A4
:104F50003AC260E270E00E943AC201969093C8049F
:104F60008093C704F801319710826091C704709153
:104F7000C8046B5F7F4F80EC96E00E94BD750C9477
:104F8000C3340E949F0F6093B7047093B80480935A
:104F9000B9049093BA040091BB041091BC04209111
:104FA000BD043091BE04601B710B820B930B28EE85
:104FB00033E040E050E00E94B6BECA01B9012CE3E4
:104FC00030E040E050E00E94B6BE7F936F933F9385
:104FD0002F938FE395E09F938F938E010F5F1F4F69
:104FE0001F930F930E9469C2EDE3F8E084910FB61E
:104FF000F894DEBF0FBECDBF882349F09091C0006A
:1050000095FFFCCF8093C60031968491F5CFF801CF
:105010008191882339F09091C00095FFFCCF809357
:10502000C600F6CF8091C00085FFFCCF8AE0809358
:10503000C600C8010E946A980C94C33483E50E949C
:10504000FD17882311F40C94C3340E94E9176B01F7
:105050007C0180E50E94FD17882351F0C701B6014D
:105060000E943FBB6F3F710509F010F40C94F734B8
:105070006DE070E020E0E22FEE0FFF0BE752FC4FF7
:10508000808191818617970711F40C94C3342F5FA8
:10509000F2CF88E690E00E94332081110C94C33453
:1050A00083E50E94FD17882371F00091B6040E94E9
:1050B000E91710E0000F111F0D521E4E0E943FBB5A
:1050C000F801718360830E9460680C94C33483E5A7
:1050D0000E94FD17882311F40C94C3340E94E91731
:1050E0000E943FBB7093D2116093D1110C94C334D2
:1050F00089E690E00E94332081110C94C334E9E3E7
:10510000F5E08491882341F09091C00095FFFCCF99
:105110008093C6003196F5CFE091B60424E0E29F7B
:10512000F0011124E553FE4E40815181628173816B
:1051300021E030E08DE499E00E948939E6E3F5E072
:105140008491882341F09091C00095FFFCCF80931B
:10515000C6003196F5CFE091B604F0E0EE0FFF1FE8
:10516000ED52FE4E60817181882777FD8095982FE2
:105170000E9472BBAB01BC0121E030E08DE499E0FC
:105180000E948939E2E3F5E08491882341F090910F
:10519000C00095FFFCCF8093C6003196F5CF4091BB
:1051A000C5115091C6116091C7117091C81121E0CD
:1051B00030E08DE499E00E948939EFE2F5E08491D6
:1051C000882341F09091C00095FFFCCF8093C600EA
:1051D0003196F5CF6091D1117091D211882777FD6A
:1051E0008095982F0E9472BBAB01BC0121E030E09A
:1051F0008DE499E00E948939ECE2F5E084918823FE
:1052000041F09091C00095FFFCCF8093C60031968D
:10521000F5CF4AE050E060E070E08DE499E00E9454
:10522000A938EAE2F5E08491882341F09091C0002A
:1052300095FFFCCF8093C6003196F5CF4091CB11FE
:105240005091CC116091CD117091CE1121E030E0E0
:105250008DE499E00E948939E7E2F5E084918823A2
:1052600041F09091C00095FFFCCF8093C60031962D
:10527000F5CF6091D3117091D411882777FD809577
:10528000982F0E9472BBAB01BC0121E030E08DE49D
:1052900099E00E948939E3E2F5E08491882341F0A6
:1052A0009091C00095FFFCCF8093C6003196F5CF5A
:1052B0008091B60490E00E9467654AE050E0BC012E
:1052C0008DE499E00E94A938EEE1F5E0849188230D
:1052D00041F09091C00095FFFCCF8093C6003196BD
:1052E000F5CF8FEF9FEF0E9467654AE050E0BC0169
:1052F0008DE499E00E94A9388091C00085FFFCCF21
:105300008AE08093C6000C9458368DE690E00E94A7
:10531000332081110C94C33483E195E00E94799885
:1053200083E50E94FD17882391F00091B6040E9446
:10533000E91710E0000F111F0D521E4E0E943FBBD7
:10534000F8017183608381E080930A0215C082E5D1
:105350000E94FD17882381F00091B6040E94E9178E
:1053600010E0000F111F0D521E4E0E943FBBF801AE
:105370007183608310920A020E9460680E949F0FEE
:105380004B015C010091B60410E0F801EE0FFF1F25
:10539000ED52FE4E60817181882777FD8095982FB0
:1053A0000E9472BBF801EE0FFF1FEE0FFF1FE553C7
:1053B000FE4E11E020813181428153810E94D3BC95
:1053C00018160CF010E01093B404CC24CA94DC2C12
:1053D0007601E0E1F5E024912FA7ECE0F5E03491CF
:1053E00039ABE8E0F5E0249078EE472E73E0572ED5
:1053F000612C712CEAE03E2E0C945A358DEE94E02F
:105400000E94799883E50E94FD17882361F00E942D
:10541000E9170E943FBB7093D2116093D11181E0D4
:1054200080930A020FC082E50E94FD17882351F085
:105430000E94E9170E943FBB7093D2116093D11173
:1054400010920A020E949F0F6B017C016091D111A2
:105450007091D211882777FD8095982F0E9472BB9A
:1054600011E02091C5113091C6114091C7115091A2
:10547000C8110E94D3BC18160CF010E01093B404AD
:10548000EAEEF4E01491E6EEF4E00491E2EEF4E0EA
:10549000B4909AE0A92E8091B4046091D1117091DA
:1054A000D211882309F483C0882777FD8095982F2F
:1054B0000E9472BB2091C5113091C6114091C71155
:1054C0005091C8110E94D3BC18160CF087C00E94DE
:1054D0009F0F6C197D098E099F09693E73408105F4
:1054E000910508F45DC0E0918A0634E0E39FF00185
:1054F0001124E553FE4E4081518162817381812FD9
:10550000EAEEF4E0882349F09091C00095FFFCCFCB
:105510008093C60031968491F5CF22E030E08DE48F
:1055200099E00E948939802FE6EEF4E0882349F063
:105530009091C00095FFFCCF8093C6003196849176
:10554000F5CF60918A0670E04AE050E08DE499E082
:105550000E94A9388B2DE2EEF4E0882349F0909167
:10556000C00095FFFCCF8093C60031968491F5CFA3
:105570004091C5115091C6116091C7117091C81129
:1055800021E030E08DE499E00E9489398091C000EB
:1055900085FFFCCFA092C6000E949F0F6B017C018B
:1055A0000E9472650E944D1F0E94159974CF882732
:1055B00077FD8095982F0E9472BB2091C511309184
:1055C000C6114091C7115091C8110E94D0BA87FFEF
:1055D00005C080910A02882309F479CF88ED94E010
:1055E0000E9479980E949F0F6093C3047093C40433
:1055F0008093C5049093C6040C94C33483E50E9441
:10560000FD17882319F10E94E91720E030E0A90175
:105610000E94D0BA87FD0FC00E94E91720E030E059
:105620004FE753E40E94D3BC181644F00E94E917D8
:105630000E943FBB05C060E070E002C06FEF70E009
:1056400070938906609388060C94C3348FEF90E0C2
:1056500090938906809388060C94C334109289062F
:10566000109288060C94C3341092BF060C94C33475
:1056700081E08093BF060C94C33483E50E94FD173C
:105680008823A1F00E94E91720E030E04AE754E4C3
:105690000E94A5BD0E9444BB60930B0270930C0254
:1056A00080930D0290930E020C94C33488E50E94FF
:1056B000FD1781110C94363689E50E94FD17811182
:1056C0000C9436368AE50E94FD1781110C9436360B
:1056D00085E40E94FD1781110C9436360E94B66352
:1056E000A09A0E941F640C94C33481E194E098ABAB
:1056F0008FA701E111E1B1E28B2EB1E19B2E85ED87
:10570000A82E80E1B82E312CEFA5F8A98191F8AB35
:10571000EFA70E94FD17882309F45BC0F3E03F1256
:1057200051C00E94E9176B017C0120E030E040EAA3
:1057300051E40E94D0BA87FF3FC0A7019601F8014B
:1057400060817181828193810E94D7BA2B013C01D3
:105750009B01AC016091E9107091EA108091EB100F
:105760009091EC100E94A5BD6093E9107093EA102F
:105770008093EB109093EC10A3019201F4016081EF
:105780007181828193810E94A5BDF4016083718340
:1057900082839383F50160817181828193810E946C
:1057A00070BBA30192010E94A5BD0E9444BBF501FC
:1057B0006083718382839383F801C082D182E28205
:1057C000F38207C00E94E917F80160837183828326
:1057D000938333940C5F1F4FF4E08F0E911C24E0F1
:1057E000A20EB11C34E033128FCF0C94C334EFEF10
:1057F000F3E08491882311F40C94C3349091C00099
:1058000095FFFCCF8093C6003196F3CF0091C7047B
:105810001091C8040B5F1F4F6AE270E0C8010E943C
:105820003AC2009719F0FC0131971082C8010E941A
:105830006A980C94C334ECEFF3E08491882341F030
:105840009091C00095FFFCCF8093C6003196F5CFB4
:105850004091AA065091AB066091AC067091AD06DE
:1058600022E030E08DE499E00E948939E8EFF3E02E
:105870008491882341F09091C00095FFFCCF8093E4
:10588000C6003196F5CF4091AE065091AF066091BB
:10589000B0067091B10622E030E08DE499E00E94FC
:1058A0008939E4EFF3E08491882341F09091C000BE
:1058B00095FFFCCF8093C6003196F5CF4091B2069C
:1058C0005091B3066091B4067091B50622E030E0C5
:1058D0008DE499E00E948939E0EFF3E08491882318
:1058E00041F09091C00095FFFCCF8093C6003196A7
:1058F000F5CF4091B6065091B7066091B806709109
:10590000B90622E030E08DE499E00E948939E5EEA5
:10591000F3E08491882341F09091C00095FFFCCF83
:105920008093C6003196F5CF0E9411640E9472BB2D
:1059300020911111309112114091131150911411B5
:105940000E94D7BAAB01BC0122E030E08DE499E0BF
:105950000E948939E1EEF3E08491882341F090912F
:10596000C00095FFFCCF8093C6003196F5CF81E053
:105970000E9411640E9472BB209115113091161182
:1059800040911711509118110E94D7BAAB01BC0178
:1059900022E030E08DE499E00E948939EDEDF3E0FA
:1059A0008491882341F09091C00095FFFCCF8093B3
:1059B000C6003196F5CF82E00E9411640E9472BB4E
:1059C0002091191130911A1140911B1150911C1105
:1059D0000E94D7BAAB01BC0122E030E08DE499E02F
:1059E0000E9489398091C00085FFFCCF8AE08093B6
:1059F000C6000C94C33480E00E94F85B0C94C3345E
:105A000081E00E94F85BBFC79091C00095FFFCCF7A
:105A10008093C60081918111F7CF8091C00085FFEE
:105A2000FCCF8AE08093C600E5EDF3E08491882303
:105A300041F09091C00095FFFCCF8093C600319655
:105A4000F5CF009903C0E0E6F3E009C0EAE6F3E031
:105A500006C09091C00095FFFCCF8093C600819155
:105A60008111F7CF8091C00085FFFCCF8AE0809341
:105A7000C600EDECF3E08491882341F09091C000E2
:105A800095FFFCCF8093C6003196F5CF029903C0F5
:105A9000E0E6F3E009C0EAE6F3E006C09091C0005A
:105AA00095FFFCCF8093C60081918111F7CF809143
:105AB000C00085FFFCCF8AE08093C600E5ECF3E0F0
:105AC0008491882341F09091C00095FFFCCF809392
:105AD000C6003196F5CF049903C0E0E6F3E009C0B3
:105AE000EAE6F3E006C09091C00095FFFCCF8093FA
:105AF000C60081918111F7CF8091C00085FFFCCF56
