:100000000C94600F0C941A120C944B120C947C12EA
:100010000C94AD120C94DE120C940F130C9440133C
:100020000C9471130C94910F0C94910F0C94910FEC
:100030000C94910F0C946E880C94910F0C94910F6A
:100040000C94910F0C94B95D0C94910F0C94910F3A
:100050000C94910F0C94910F0C9467710C94930F66
:100060000C94910F0C9400390C94910F0C94910FF7
:100070000C94910F0C94910F0C94910F0C94910F80
:100080000C94910F0C94910F0C94910F0C94910F70
:100090000C94910F0C94910F0C94910F0C94910F60
:1000A0000C94910F0C94910F0C94910F0C94910F50
:1000B0000C94910F0C94910F0C94910F0C94910F40
:1000C0000C94910F0C94910F0C94910F0C94910F30
:1000D0000C94910F0C94910F0C94910F0C94910F20
:1000E0000C94910FC510CA10CF10D9105211E31003
:1000F000EB10F310FD100711111120112A115211EC
:1001000034113E1148117011731166116A11AA1150
:1001100077117B118111851189118F11931197111D
:10012000AA119D11A111A511552055206020602014
:1001300060206B206B206B2080207620762076203C
:10014000C071CF71EB71FA71147223723D724172FA
:100150004972084AD73B3BCE016E84BCBFFDC12F1C
:100160003D6C74319ABD56833DDA3D00C77F11BEA8
:10017000D9E4BB4C3E916BAAAABE000000803F05AB
:10018000A84CCDB2D44EB93836A9020C50B99186DC
:1001900088083CA6AAAA2ABE000000803F000009E9
:1001A0000A02080B0C0D0706030401000000000002
:1001C00000000000000000000011100F00000000FF
:1001E00000000001021020200808102040102040CC
:1001F00080020102010804020101020408102040EB
:100200008080402010080402018004020180402008
:100210001008040201080402010102040810204031
:100220008001020408102040800505050507050827
:10023000080808020202020A0A0808040404040169
:10024000010101010101010303030303030303048B
:100250000707070C0C0C0C0C0C0C0C02020202061B
:10026000060606060606060B0B0B0B0B0B0B0B000C
:10027000002200250028002B002E0031003400024F
:10028000010000050108010B0100002100240027E6
:10029000002A002D00300033000101000004010796
:1002A000010A0153544F505045442E2000507269AA
:1002B0006E7465722073746F707065642064756508
:1002C00020746F206572726F72732E2046697820D9
:1002D000746865206572726F7220616E6420757338
:1002E00065204D39393920746F20726573746172DD
:1002F000742E202854656D70657261747572652066
:1003000069732072657365742E2053657420697457
:100310002061667465722072657374617274696EAF
:100320006729004B494C4C45442E20005072696EA1
:100330007465722068616C7465642E206B696C6CE6
:1003400028292063616C6C656421006F6B00526525
:1003500073656E643A20002200556E6B6E6F776E87
:1003600020636F6D6D616E643A2022004368616E98
:1003700067652066696C616D656E74005A204F6612
:1003800066736574203A20007A5F6D61783A2000C8
:100390007A5F6D696E3A20005A204F666673657405
:1003A000005A204F6666736574206F6B00486F7447
:1003B000656E64206F6666736574733A007A5F6D6C
:1003C00061783A20007A5F6D696E3A2000795F6D3E
:1003D00061783A2000795F6D696E3A2000785F6D30
:1003E00061783A2000785F6D696E3A2000205A3AB1
:1003F0000020593A0020436F756E7420583A20004F
:1004000020453A00205A3A0020593A00583A00460E
:1004100049524D574152455F4E414D453A4D6172EB
:100420006C696E2056313B20537072696E74657230
:100430002F6772626C206D617368757020666F72D1
:100440002067656E36204649524D574152455F55EB
:10045000524C3A687474703A2F2F6669726D7761E6
:1004600072652E756C74696D616B65722E636F6D4C
:100470002050524F544F434F4C5F56455253494FB3
:100480004E3A312E30204D414348494E455F545934
:1004900050453A556C74696D616B657220455854CE
:1004A00052554445525F434F554E543A32205555AC
:1004B00049443A30303030303030302D3030303008
:1004C0002D303030302D303030302D303030303035
:1004D000303030303030300A00556C74696D616BEB
:1004E0006572204F66662E0042656420646F6E65FB
:1004F0002E0020423A0020453A00543A00426564FA
:100500002048656174696E672E0048656174696E84
:100510006720646F6E652E0020573A0020453A0030
:10052000543A0048656174696E672E2E2E00204291
:10053000403A0020403A00202F003A00205400208A
:100540002F0020423A00202F006F6B20543A0025E4
:1005500069206D696E2C2025692073656300456EE6
:10056000642066696C65206C697374004265676914
:100570006E2066696C65206C697374004E6F206D27
:100580006F76652E00526573756D696E67207072A7
:10059000696E74005761697420666F7220757365A7
:1005A000722E2E2E00536C6565702E2E2E0025693E
:1005B00020686F757273202569206D696E7574658A
:1005C0007300446F6E65207072696E74696E672087
:1005D00066696C650053544F505045442E200050BE
:1005E00072696E7465722073746F707065642064D4
:1005F000756520746F206572726F72732E20466964
:100600007820746865206572726F7220616E642054
:10061000757365204D39393920746F207265737494
:100620006172742E202854656D70657261747572E4
:10063000652069732072657365742E20536574207C
:100640006974206166746572207265737461727476
:10065000696E6729006F6B004E6F204C696E6520D4
:100660004E756D6265722077697468206368656392
:100670006B73756D2C204C617374204C696E653AF8
:1006800020004E6F20436865636B73756D2077693A
:100690007468206C696E65206E756D6265722C20C1
:1006A0004C617374204C696E653A20006368656321
:1006B0006B73756D206D69736D617463682C204C6C
:1006C000617374204C696E653A20004C696E652038
:1006D0004E756D626572206973206E6F74204C6177
:1006E0007374204C696E65204E756D6265722B3196
:1006F0002C204C617374204C696E653A20004D319A
:10070000313000446F6E6520736176696E672066D4
:10071000696C652E006F6B004D3239002020506CE3
:10072000616E6E6572427566666572427974657354
:100730003A20002046726565204D656D6F72793AEA
:100740002000466562203139203230313500436F58
:100750006D70696C65643A20002844617669642094
:10076000427261616D2900207C20417574686F724E
:100770003A20004665622031392032303135203050
:10078000393A35393A313100204C61737420557053
:1007900064617465643A2000312E302E30004D6162
:1007A000726C696E0020536F6674776172652052B7
:1007B0006573657400205761746368646F672052C5
:1007C00065736574002042726F776E206F757420B8
:1007D0005265736574002045787465726E616C2093
:1007E000526573657400506F77657255700073744D
:1007F000617274002200656E717565696E672022F2
:10080000002200656E717565696E67202200FFFF2A
:10081000FF0000A0400000A0400000004000005287
:10082000430000524300005243000000000000005B
:10083000000000000000005243000052430000523C
:100840004300000000000000000000000065636835
:100850006F3A004572726F723A007C3C3E5E2B3DEF
:100860003F2F5B5D3B2C2A225C0020746F6F206C55
:100870006F6E6720657874727573696F6E20707221
:100880006576656E7465640020636F6C64206578BE
:1008900074727573696F6E2070726576656E7465BB
:1008A00064006563686F3A00656E6473746F70739B
:1008B000206869743A205A00205A3A00656E6473C1
:1008C000746F7073206869743A20590020593A0097
:1008D000656E6473746F7073206869743A20580091
:1008E00020583A00656E6473746F70732068697481
:1008F0003A200024F4D43050C38E20C2A240178284
:100900008B7011127A910D816CD90AA861E108C728
:10091000586607615143061E4B5D05C145A7041A81
:10092000411104093D9803713931034036DB0265FA
:10093000339102D4305402802E1D02632CEE0175D7
:100940002AC501B028A001102781018F2564012B41
:10095000244B01E0223401AC211F018D200D0180C8
:100960001FFC00841EED00971DDF00B81CD200E6BE
:100970001BC600201BBC00641AB200B219A8000AF2
:1009800019A0006A189900D117910040178B00B583
:1009900016840031167E00B31579003A157300C72E
:1009A000146F0058146A00EE136600881363002564
:1009B000135E00C7125B006C12570015125400C181
:1009C00011510070114F0021114B00D61049008DBC
:1009D0001047004610440002104200C00F40008043
:1009E0000F3E00420F3C00060F3B00CB0E38009339
:1009F0000E37005C0E3500270E3400F30D3200C1B7
:100A00000D3100900D3000600D2E00320D2D0005CF
:100A10000D2C00D90C2B00AE0C2900850C29005C94
:100A20000C2700350C27000E0C2600E80B2400C410
:100A30000B2400A00B23007D0B23005A0B2100394F
:100A40000B2100180B2000F80A1F00D90A1E00BB5A
:100A50000A1E009D0A1D00800A1D00630A1C004733
:100A60000A1B002C0A1B00110A1A00F7091A00DDE4
:100A7000091900C4091900AB091900920917007B74
:100A8000091800630917004C0916003609160020E2
:100A90000916000A091500F5081500E0081400CC35
:100AA000081400B8081400A4081400900813007D6E
:100AB0000812006B08130058081200460812003490
:100AC000081100230811001208110001081100F09C
:100AD000071000E0071000D0071000C0071000B09A
:100AE000070F00A107100091070E0083070F007485
:100AF000070F0065070E0057070E0049070E003B61
:100B0000070D002E070E0020070D0013070D00062D
:100B1000070D00F9060C00ED060D00E0060C00D4F0
:100B2000060C00C8060C00BC060C00B0060C00A4A5
:100B3000060B0099060C008D060B0082060B007751
:100B4000060B006C060B0061060A0057060B004CF2
:100B5000060A0042060A0038060A002E060A002489
:100B6000060A001A060A001006090007060A00FD18
:100B7000050900F4050900EB050900E2050900D9A3
:100B8000050900D0050900C7050900BE050900B523
:100B9000050800AD050800A50509009C050800949E
:100BA0000508008C050800840508007C0508007411
:100BB0000508006C050700650508005D050700567F
:100BC0000508004E050700470507004005080038E6
:100BD000050700310507002A050700230507001C4B
:100BE000050600160507000F0507000805060002A8
:100BF000050700FB040600F5040700EE040600E804
:100C0000040600E2040700DB040600D5040600CF5A
:100C1000040600C9040600C3040600BD040600B7AC
:100C2000040600B1040500AC040600A6040600A0FA
:100C30000405009B04060095040500900406008A44
:100C400004050085040500800406007A040500758B
:100C5000040500700405006B0405006604050061CE
:100C60000405005C04050057040500520405004D0E
:100C700004050048040500430405003E0404003A4E
:100C800004050035040500300404002C0405002789
:100C9000040400230405001E0404001A04040016C2
:100CA000040500110404000D0404000904050004F7
:100CB00004040000040400FC030400F8030400F42E
:100CC000030400F0030400EC030400E8030400E460
:100CD000030400E0030400DC030400D8030400D490
:100CE000030400D0030400CC030400C8030300C5C0
:100CF00003030024F404D9201BC40C5C0E9804C424
:100D0000095F0265077101F405F900FB04B30048AF
:100D1000048700C10369005803550003034500BE62
:100D2000023A008402310053022A002902250004FD
:100D3000022000E4011C00C8011900AF011700984F
:100D400001140084011300710110006101100051B1
:100D5000010E0043010D0036010B002B010B00209A
:100D6000010B00150109000C01090003010800FB3B
:100D7000000800F3000800EB000700E4000600DEB6
:100D8000000600D8000600D2000600CC000500C70F
:100D9000000500C2000500BD000400B9000400B554
:100DA000000400B1000400AD000400A9000400A587
:100DB000000300A20003009F0004009B00030098B2
:100DC0000003009500020093000300900003008DD3
:100DD0000002008B000300880002008600020084ED
:100DE000000300810002007F0002007D0002007B02
:100DF0000002007900020077000100760002007412
:100E000000020072000100710002006F0002006D1C
:100E10000001006C0002006A000100690002006726
:100E2000000100660001006500010064000200622C
:100E300000010061000100600001005F0002005D30
:100E40000001005C0001005B0001005A0001005934
:100E50000001005800010057000100560001005534
:100E60000001005400010053000000530001005233
:100E700000010051000100500001004F0001004E30
:100E80000000004E0001004D0001004C0001004B2D
:100E90000000004B0001004A000100490001004829
:100EA0000000004800010047000100460000004625
:100EB000000100450000004500010044000100431E
:100EC0000000004300010042000000420001004118
:100ED00000000041000100400001003F0000003F11
:100EE0000001003E0000003E0001003D0000003D0A
:100EF0000001003C0000003C0000003C0001003B01
:100F00000000003B0001003A0000003A00010039F7
:100F100000000039000100380000003800000038EF
:100F200000010037000000370001003600000036E5
:100F300000000036000100350000003500000035DB
:100F400000010034000000340000003400010033D0
:100F500000000033000000330001003200000032C6
:100F600000000032000100310000003100000031BB
:100F70000001003000000030000000300001002FB0
:100F80000000002F0000002F0000002F0001002EA5
:100F90000000002E0000002E0001002D0000002D9A
:100FA0000000002D0000002D0001002C0000002C8E
:100FB0000000002C0000002C0001002B0000002B82
:100FC0000000002B0000002B0001002A0000002A76
:100FD0000000002A0000002A00010029000000296A
:100FE000000000290000002900000029000100285D
:100FF0000000002800000028000000280000002851
:101000000001002700000027000000270000002743
:101010000000002700010026000000260000002636
:101020000000002600000026000100250000002529
:10103000000000250000002500000025000000251C
:10104000000100240000002400000024000000240F
:101050000000002400010023000000230000002302
:1010600000000023000000230000002300000023F4
:1010700000010022000000220000002200000022E7
:1010800000000022000000220001002100000021D9
:1010900000000021000000210000002100000021CC
:1010A00000000021000100200000002000000020BE
:1010B00000000020000000200000002000000020B0
:1010C000000000200001001F0000001F0000001FA2
:1010D0000000001F0000001F0000001F0000001F94
:1010E0000001001E0000001E0000001E0000001E87
:1010F0000000006563686F3A004572723A204D4106
:101100005854454D50204245440054656D706572F9
:1011100061747572652068656174656420626564D8
:10112000207377697463686564206F66662E204D4E
:10113000415854454D502074726967676572656403
:10114000202121004572723A204D494E54454D50A0
:10115000003A2045787472756465722073776974FB
:1011600063686564206F66662E204D494E54454D78
:10117000502074726967676572656420210045724A
:10118000723A204D415854454D50003A20457874EC
:101190007275646572207377697463686564206F23
:1011A00066662E204D415854454D50207472696733
:1011B000676572656420210048656174696E672007
:1011C0006661696C656400202D20496E76616C69EA
:1011D00064206578747275646572206E756D6265E1
:1011E00072202100504944204175746F74756E65FA
:1011F0002066696E69736865642120507574207477
:101200006865206C617374204B702C204B692061E1
:101210006E64204B6420636F6E7374616E74732010
:1012200066726F6D2061626F766520696E746F20E3
:10123000436F6E66696775726174696F6E2E6800C0
:10124000504944204175746F74756E6520666169FC
:101250006C6564212074696D656F75740020403A77
:10126000006F6B20543A006F6B20423A00504944A3
:10127000204175746F74756E65206661696C656474
:10128000212054656D706572617475726520746F8C
:101290006F206869676800204B643A2000204B6922
:1012A0003A2000204B703A200020436C6173736930
:1012B000632050494420002054753A2000204B758B
:1012C0003A2000206D61783A2000206D696E3A2046
:1012D0000020643A200020626961733A200065634F
:1012E000686F3A004572726F723A00000000003079
:1012F0000E0100C00E0A00500F1400D00F1E006037
:10130000102800E010320070113C00F0114600700F
:1013100012500000135A008013640000146E0090F5
:101320001478001015820090158C0010169600900D
:1013300016A0001017AA009017B4001018BE009055
:1013400018C8001019D2009019DC00101AE60080AD
:101350001AF000001BFA00801B0401F01B0E017044
:101360001C1801F01C2201601D2C01E01D360150EB
:101370001E4001D01E4A01401F5401B01F5E0130C3
:10138000206801A020720110217C019021860100BB
:101390002290016026F401902A5802802EBC02504F
:1013A000322003E03584035039E803803C4C044D7F
:1013B000383420582059205A20450043616E6E6F02
:1013C0007420656E746572207375626469723A2068
:1013D000004D3234004D3233202573006175746F37
:1013E00025692E67006572726F7220777269746961
:1013F0006E6720746F2066696C65004E6F742053B1
:1014000044207072696E74696E67002F0053442027
:101410007072696E74696E67206279746520002E3F
:101420000044656C6574696F6E206661696C656403
:101430002C2046696C653A200046696C652064651D
:101440006C657465643A002E006F70656E2066618D
:10145000696C65642C2046696C653A200057726996
:1014600074696E6720746F2066696C653A20002E7F
:10147000006F70656E206661696C65642C2046693A
:101480006C653A20002E006F70656E206661696C95
:1014900065642C2046696C653A200046696C6520BD
:1014A00073656C6563746564002053697A653A20DE
:1014B0000046696C65206F70656E65643A20002E89
:1014C000006F70656E206661696C65642C204669EA
:1014D0006C653A20004E6F772066726573682066EF
:1014E000696C653A20004E6F7720646F696E6720E3
:1014F00066696C653A20002220706F7300222070AC
:101500006172656E743A2200535542524F555449E8
:101510004E452043414C4C207461726765743A22F9
:1015200000747279696E6720746F2063616C6C203F
:101530007375622D67636F64652066696C657320DF
:101540007769746820746F6F206D616E79206C65A7
:1015500076656C732E204D4158206C6576656C2045
:1015600069733A0053442063617264206F6B006FAB
:1015700070656E526F6F74206661696C6564007689
:101580006F6C756D652E696E6974206661696C6536
:101590006400534420696E6974206661696C00655B
:1015A00063686F3A004572726F723A004861726404
:1015B000636F6465642044656661756C742053656F
:1015C0007474696E6773204C6F6164656400537452
:1015D0006F7265642073657474696E6773207265D9
:1015E00074726965766564002044002049002020FB
:1015F000204D3330312050005049442073657474BD
:10160000696E67733A00205A0020590020204D323D
:101610003036205800486F6D65206F6666736574BC
:1016200020286D6D293A00204500205A00205800DE
:1016300020420020540020204D32303520530041FC
:101640006476616E636564207661726961626C655F
:10165000733A20533D4D696E20666565647261740E
:101660006520286D6D2F73292C20543D4D696E2007
:1016700074726176656C206665656472617465205C
:10168000286D6D2F73292C20423D6D696E696D7533
:101690006D207365676D656E742074696D652028B3
:1016A0006D73292C20583D6D6178696D756D2058DA
:1016B00059206A65726B20286D6D2F73292C2020AC
:1016C0005A3D6D6178696D756D205A206A65726B3F
:1016D00020286D6D2F73292C2020453D6D61786980
:1016E0006D756D2045206A65726B20286D6D2F73B6
:1016F000290020540020204D323034205300416313
:1017000063656C65726174696F6E3A20533D616305
:1017100063656C65726174696F6E2C20543D7265EF
:10172000747261637420616363656C65726174696E
:101730006F6E00204500205A0020590020204D32B5
:1017400030312058004D6178696D756D20416363BB
:10175000656C65726174696F6E20286D6D2F7332D0
:10176000293A00204500205A0020590020204D32FF
:1017700030332058004D6178696D756D2066656560
:1017800064726174657320286D6D2F73293A00208F
:101790004500205A0020590020204D3932205800A1
:1017A00053746570732070657220756E69743A00A9
:1017B00053657474696E67732053746F7265640047
:1017C0006563686F3A0002436172642072656D6FF1
:1017D000766564004361726420696E736572746536
:1017E00064002D2D3A2D2D002D2D2D005344000188
:1017F00020000120000120004D3630300043686198
:101800006E67652066696C616D656E7400466C6F0D
:1018100077203100466C6F77203100466C6F77205F
:101820003000466C6F7720300046616E2073706523
:1018300065640046616E207370656564004265648E
:1018400000426564004E6F7A7A6C6532004E6F7AA2
:101850007A6C6532004E6F7A7A6C65004E6F7A7AD8
:101860006C65005370656564005370656564004D78
:1018700061696E004D3834205830205930004732AD
:1018800038005A005072656865617420504C4120E0
:10189000426564005072656865617420504C412057
:1018A000416C6C005072656865617420504C412039
:1018B00032005072656865617420504C41203100DF
:1018C0005072657061726500507265686561742060
:1018D000414253204265640050726568656174201E
:1018E00041425320416C6C00507265686561742000
:1018F0004142532032005072656865617420414254
:1019000053203100507265706172650058005900B3
:101910005A00457874727564657200457874727502
:10192000646572004D6F7665205A004D6F766520B4
:1019300059004D6F76652058004D6F7665206178AF
:101940006973004D6F766520302E316D6D004D6FDF
:10195000766520316D6D004D6F76652031306D6D8F
:101960000050726570617265004D6F766520617818
:10197000697300436F6F6C646F776E0050726568B7
:10198000656174204142530050726568656174203E
:10199000504C41004D6F7665205A004175746F20A0
:1019A000686F6D65004D38340044697361626C6521
:1019B000207374657070657273004D61696E0053B9
:1019C000746F7265206D656D6F7279004265640099
:1019D000426564004E6F7A7A6C65004E6F7A7A6C5D
:1019E000650046616E2073706565640046616E2017
:1019F00073706565640054656D70657261747572AD
:101A0000650053746F7265206D656D6F7279004269
:101A1000656400426564004E6F7A7A6C65004E6FB3
:101A20007A7A6C650046616E207370656564004665
:101A3000616E2073706565640054656D70657261D8
:101A40007475726500507265686561742041425317
:101A500020636F6E66005072656865617420504C3B
:101A60004120636F6E66005049442D430050494445
:101A70002D43005049442D44005049442D4400500A
:101A800049442D49005049442D49005049442D50A6
:101A9000005049442D500046616E207370656564A6
:101AA0000046616E207370656564004265640042A3
:101AB0006564004E6F7A7A6C6532004E6F7A7A6C8C
:101AC0006532004E6F7A7A6C65004E6F7A7A6C657B
:101AD00000436F6E74726F6C004573746570732F82
:101AE0006D6D004573746570732F6D6D005A73745E
:101AF0006570732F6D6D005A73746570732F6D6D03
:101B0000005973746570732F6D6D0059737465702F
:101B1000732F6D6D005873746570732F6D6D005861
:101B200073746570732F6D6D00412D7265747261F1
:101B3000637400412D7265747261637400416D615C
:101B400078206500416D6178206500416D617820E5
:101B50007A00416D6178207A00416D6178207900CA
:101B6000416D6178207900416D6178207800416D88
:101B700061782078005654726176206D696E005647
:101B800054726176206D696E00566D696E00566DF7
:101B9000696E00566D6178206500566D617820652C
:101BA00000566D6178207A00566D6178207A005673
:101BB0006D6178207900566D6178207900566D61ED
:101BC00078207800566D617820780056652D6A651A
:101BD000726B0056652D6A65726B00567A2D6A65C8
:101BE000726B00567A2D6A65726B005678792D6A91
:101BF00065726B005678792D6A65726B004163637C
:101C0000656C00416363656C00436F6E74726F6C4A
:101C10000046656220313920323031352030393A82
:101C200035393A3134003131353230305F647561E5
:101C30006C5F484200556C74696D616B65723A5F08
:101C400031352E30322E31004669726D7761726502
:101C50002076657273696F6E004669726D77617286
:101C6000652076657273696F6E00526573746F726A
:101C700065206661696C73616665004C6F61642004
:101C80006D656D6F72790053746F7265206D656D4F
:101C90006F7279004D6F74696F6E0054656D706579
:101CA000726174757265004D61696E004D38342043
:101CB000582059205A2045004D3234004D323320EF
:101CC000257300052E2E004D61696E004E6F205366
:101CD000442063617264005072696E742066726F92
:101CE0006D2053440053746F70207072696E7400DD
:101CF000526573756D65207072696E740050617500
:101D00007365207072696E7400436F6E74726F6CCD
:101D100000507265706172650054756E6500496EA1
:101D2000666F2073637265656E004E414E494E4981
:101D30005459494E46CDCCCC3D0AD7233C17B7D198
:101D40003877CC2B329595E6241FB14F0A0000203E
:101D5000410000C84200401C4620BCBE4CCA1B0EBD
:101D60005AAEC59D74000C9480200C9411110C94F3
:101D700079460C94D9100C94FAB50C9441720C94D9
:101D800022980C94E0B80C943E110C944CB50C9431
:101D9000EB710C94F3100C94A6B70C94FD100C94FA
:101DA00086BB0C94E3100C9448110C94A2130C9471
:101DB000AA110C94C65C0C9452110C9481110C94D1
:101DC000978F0C94AC9B0C946B200C94098E0C9404
:101DD000C5100C9497110C94B3BB0C9449720C94DD
:101DE00093110C9477110C9460200C9455200C9452
:101DF0009EB40C94F9A80C949D110C9434A20C94EC
:101E0000ED8D0C9470110C945EA00C94FA710C94EE
:101E1000E7990C9466110C9423720C948F110C9416
:101E20003DB80C94C3AF0C9407110C9483B90C9477
:101E300036C00C94A5110C9426B70C94F8380C9469
:101E40000AA40C943D720C947B110C946A110C94AE
:101E5000FB8D0C94D4B30C94CA100C94CE8A0C94C1
:101E6000FC380C9465900C9473110C94C0710C9414
:101E7000EB100C9485110C9476200C9489110C9421
:101E8000AB8F0C94A1110C9433930C942A110C94E5
:101E9000CF100C94CEBA0C94A8B60C9414720C9477
:101EA00034110C9426BA0C9420110C94348C0C949C
:101EB00021B40C94CD950C94CF71F838D4B3FC3880
:101EC00011241FBECFEFD1E2DEBFCDBF00E00CBFBB
:101ED00014E0A0E0B2E0EEE6F7E901E00BBF02C0DB
:101EE00007900D92A43BB107D9F712E1A4EBB4E03F
:101EF00001C01D92A23CB107E1F71EE1CEEBDEE18D
:101F000000E006C022970109FE010BBF0E945FC5D9
:101F1000CA3BD10780E00807A9F70E943CC00C9497
:101F2000A5CB0C9400001F920F920FB60F921124B4
:101F30002F933F938F939F93AF93BF938091B5045B
:101F40009091B604A091B704B091B8043091B40454
:101F500023E0230F2D3720F40196A11DB11D05C0EC
:101F600026E8230F0296A11DB11D2093B40480938F
:101F7000B5049093B604A093B704B093B8048091CD
:101F8000B9049091BA04A091BB04B091BC0401962D
:101F9000A11DB11D8093B9049093BA04A093BB0412
:101FA000B093BC04BF91AF919F918F913F912F91BE
:101FB0000F900FBE0F901F9018952FB7F894609157
:101FC000B5047091B6048091B7049091B8042FBF06
:101FD00008953FB7F8948091B9049091BA04A09104
:101FE000BB04B091BC0426B5A89B05C02F3F19F0D7
:101FF0000196A11DB11D3FBF6627782F892F9A2F0B
:10200000620F711D811D911D42E0660F771F881FB1
:10201000991F4A95D1F70895CF92DF92EF92FF92E0
:10202000CF93DF936B017C010E94E90FEB01C11498
:10203000D104E104F10479F00E94E90F6C1B7D0BDF
:10204000683E7340A0F381E0C81AD108E108F108A6
:10205000C851DC4FECCFDF91CF91FF90EF90DF9034
:10206000CF9008950197009739F0880F991F880F36
:10207000991F02970197F1F70895789484B58260CB
:1020800084BD84B5816084BD85B5826085BD85B51C
:10209000816085BDEEE6F0E0808181608083E1E8CB
:1020A000F0E0108280818260808380818160808303
:1020B000E0E8F0E0808181608083E1EBF0E0808106
:1020C00084608083E0EBF0E0808181608083E1E9DF
:1020D000F0E0808182608083808181608083E0E99C
:1020E000F0E0808181608083E1EAF0E080818260BD
:1020F0008083808181608083E0EAF0E0808181607C
:102100008083E1E2F1E08081826080838081816070
:102110008083E0E2F1E0808181608083EAE7F0E0A3
:1021200080818460808380818260808380818160FF
:1021300080838081806880831092C10008951F93FE
:10214000CF93DF93182FEB0161E00E94AB11209732
:1021500011F460E004C0CF3FD10539F461E0812F74
:10216000DF91CF911F910C94E411E12FF0E0E35641
:10217000FE4F449150E0FA013197E131F10508F04A
:1021800091C0EE58FF4F0C944AC584B5806884BD59
:10219000C7BD8DC084B5806284BDC8BD88C0809134
:1021A0008000806880938000D0938900C09388006D
:1021B0007EC080918000806280938000D0938B00ED
:1021C000C0938A0074C08091B00080688093B00092
:1021D000C093B3006CC08091B00080628093B00067
:1021E000C093B40064C08091900080688093900098
:1021F000D0939900C09398005AC08091900080625B
:1022000080939000D0939B00C0939A0050C080911F
:102210009000886080939000D0939D00C0939C00B4
:1022200046C08091A00080688093A0008091A000AB
:102230008F7B8093A000D093A900C093A80037C0E3
:102240008091A00080628093A000D093AB00C093E7
:10225000AA002DC08091A00088608093A000D09338
:10226000AD00C093AC0023C08091200180688093B2
:102270002001D0932901C093280119C08091200129
:10228000806280932001D0932B01C0932A010FC05C
:1022900080912001886080932001D0932D01C0930C
:1022A0002C0105C0C038D1050CF058CF52CFDF91BA
:1022B000CF911F91089590E0FC013197E131F10534
:1022C00008F048C0ED57FF4F0C944AC5809180003C
:1022D0008F7703C0809180008F7D80938000089568
:1022E00084B58F7702C084B58F7D84BD08958091B9
:1022F000B0008F7703C08091B0008F7D8093B000D5
:102300000895809190008F7707C0809190008F7D15
:1023100003C080919000877F809390000895809102
:10232000A0008F7707C08091A0008F7D03C08091AF
:10233000A000877F8093A0000895809120018F776F
:1023400007C0809120018F7D03C080912001877F8D
:10235000809320010895CF93DF9390E0FC01ED512D
:10236000FE4F2491FC01E75DFD4F8491882349F1E4
:1023700090E0880F991FFC01E757FD4FA591B4919C
:1023800081599D4FFC01C591D4919FB7611108C03F
:10239000F8948C91209582238C93888182230AC0A3
:1023A000623051F4F8948C91322F309583238C93C2
:1023B0008881822B888304C0F8948C91822B8C9323
:1023C0009FBFDF91CF9108950F931F93CF93DF931A
:1023D0001F92CDB7DEB7282F30E0F901E356FE4F4C
:1023E0008491F901ED51FE4F1491F901E75DFD4F24
:1023F00004910023C9F0882321F069830E945B11B6
:102400006981E02FF0E0EE0FFF1FE159FD4FA5912C
:10241000B4919FB7F8948C91611103C010958123FA
:1024200001C0812B8C939FBF0F90DF91CF911F91A3
:102430000F9108951F920F920FB60F9211240BB6B1
:102440000F922F933F934F935F936F937F938F934D
:102450009F93AF93BF93EF93FF938091C1049091AB
:10246000C204892B29F0E091C104F091C2041995AE
:10247000FF91EF91BF91AF919F918F917F916F915C
:102480005F914F913F912F910F900BBE0F900FBE18
:102490000F901F9018951F920F920FB60F92112454
:1024A0000BB60F922F933F934F935F936F937F934E
:1024B0008F939F93AF93BF93EF93FF938091C30448
:1024C0009091C404892B29F0E091C304F091C404D5
:1024D0001995FF91EF91BF91AF919F918F917F914E
:1024E0006F915F914F913F912F910F900BBE0F9085
:1024F0000FBE0F901F9018951F920F920FB60F925C
:1025000011240BB60F922F933F934F935F936F93CA
:102510007F938F939F93AF93BF93EF93FF9380919C
:10252000C5049091C604892B29F0E091C504F0916F
:10253000C6041995FF91EF91BF91AF919F918F9133
:102540007F916F915F914F913F912F910F900BBEB3
:102550000F900FBE0F901F9018951F920F920FB6FD
:102560000F9211240BB60F922F933F934F935F93CB
:102570006F937F938F939F93AF93BF93EF93FF934B
:102580008091C7049091C804892B29F0E091C70479
:10259000F091C8041995FF91EF91BF91AF919F9170
:1025A0008F917F916F915F914F913F912F910F90FC
:1025B0000BBE0F900FBE0F901F9018951F920F9299
:1025C0000FB60F9211240BB60F922F933F934F9398
:1025D0005F936F937F938F939F93AF93BF93EF938B
:1025E000FF938091BD049091BE04892B29F0E09166
:1025F000BD04F091BE041995FF91EF91BF91AF9189
:102600009F918F917F916F915F914F913F912F910A
:102610000F900BBE0F900FBE0F901F9018951F923A
:102620000F920FB60F9211240BB60F922F933F9378
:102630004F935F936F937F938F939F93AF93BF93CA
:10264000EF93FF938091BF049091C004892B29F0F0
:10265000E091BF04F091C0041995FF91EF91BF91F3
:10266000AF919F918F917F916F915F914F913F912A
:102670002F910F900BBE0F900FBE0F901F901895CB
:102680001F920F920FB60F9211240BB60F922F9339
:102690003F934F935F936F937F938F939F93AF93EA
:1026A000BF93EF93FF938091C9049091CA04892B43
:1026B00029F0E091C904F091CA041995FF91EF91B6
:1026C000BF91AF919F918F917F916F915F914F914A
:1026D0003F912F910F900BBE0F900FBE0F901F9048
:1026E00018951F920F920FB60F9211240BB60F92EE
:1026F0002F933F934F935F936F937F938F939F930A
:10270000AF93BF93EF93FF938091CB049091CC0450
:10271000892B29F0E091CB04F091CC041995FF911D
:10272000EF91BF91AF919F918F917F916F915F9149
:102730004F913F912F910F900BBE0F900FBE0F90B6
:102740001F901895CF92DF92EF92FF920F931F93F5
:10275000CF93DF936C017A01EB01E60EF71E00E0E8
:1027600010E0CE15DF0561F06991D601ED91FC9185
:102770000190F081E02DC6011995080F191FF1CFC6
:10278000C801DF91CF911F910F91FF90EF90DF90E3
:10279000CF9008956115710581F0DB010D90002047
:1027A000E9F7AD0141505109461B570BDC01ED9192
:1027B000FC910280F381E02D199480E090E008956F
:1027C0000C94CA13DC01ED91FC910190F081E02D95
:1027D0001994FC0165917591859194910895CF921A
:1027E000DF92EF92FF920F931F93CF93DF93EC0151
:1027F000CC0FDD1FCC0FDD1FCE01875D974F0E94F0
:10280000E913FE01E853F94FC080D180E280F380E4
:102810008E010C52194FA70196010E944AC0F8017F
:102820006083718382839383CE018F5B974F0E9475
:10283000E9138E010454194FA70196010E944AC062
:10284000F8016083718382839383CE018B5C974F01
:102850000E94E913CB5EDD4FA70196010E944AC09A
:10286000688379838A839B83DF91CF911F910F9136
:10287000FF90EF90DF90CF9008952F923F924F926C
:102880005F926F927F928F929F92AF92BF92CF9200
:10289000DF92EF92FF920F931F93CF93DF9300D0BD
:1028A00000D0CDB7DEB79A838983FC01E25FF74F92
:1028B00094905C01AA0CBB1CAA0CBB1CC5018C52D9
:1028C000994F1C01DC011D921D921D921C921397C1
:1028D00020EE36E04CED56E068ED76E084ED96E0D3
:1028E0000E94F45BC501835E974F0E94E9136B0160
:1028F0007C01692D772767FD7095872F972F0E94A0
:10290000C5C12B013C01F501EE56F94FFC83EB8369
:1029100020E030E040EC5FE3C701B6010E94F8C35D
:10292000A30192010E94F8C3AB81BC816D937D939A
:102930008D939C931397F501EF5CFD4FFE83ED8320
:10294000608171818281938160930F027093100284
:10295000809311029093120220E030E040E752E4AD
:102960000E942AC124EAC22E26E0D22E7B018C01CD
:102970002EE936E04AE956E066E976E082E996E03B
:102980000E944A520E949B65D1011D921D921D9288
:102990001C92139720EE36E04CED56E068ED76E0A1
:1029A00084ED96E00E94F45BC5018F5E974F0E9414
:1029B000E9134B015C019058A30192010E94F8C3F6
:1029C000EB81FC81608371838283938320E030E01C
:1029D00040E752E460910F02709110028091110261
:1029E000909112020E942AC17B018C012EE936E0EF
:1029F0004AE956E066E976E082E996E00E944A52AA
:102A00000E949B65A5019401C501B4010E944AC0C2
:102A1000A30192010E94F8C3AB81BC816D937D93A9
:102A20008D939C93139720E030E040E05FE3ED81CD
:102A3000FE8160817181828193810E94F8C36093DD
:102A40000F0270931002809311029093120220E003
:102A500030E040E752E40E942AC17B018C012EE95C
:102A600036E04AE956E066E976E082E996E00E94BF
:102A70004A520E949B6589819A810E94EF13F1015D
:102A800080819181A281B381EB81FC8180839183DC
:102A9000A283B38310920F021092100210921102BF
:102AA000109212020E94A95DE981FA81E754F94F60
:102AB00081E0808326960FB6F894DEBF0FBECDBFAF
:102AC000DF91CF911F910F91FF90EF90DF90CF900A
:102AD000BF90AF909F908F907F906F905F904F903E
:102AE0003F902F900895FC012491222341F03091D2
:102AF000C00035FFFCCF2093C6000196F4CF22E042
:102B000030E087E799E00C94313BFC0124912223CB
:102B100041F03091C00035FFFCCF2093C6000196F4
:102B2000F4CF2AE030E087E799E00C94803ACF9325
:102B3000DF931F921F92CDB7DEB78091BC129091A8
:102B4000BD129E012F5F3F4F009719F4225C324166
:102B500002C0281B390B3A83298389819A810F90FF
:102B60000F90DF91CF9108952091E7043091E80410
:102B7000243031050CF06AC04091E9045091EA0418
:102B800060E6649F9001659F300D1124BC01C9016E
:102B90008F509B4F0E9498C8EDE4F8E08491882301
:102BA00041F09091C00095FFFCCF8093C600319614
:102BB000F5CFE3E0F8E08491882341F09091C000E4
:102BC00095FFFCCF8093C6003196F5CF8091E90444
:102BD0009091EA0420E6289FF001299FF00D11242E
:102BE000EF50FB4F8191882339F09091C00095FF01
:102BF000FCCF8093C600F6CFE1E0F8E08491882313
:102C000041F09091C00095FFFCCF8093C6003196B3
:102C1000F5CF8091C00085FFFCCF8AE08093C6008D
:102C20008091E9049091EA04019664E070E00E94CA
:102C3000F5C49093EA048093E9048091E7049091AD
:102C4000E80401969093E8048093E70408952091A6
:102C5000E7043091E804243031050CF06AC040915B
:102C6000E9045091EA0460E6649F9001659F300D8D
:102C70001124BC01C9018F509B4F0E9424C8EDE470
:102C8000F8E08491882341F09091C00095FFFCCF3B
:102C90008093C6003196F5CFE6EFF7E08491882364
:102CA00041F09091C00095FFFCCF8093C600319613
:102CB000F5CF8091E9049091EA0420E6289FF00185
:102CC000299FF00D1124EF50FB4F8191882339F09B
:102CD0009091C00095FFFCCF8093C600F6CFE4EF43
:102CE000F7E08491882341F09091C00095FFFCCFDC
:102CF0008093C6003196F5CF8091C00085FFFCCF50
:102D00008AE08093C6008091E9049091EA040196DC
:102D100064E070E00E94F5C49093EA048093E904B3
:102D20008091E7049091E80401969093E8048093E1
:102D3000E7040895809A889A0895809A889808955B
:102D40000E949A1640E052EC61E070E087E799E05B
:102D50000E943939EEEEF7E08491882341F090919A
:102D6000C00095FFFCCF8093C6003196F5CF8091CF
:102D7000C00085FFFCCF8AE08093C6008DE498E018
:102D8000FC012491222341F03091C00035FFFCCF9B
:102D90002093C6003196F5CF24B720FF14C0E6EE8D
:102DA000F7E03491332341F04091C00045FFFCCF60
:102DB0003093C6003196F5CF3091C00035FFFCCF7F
:102DC0003AE03093C60021FF14C0E6EDF7E03491FD
:102DD000332341F04091C00045FFFCCF3093C60043
:102DE0003196F5CF3091C00035FFFCCF3AE03093FB
:102DF000C60022FF14C0E5ECF7E03491332341F024
:102E00004091C00045FFFCCF3093C6003196F5CF0E
:102E10003091C00035FFFCCF3AE03093C60023FF6D
:102E200014C0E5EBF7E03491332341F04091C0004A
:102E300045FFFCCF3093C6003196F5CF3091C000EE
:102E400035FFFCCF3AE03093C60025FF14C0E5EA19
:102E5000F7E02491222341F03091C00035FFFCCFF0
:102E60002093C6003196F5CF2091C00025FFFCCFFE
:102E70002AE02093C60014BEEEE9F7E02491222355
:102E800041F03091C00035FFFCCF2093C600319651
:102E9000F5CFE8E9F7E02491222341F03091C0001A
:102EA00035FFFCCF2093C6003196F5CF2091C000AE
:102EB00025FFFCCF2AE02093C600FC012491EDE41D
:102EC000F8E0222349F03091C00035FFFCCF209379
:102ED000C60031962491F5CFE8E8F7E0249122234B
:102EE00041F03091C00035FFFCCF2093C6003196F1
:102EF000F5CFE3E7F7E02491222341F03091C000C1
:102F000035FFFCCF2093C6003196F5CFE7E6F7E01A
:102F10002491222341F03091C00035FFFCCF209353
:102F2000C6003196F5CFE9E5F7E02491222341F080
:102F30003091C00035FFFCCF2093C6003196F5CF0D
:102F40002091C00025FFFCCF2AE02093C600EEE4CC
:102F5000F7E02491222341F03091C00035FFFCCFEF
:102F60002093C6003196F5CFE2E4F7E024912223C6
:102F700041F03091C00035FFFCCF2093C600319660
:102F8000F5CF2091C00025FFFCCF2AE02093C6009A
:102F9000FC018491EDE4F8E0882349F09091C000B1
:102FA00095FFFCCF8093C60031968491F5CFE3E383
:102FB000F7E08491882341F09091C00095FFFCCF09
:102FC0008093C6003196F5CF0E9497154AE050E0F5
:102FD000BC0187E799E00E94513AECE1F7E0849167
:102FE000882341F09091C00095FFFCCF8093C600EC
:102FF0003196F5CF4AE050E060ED74E087E799E064
:103000000E94513A8091C00085FFFCCF8AE08093F6
:10301000C6001092ED041092EE041092EF0410928C
:10302000F0040E9430840E94E86A0E94FA510E94D3
:103030002F850E9411650E944E9EFFEF23ED80E3D5
:10304000F15020408040E1F700C0000008958091D9
:10305000E1049091E20460E070E001960C9463C595
:103060008091E1049091E2044AE050E060E070E079
:1030700001960C94E0C6682F70E02091EB0430912B
:10308000EC0440E6429FC001439F900D11248F50F5
:103090009B4F0E948DC89093E2048093E10421E04D
:1030A000892B09F420E0822F08950E94DD0F6093A0
:1030B000DD047093DE048093DF049093E0040895B0
:1030C0000E94DD0F6093DD047093DE048093DF04C3
:1030D0009093E004E091EB04F091EC04E351FB4F9A
:1030E0008081811114C0EBE4F3E08491882341F0E6
:1030F0009091C00095FFFCCF8093C6003196F5CF2C
:103100008091C00085FFFCCF8AE08093C6000895BF
:1031100087E799E00E948B39EEE4F3E084918823FD
:1031200041F09091C00095FFFCCF8093C60031968E
:10313000F5CF4091760650917706609178067091B0
:1031400079064F5F5F4F6F4F7F4F2AE030E087E790
:1031500099E00E942A3A8091C00085FFFCCF8AE066
:103160008093C6000C9460182F923F924F925F920A
:103170006F927F928F929F92AF92BF92CF92DF9287
:10318000EF92FF920F931F93CF93DF93CDB7DEB7EC
:103190006F970FB6F894DEBF0FBECDBF60E6D62E98
:1031A00074E0E72EF12CEFEDF5E0B490EAE0CE2EDE
:1031B000E5E5F6E0A490992493948091F809909124
:1031C000F9092091FA093091FB09821B930B8F7743
:1031D0009927892B39F08091E7049091E8040497AE
:1031E0000CF44DC08091EC06882309F48CC38091C7
:1031F000E4049091E504892B09F085C38091E704EC
:103200009091E804892B11F41092CD04E2ECF5E0E2
:1032100024904CE3C42ED12CE12CF12C50E1452E0E
:103220005EE0552E612C712C8E010F5F1F4F30E632
:10323000332EEDE4F8E094919F8F40916D09509109
:103240006E0960916F097091700980916509909184
:103250006609A0916709B0916809481759076A077C
:103260007B0708F050C38091E7049091E80404972D
:103270000CF049C38091CD04811145C321C287E779
:1032800099E00E946F398093E6042091E404309124
:10329000E5048A3061F08D3051F08A3321F4909149
:1032A000E304992321F02F3531050CF48DC121154C
:1032B000310509F4A7C18091E9049091EA04D89EF0
:1032C0008001D99E100D1124F801E20FF31FEF5079
:1032D000FB4F10822091E304211171C11092E3048D
:1032E000FC01E351FB4F108298012F503B4F3901F5
:1032F0006EE470E0C9010E948DC8009709F4A2C075
:103300009093E2048093E10486199709800F911F3E
:103310004AE050E060E070E08E509B4F0E94E0C6B3
:1033200060937A0670937B0680937C0690937D066B
:1033300040907606509077066090780670907906F7
:103340003FEF431A530A630A730A0091E90410918C
:10335000EA04641575058605970509F456C1D09EE3
:10336000C001D19E900D11246EEF76E08F509B4FDF
:103370000E9452C8892B09F048C1E3E5F8E0849126
:10338000882341F09091C00095FFFCCF8093C60048
:103390003196F5CFEBECF6E08491882341F09091E3
:1033A000C00095FFFCCF8093C6003196F5CF4091C9
:1033B00076065091770660917806709179062AE03A
:1033C00030E087E799E00E942A3A8091C00085FFAB
:1033D000FCCF32C09093E2048093E10484199509F4
:1033E000860D971D60E070E08E509B4F0E9463C574
:1033F0000E9492C1212F30E02617370709F45EC0E2
:10340000E3E5F8E0849181114BC1ECEAF6E08491A8
:1034100081114EC1409176065091770660917806F1
:10342000709179062AE030E087E799E00E942A3A15
:103430008091C00085FFFCCF8AE08093C6000E9487
:10344000881837C06AE270E0C3010E948DC8892BDA
:1034500009F444C0E3E5F8E08491882341F09091B9
:10346000C00095FFFCCF8093C6003196F5CFE8E50C
:10347000F6E08491882341F09091C00095FFFCCF45
:103480008093C6003196F5CF40917606509177062D
:1034900060917806709179062AE030E087E799E03C
:1034A0000E942A3A8091C00085FFFCCF8AE0809379
:1034B000C6001092E5041092E40425C280917A06B9
:1034C00090917B06A0917C06B0917D068093760654
:1034D00090937706A0937806B09379068091E904DB
:1034E0009091EA04D89E8001D99E100D1124C80144
:1034F0008F509B4F3C0167E470E00E948DC800979D
:1035000009F448C09093E2048093E1048619970976
:10351000800F911F60E070E08E509B4F0E9463C54A
:103520000E9492C164307105A8F58091CF04811189
:1035300019C08091EA0681112DC08A2DE5E5F6E0DB
:10354000882349F09091C00095FFFCCF8093C6007E
:1035500031968491F5CF8091C00085FFFCCFC09259
:10356000C60018C08B2DEFEDF5E0882349F090914F
:10357000C00095FFFCCF8093C60031968491F5CFB3
:103580008091C00085FFFCCFC092C60085ED95E01C
:103590000E94DB9D8091E9049091EA040196B701B5
:1035A0000E94F5C49093EA048093E9048091E704B3
:1035B0009091E80401969093E8048093E7041092B8
:1035C000E5041092E404F9CD8B3311F49092E304F6
:1035D0009091E3049111F1CD4091E9045091EA04F6
:1035E000B9016F5F7F4F7093E5046093E404D49E4C
:1035F000F001D59EF00D1124E20FF31FEF50FB4FA9
:103600008083DBCD1092E3047EC1D09E3001D19E39
:10361000700C112493012F503B4F29016AE270E096
:10362000C9010E948DC8009769F5E3E5F8E084912F
:10363000882341F09091C00095FFFCCF8093C60095
:103640003196F5CFE2E8F6E08491882341F090913D
:10365000C00095FFFCCF8093C6003196F5CF409116
:1036600076065091770660917806709179062AE087
:1036700030E087E799E00E942A3A8091C00085FFF8
:10368000FCCFDACE20E010E0F301E20FF11DEF50A5
:10369000FB4F30813A3209F49DCE2F5F1327F4CFD0
:1036A0009091C00095FFFCCF8093C6003196AACEC2
:1036B0009091C00095FFFCCF8093C6003196A7CEB5
:1036C0008091C0089091C108A091C208B091C30830
:1036D00080936D0990936E09A0936F09B093700960
:1036E00088EB98E00E942140482F8093E6048A30BE
:1036F000B9F04D30A9F0433229F42091E30422239C
:1037000079F002C04A33C9F32091E4043091E50412
:103710002F3531052CF48F3FAFEF9A0709F0D4C055
:1037200040916D0950916E0960916F097091700917
:103730008091650990916609A0916709B091680927
:10374000481759076A077B0708F482C0822DE2EC0C
:10375000F5E0882349F09091C00095FFFCCF80935D
:10376000C60031968491F5CF8091C00085FFFCCFD3
:103770008AE08093C6000E94DD0F6093D1047093AD
:10378000D2048093D3049093D4048090D504909075
:10379000D604A090D704B090D804681979098A0992
:1037A0009B0928EE33E040E050E00E9409C5490142
:1037B0005A01CA01B901A70196010E9409C5CA01AF
:1037C000B901A70196010E9409C57F936F93C501B6
:1037D000B401A30192010E9409C53F932F93AEEA61
:1037E000B5E0BF93AF931F930F930E94BCC88F8D1A
:1037F0000FB6F894DEBF0FBECDBFEDE4F8E088232E
:1038000049F09091C00095FFFCCF8093C60031969F
:103810008491F5CFF8018191882339F09091C0000F
:1038200095FFFCCF8093C600F6CF8091C00085FF46
:10383000FCCF8AE08093C600C8010E94CC9D8AEE2E
:1038400096E00E944E7E61E08AEE96E00E94B17B97
:103850008091E604833219F481E08093CD042091B5
:10386000E4043091E5042115310509F4CBCE8091B3
:10387000E9049091EA04389EF001399EF00D11247C
:10388000E20FF31FEF50FB4F1082FC01E351FB4F9F
:1038900021E020832091E7043091E8042F5F3F4F1F
:1038A0003093E8042093E704019664E070E00E94FE
:1038B000F5C49093EA048093E9041092E304109213
:1038C000E5041092E404B9CC4B3319F441E0409381
:1038D000E3044091E3044111AACC4091E9045091E2
:1038E000EA04B9016F5F7F4F7093E5046093E404CD
:1038F000349EF001359EF00D1124E20FF31FEF50BE
:10390000FB4F80839ACC6F960FB6F894DEBF0FBE44
:10391000CDBFDF91CF911F910F91FF90EF90DF907E
:10392000CF90BF90AF909F908F907F906F905F905F
:103930004F903F902F9008958F929F92AF92BF9299
:10394000CF92DF92EF92FF920F931F93CF93DF936B
:10395000F5E2EF2EF4E0FF2E04ED16E0C2E9D6E02A
:10396000A6EECA2EA6E0DA2EF70181917F010E9411
:103970003B18882319F10E9427184B015C01F601BE
:103980008081811103C06091710601C061E070E027
:1039900080E090E00E94C5C1F80120813181428120
:1039A00053810E94F8C39B01AC01C501B4010E9480
:1039B0004AC0688379838A839B8309C0F801808128
:1039C0009181A281B38188839983AA83BB830C5F91
:1039D0001F4F2496FFEFCF1ADF0A89E2E81684E032
:1039E000F80611F686E40E943B188823D9F00E945D
:1039F00027186B017C016093820670938306809385
:103A000084069093850620E030E0A9010E9426C339
:103A1000181644F4C0920F02D0921002E0921102E4
:103A2000F0921202DF91CF911F910F91FF90EF90D2
:103A3000DF90CF90BF90AF909F908F9008950E949D
:103A40009C1C89E40E943B18882359F00E94271887
:103A50006093860670938706809388069093890604
:103A600008C010928606109287061092880610925F
:103A700089068AE40E943B18882359F00E9427187F
:103A800060938A0670938B0680938C0690938D06C4
:103A9000089510928A0610928B0610928C0610924E
:103AA0008D060895CF92DF92EF92FF92CF93DF932E
:103AB000EC01C090BC06D090BD06E090BE06F09030
:103AC000BF06A7019601688179818A819B810E9446
:103AD00023C187FF04C0C882D982EA82FB82C090DA
:103AE000C006D090C106E090C206F090C306A701C0
:103AF00096016C817D818E819F810E9423C187FF09
:103B000004C0CC82DD82EE82FF82C090C406D090D9
:103B1000C506E090C606F090C706A7019601688525
:103B200079858A859B850E9423C187FF04C0C8864A
:103B3000D986EA86FB86C0901502D0901602E090E6
:103B40001702F0901802A7019601688179818A8195
:103B50009B810E9426C3181624F4C882D982EA8267
:103B6000FB82C0901902D0901A02E0901B02F090E4
:103B70001C02A70196016C817D818E819F810E942C
:103B800026C3181624F4CC82DD82EE82FF82C09018
:103B90001D02D0901E02E0901F02F0902002A701AB
:103BA0009601688579858A859B850E9426C31816AB
:103BB00024F4C886D986EA86FB86DF91CF91FF90F0
:103BC000EF90DF90CF900895CF92DF92EF92FF9227
:103BD0000F931F9382E996E00E94521D0E94DD0F11
:103BE0006093DD047093DE048093DF049093E0041F
:103BF000209192063091930640919406509195063B
:103C00006091D4067091D5068091D6069091D70622
:103C10000E9423C1811179C02091960630919706A8
:103C200040919806509199066091D8067091D906F6
:103C30008091DA069091DB060E9423C1811165C054
:103C400020E030E040E752E460910F0270911002F2
:103C500080911102909112020E942AC1B4EACB2EE7
:103C6000B6E0DB2E7B018C012EE936E04AE956E016
:103C700066E976E082E996E00E944A5280919206D7
:103C800090919306A0919406B09195068093D406E6
:103C90009093D506A093D606B093D706809196064A
:103CA00090919706A0919806B09199068093D806B6
:103CB0009093D906A093DA06B093DB0680919A061A
:103CC00090919B06A0919C06B0919D068093DC0686
:103CD0009093DD06A093DE06B093DF0680919E06EA
:103CE00090919F06A091A006B091A1068093E00656
:103CF0009093E106A093E206B093E3061F910F9123
:103D0000FF90EF90DF90CF90089560912F02709117
:103D10003002882777FD8095982F0E94C5C1209199
:103D20000F023091100240911102509112020E9434
:103D3000F8C320E030E040E752E40E942AC120E0CE
:103D400030E048EC52E488CFAF92BF92CF92DF923E
:103D5000EF92FF920F931F93CF93DF93D82F209171
:103D60008A0630918B0640918C0650918D066091A9
:103D700086067091870680918806909189060E9438
:103D800033C3C62F172F082FF92E60912F02709181
:103D90003002882777FD8095982F0E94C5C1209119
:103DA0000F023091100240911102509112020E94B4
:103DB000F8C320E030E040E752E40E942AC120E04E
:103DC00030E048EC52E40E942AC12091A4062F93CF
:103DD000DF93FF920F931F93CF935B016C01C2E0BF
:103DE000EC2E01E020E046E856E062E976E084ED62
:103DF00096E00E94294B8091920690919306A091A3
:103E00009406B09195068093D4069093D506A0931E
:103E1000D606B093D7068091960690919706A0910A
:103E20009806B09199068093D8069093D906A093EE
:103E3000DA06B093DB0680919A0690919B06A091DA
:103E40009C06B0919D068093DC069093DD06A093BE
:103E5000DE06B093DF0680919E0690919F06A091AA
:103E6000A006B091A1068093E0069093E106A0938E
:103E7000E206B093E3060E94DD0F6093DD047093C9
:103E8000DE048093DF049093E0040F900F900F9076
:103E90000F900F900F90DF91CF911F910F91FF9096
:103EA000EF90DF90CF90BF90AF900895F8940E946C
:103EB000556C159A1092B906179A1092BA06429A42
:103EC0001092BB06A09A9FB7F89480910B01826074
:103ED00080930B019FBFE3E5F8E08491882341F0D4
:103EE0009091C00095FFFCCF8093C6003196F5CF2E
:103EF000ECE2F3E08491882341F09091C00095FFBB
:103F0000FCCF8093C6003196F5CF8091C00085FF2D
:103F1000FCCF8AE08093C60083E293E00E94EA9D92
:103F20000E949D16FFCFCF92DF92EF92FF920F93E8
:103F30001F930E94DD0F0091D9041091DA042091A3
:103F4000DB043091DC04C090DD04D090DE04E0900E
:103F5000DF04F090E0046C197D098E099F090617B3
:103F600017072807390730F4012B022B032B11F018
:103F70000E94561F80910B0290910C02A0910D029D
:103F8000B0910E02892B8A2B8B2B09F10E94DD0F39
:103F90000091DD041091DE042091DF043091E004F3
:103FA000601B710B820B930B00910B0210910C02A2
:103FB00020910D0230910E020617170728073907C6
:103FC00030F490910A0C8091090C981741F01F91E0
:103FD0000F91FF90EF90DF90CF900C942E52159A96
:103FE0001092B906179A1092BA06429A1092BB061E
:103FF000A09A9FB7F89480910B01826080930B0187
:104000009FBFE5CF0E94556C8091CF04811138C0CD
:1040100081E08093CF048091760690917706A091FD
:104020007806B09179068093720690937306A093F8
:104030007406B0937506E3E5F8E08491882341F0B7
:104040009091C00095FFFCCF8093C6003196F5CFCC
:10405000EDEAF2E08491882341F09091C00095FF51
:10406000FCCF8093C6003196F5CF8091C00085FFCC
:10407000FCCF8AE08093C60083EA92E00C94DB9D3B
:1040800008958091CF04089567707727E82FF0E0B6
:10409000E356FE4F849190E0FC013697EC30F10539
:1040A00078F5EC56FF4F0C944AC58091B100887F9B
:1040B0008093B1008091B100862B8093B100089568
:1040C00080919100887F8093910080919100862B50
:1040D0008093910008958091A100887F8093A10032
:1040E0008091A100862B8093A100089580912101E9
:1040F000887F8093210180912101862B809321016B
:104100000895CF93DF93EC018091A4068093D004AF
:1041100084E50E943B18811102C080E075C00E94B6
:1041200027180E9497C16093D0046230B0F3EDE489
:10413000F8E08491882341F09091C00095FFFCCF76
:104140008093C6003196F5CFCD36D105B9F054F441
:10415000C836D105B1F0C936D10509F045C0ECE348
:10416000F3E021C0CA3DD10531F0CD3DD105E1F5E7
:10417000E7EFF2E036C0EEE0F3E029C0E5E2F3E07D
:104180001CC0E3E5F3E08191882371F19091C000B8
:1041900095FFFCCF8093C600F6CF9091C00095FFAD
:1041A000FCCF8093C60081918111F7CF1DC0909103
:1041B000C00095FFFCCF8093C60081918111F7CF9D
:1041C00013C09091C00095FFFCCF8093C6008191F1
:1041D0008111F7CF09C09091C00095FFFCCF80936B
:1041E000C60081918111F7CF40E050E06091D0048A
:1041F00087E799E00E948C3A8091C00085FFFCCF50
:104200008AE08093C60081E0DF91CF9108952F92DC
:104210003F924F925F926F927F928F929F92AF9256
:10422000BF92CF92DF92EF92FF920F931F93CF93A3
:10423000DF93CDB7DEB7E5970FB6F894DEBF0FBEBC
:10424000CDBF87E40E943B18882309F489C30E94EC
:1042500027180E9492C164307105D9F144F462308C
:10426000710521F15CF577FF17C00C9455366A355E
:10427000710509F421C334F46C31710509F471C07E
:104280000C9455366B35710509F41AC36C357105FC
:1042900009F41BC30C9455368091CF04811106C0DC
:1042A0000E949C1C0E94E41D0C9400388091CF0455
:1042B000811104C00E941F1D81E007C08091CF04BE
:1042C000811107C00E941F1D80E00E94A41E0C9453
:1042D000003885EA95E00E94DB9D80E50E943B184E
:1042E000882339F00E9427180E9497C14B015C0176
:1042F00003C0812C912C540183E50E943B18882334
:1043000061F00E94271820E030E04AE754E40E9460
:10431000F8C30E9497C14B015C010E949B650E94FB
:10432000DD0F6B017C01C80CD91CEA1CFB1C0E9430
:10433000DD0F6093DD047093DE048093DF049093BF
:10434000E0040E94DD0F6C157D058E059F0510F0C1
:104350000C9455360E9443680E94931F0E94779EDA
:10436000F0CF80910F0290911002A0911102B091B4
:10437000120280937E0690937F06A0938006B093EE
:10438000810680912F02909130029093E5068093F0
:10439000E40684E690E09093300280932F020E941E
:1043A000DD0F6093DD047093DE048093DF0490934F
:1043B000E00481E00E94B05D8091D4069091D50622
:1043C000A091D606B091D70680939206909393065B
:1043D000A0939406B09395068091D8069091D90643
:1043E000A091DA06B091DB0680939606909397062B
:1043F000A0939806B09399068091DC069091DD0613
:10440000A091DE06B091DF0680939A0690939B06FA
:10441000A0939C06B0939D068091E0069091E106E2
:10442000A091E206B091E30680939E0690939F06CA
:10443000A093A006B093A10610920F021092100252
:10444000109211021092120288E50E943B188823F4
:1044500011F090E00AC089E50E943B188111F9CF64
:104460008AE50E943B1891E09827909313029111DE
:104470000CC088E50E943B18882309F46CC189E5CB
:104480000E943B18882309F466C11092D40610924A
:10449000D5061092D6061092D7061092D806109222
:1044A000D9061092DA061092DB06EEE0F8E01491DD
:1044B00020EE36E04CED56E068ED76E084ED96E0D7
:1044C0000E94F45B8DE198E00E94E9136B017C018E
:1044D00020E030E040EC5FE30E94F8C34B015C0158
:1044E000612F772767FD7095872F972F0E94C5C191
:1044F0009B01AC01C501B4010E94F8C36093920610
:1045000070939306809394069093950681E298E0C9
:104510000E94E9134B015C01EFE0F8E0149120E008
:1045200030E040EC5FE30E94F8C32B013C01612FB7
:10453000772767FD7095872F972F0E94C5C19B0134
:10454000AC01C301B2010E94F8C360939606709358
:1045500097068093980690939906209131023091A6
:104560003202409133025091340220930F02309373
:104570001002409311025093120240903502509065
:1045800036026090370270903802C301B2010E9477
:1045900023C187FF08C040920F0250921002609220
:1045A000110270921202A5019401C701B6010E9486
:1045B00026C3181614F00C945836A7019601C501AD
:1045C000B4010E942AC19B01AC010E94F8C320E003
:1045D00030E040E85FE30E944AC00E9465C49B014E
:1045E000AC0160910F0270911002809111029091C4
:1045F00012020E94F8C360930F027093100280931E
:1046000011029093120220E030E040E752E4609102
:104610000F027091100280911102909112020E947B
:104620002AC1B4EACB2EB6E0DB2E7B018C012EE949
:1046300036E04AE956E066E976E082E996E00E94D3
:104640004A520E949B6580E090E00E94EF1381E057
:1046500090E00E94EF1320EE36E04CED56E068ED5E
:1046600076E084ED96E00E94F45B8091D406909110
:10467000D506A091D606B091D70680939206909366
:104680009306A0939406B09395068091D8069091D6
:10469000D906A091DA06B091DB0680939606909336
:1046A0009706A0939806B093990620E030E040E783
:1046B00052E460910F02709110028091110290916A
:1046C00012020E942AC17B018C012EE936E04AE9E0
:1046D00056E066E976E082E996E00E944A5210923E
:1046E0000F021092100210921102109212020E94F8
:1046F0009B650E94A95D8091920690919306A0917E
:104700009406B09195068093D4069093D506A09315
:10471000D606B093D7068091960690919706A09101
:104720009806B09199068093D8069093D906A093E5
:10473000DA06B093DB0680919A0690919B06A091D1
:104740009C06B0919D068093DC069093DD06A093B5
:10475000DE06B093DF068091130281110C945E3661
:1047600088E50E943B1881110C945E3680911302FB
:1047700081110C94643689E50E943B1881110C94D8
:10478000643688E50E943B188823D1F00E943018D7
:10479000672B682B692BA1F00E9427182091C8066F
:1047A0003091C9064091CA065091CB060E944AC07A
:1047B0006093D4067093D5068093D6069093D7065F
:1047C00089E50E943B188823D1F00E943018672B9E
:1047D000682B692BA1F00E9427182091CC063091FC
:1047E000CD064091CE065091CF060E944AC06093FC
:1047F000D8067093D9068093DA069093DB068091F1
:10480000130281110C946A368AE50E943B188111CB
:104810000C946A368AE50E943B188823D1F00E94E6
:104820003018672B682B692BA1F00E942718209164
:10483000D0063091D1064091D2065091D3060E9405
:104840004AC06093DC067093DD068093DE06909389
:10485000DF0620EE36E04CED56E068ED76E084EDC4
:1048600096E00E94F45B80E00E94B05D80917E063D
:1048700090917F06A0918006B091810680930F02EF
:1048800090931002A0931102B09312028091E4065B
:104890009091E5069093300280932F020E94DD0FE5
:1048A0006093DD047093DE048093DF049093E00452
:1048B0000E94A95D0C945536109271060C945536E1
:1048C00081E0809371060C94553685E40E943B1874
:1048D000811102C00E949B65F5E2CF2EF4E0DF2E2D
:1048E000A8ECEA2EA6E0FA2E04ED16E0B12CF601B3
:1048F00081916F010E943B18882339F1F3E0BF12C8
:104900000CC00E942718F80160837183828393830F
:1049100080EE96E00E94995C18C00E942718F7016B
:1049200020813181428153810E944AC0F801608315
:1049300071838283938320EE36E04CED56E068ED80
:1049400076E084ED96E00E94F45BB394F4E0EF0E21
:10495000F11C0C5F1F4F24E0B212C9CF0C945536E6
:104960008DE40E943B18882311F40C9404350E94B6
:1049700027180E9492C16337710511F40C94732CAF
:104980000CF08AC06F31710509F43EC3A4F566319D
:10499000710509F4DDC1BCF46131710509F492C1FE
:1049A00034F46230710508F432C10C945536643128
:1049B000710509F499C10CF0C5C16231710509F4A2
:1049C000D5C60C9455366A31710509F4F6C13CF42C
:1049D0006831710509F4DBC10CF4C0C1E8C16C3168
:1049E000710509F4FEC10CF4F6C16E31710509F4CC
:1049F0002EC20C9455366535710509F4EAC6CCF41F
:104A00006135710509F486C654F46032710509F404
:104A10005DC26A32710509F454C30C94553663358E
:104A2000710509F49EC60CF0A1C61092E9060C941B
:104A300055366A36710509F43DC6DCF468367105F1
:104A400009F46AC30CF097C36C35710511F00C942E
:104A5000553685E294E098AB8FA70BE311E1EBE4C8
:104A60008E2EE1E19E2EFFEFAF2EF0E1BF2E312C16
:104A700028C76D36710509F4A4C46237710509F4BD
:104A800056C76B36710511F00C9455361092A3067B
:104A90001092A2060C9455366D3D710511F40C94DC
:104AA0005A300CF05DC0683C710511F40C946C2E0A
:104AB0002CF56837710511F40C94772D6CF465377B
:104AC000710509F41FC76737710511F00C9455364D
:104AD000E9E7F3E00C94822D6C38710509F43AC3D0
:104AE0006E3B710509F4E6C46937710511F00C9449
:104AF000553681E00E94B05D0C9455366D3C7105D1
:104B000011F40C943B2FACF46B3C710511F40C9434
:104B1000FF2E14F00C941B2F693C710511F00C94BE
:104B2000553605E214E07BE2E72E71E1F72E0C9496
:104B3000E52E6A3D710511F40C94B02F6C3D7105A2
:104B400011F40C944B306E3C710511F00C945536F9
:104B500005E214E058ECE52E56E0F52E0C94A12F5A
:104B6000643F31E0730711F40C94ED312CF56D3294
:104B700091E0790711F40C94E13064F4623E710520
:104B800011F40C9480306C32714011F40C94AB3001
:104B90000C9455366F3221E0720711F40C94B53144
:104BA00014F40C94A7316039714011F00C9455360F
:104BB0000E949B650C945536683592E0790711F494
:104BC0000C94CB3294F4663FF1E07F0711F40C941F
:104BD000F33114F40C94F031673F714011F00C94F0
:104BE00055360E94F77F0C945536603A83E078077B
:104BF00009F4D6C1673E93E0790711F40C94ED34C3
:104C00006335734011F00C9455360C94F63184E9F9
:104C100095E00E94DB9D80E50E943B18882339F0D7
:104C20000E9427180E9497C16B017C0103C0C12C10
:104C3000D12C760183E50E943B18882361F00E9405
:104C4000271820E030E04AE754E40E94F8C30E94AD
:104C500097C16B017C010E949B650E94DD0F6093F0
:104C6000DD047093DE048093DF049093E004C114AC
:104C7000D104E104F104A9F00E94DD0F4B015C01B5
:104C80008C0C9D1CAE1CBF1C0E94DD0F68157905A5
:104C90008A059B0588F40E943B9F81110DC00C94EE
:104CA00070360E943B9F811107C00E9443680E949A
:104CB000931F0E94779EF5CF85E895E00E94DB9DCB
:104CC0000C9455368CE795E00E94DB9D159817985B
:104CD0004298A0989FB7F89480910B018D7F8093A4
:104CE0000B019FBF0C945536ECE6F5E084918823C8
:104CF00041F09091C00095FFFCCF8093C6003196A3
:104D0000F5CF8091C00085FFFCCF8AE08093C6007C
:104D10008AEE96E00E940F75EEE5F5E08491882317
:104D200041F09091C00095FFFCCF8093C600319672
:104D3000F5CF8091C00085FFFCCF8AE08093C6004C
:104D40000C9455368AEE96E00E9466750C945536A2
:104D50008AEE96E00E942D760C9455360091E1047F
:104D60001091E2040C5F1F4F6AE270E0C8010E94DC
:104D70008DC8009719F0FC013197108221E041E0C5
:104D8000B8018AEE96E00E949C760C9455368AEE25
:104D900096E00E9431760E94DD0F6093D5047093F7
:104DA000D6048093D7049093D8040C9455368AEE99
:104DB00096E00E9438760C9455368091ED06882353
:104DC00011F40C94553683E50E943B1881110C9424
:104DD00078360C9455368AEE96E00E94EB7A0C9465
:104DE00055368091E1049091E2046AE270E0049605
:104DF0000E948DC88C010097E1F02091EB04309166
:104E0000EC0440E6429FC001439F900D11246EE4E4
:104E100070E08F509B4F0E948DC860E270E00E944E
:104E20008DC801969093E2048093E104F8013197D4
:104E300010826091E1047091E2046C5F7F4F21E089
:104E400040E08AEE96E00E949C760C945536809164
:104E5000ED06882311F40C94553660E08AEE96E056
:104E60000E94A47C8091E1049091E2046AE270E0E7
:104E700004960E948DC88C010097E1F02091EB040C
:104E80003091EC0440E6429FC001439F900D1124F5
:104E90006EE470E08F509B4F0E948DC860E270E01E
:104EA0000E948DC801969093E2048093E104F8017A
:104EB000319710826091E1047091E2046C5F7F4F42
:104EC0008AEE96E00E94B1790C9455368091EC06FA
:104ED00081110E949B650091E1041091E2040C5F36
:104EE0001F4F6AE270E0C8010E948DC87C0161E238
:104EF00070E0C8010E948DC8009719F08C010F5F07
:104F00001F4FE114F10419F0F7013197108280E589
:104F10000E943B18F82E2091E1043091E204021720
:104F2000130708F4F12C8091ED06882311F40C94FA
:104F3000553621E02F2541E0B8018AEE96E00E9427
:104F40009C7683E50E943B188823B9F02091E10408
:104F50003091E2042017310780F40E943018AB0131
:104F6000BC0140936D0950936E0960936F09709373
:104F7000700988EB98E00E94ED408AEE96E00E946E
:104F80003176F1100C9455360E94DD0F6093D504F4
:104F90007093D6048093D7049093D8040C9455361C
:104FA0008091E1049091E2046AE270E005960E942B
:104FB0008DC88C010097E1F02091EB043091EC0456
:104FC00040E6429FC001439F900D11246EE470E0C3
:104FD0008F509B4F0E948DC860E270E00E948DC888
:104FE00001969093E2048093E104F80131971082D6
:104FF0006091E1047091E2046B5F7F4F8AEE96E06E
:105000000E94AB790C9455360E94DD0F6093D10459
:105010007093D2048093D3049093D4040091D50468
:105020001091D6042091D7043091D804601B710BE5
:10503000820B930B28EE33E040E050E00E9409C55C
:10504000CA01B9012CE330E040E050E00E9409C5FC
:105050007F936F933F932F938FE495E09F938F936C
:105060008E010F5F1F4F1F930F930E94BCC8EDE48A
:10507000F8E084910FB6F894DEBF0FBECDBF882351
:1050800049F09091C00095FFFCCF8093C600319607
:105090008491F5CFF8018191882339F09091C00077
:1050A00095FFFCCF8093C600F6CF8091C00085FFAE
:1050B000FCCF8AE08093C600C8010E94CC9D0C946E
:1050C000553683E50E943B18882311F40C9455361D
:1050D0000E9427186B017C0180E50E943B18882301
:1050E00051F0C701B6010E9492C16F3F710509F0EE
:1050F00010F40C9489366DE070E020E0E22FEE0FA2
:10510000FF0BEB51FC4F808191818617970711F4BB
:105110000C9455362F5FF2CF88E690E00E948120F4
:1051200081110C94553683E50E943B18882371F059
:105130000091D0040E94271810E0000F111F005D9D
:105140001D4E0E9492C1F801718360830E94E86B3A
:105150000C94553683E50E943B18882311F40C9477
:1051600055360E9427180E9492C170932F126093A7
:105170002E120C94553689E690E00E948120811110
:105180000C945536E9E4F5E08491882341F0909140
:10519000C00095FFFCCF8093C6003196F5CFE0911B
:1051A000D00424E0E29FF0011124EE5DFD4E408129
:1051B00051816281738121E030E087E799E00E94AC
:1051C000313BE6E4F5E08491882341F09091C00002
:1051D00095FFFCCF8093C6003196F5CFE091D004C7
:1051E000F0E0EE0FFF1FE05DFD4E608171818827CA
:1051F00077FD8095982F0E94C5C1AB01BC0121E0CD
:1052000030E087E799E00E94313BE2E4F5E08491E9
:10521000882341F09091C00095FFFCCF8093C60099
:105220003196F5CF40911C1250911D1260911E12C3
:1052300070911F1221E030E087E799E00E94313B36
:10524000EFE3F5E08491882341F09091C00095FF51
:10525000FCCF8093C6003196F5CF60912E127091ED
:105260002F12882777FD8095982F0E94C5C1AB012A
:10527000BC0121E030E087E799E00E94313B30E358
:10528000E32E32E1F32E42E2C42E42E1D42E00E0BE
:1052900010E0ECE3F5E0B490EAE3F5E0A490E7E396
:1052A000F5E094908B2DECE3F5E0882349F09091A4
:1052B000C00095FFFCCF8093C60031968491F5CF56
:1052C0004AE050E0B80187E799E00E94513A8A2D00
:1052D000EAE3F5E0882349F09091C00095FFFCCF08
:1052E0008093C60031968491F5CFF601419151919A
:1052F000619171916F0121E030E087E799E00E94B0
:10530000313B892DE7E3F5E0882349F09091C00017
:1053100095FFFCCF8093C60031968491F5CFF701BD
:10532000619171917F01882777FD8095982F0E9468
:10533000C5C1AB01BC0121E030E087E799E00E94E4
:10534000313B0F5F1F4F0230110509F0ABCFE3E394
:10535000F5E08491882341F09091C00095FFFCCF47
:105360008093C6003196F5CF8091D00490E00E94E2
:1053700038684AE050E0BC0187E799E00E94513A62
:10538000EEE2F5E08491882341F09091C00095FF12
:10539000FCCF8093C6003196F5CF8FEF9FEF0E9430
:1053A00038684AE050E0BC0187E799E00E94513A32
:1053B0008091C00085FFFCCF8AE08093C6000C94EA
:1053C00000388DE690E00E94812081110C945536C2
:1053D00083E295E00E94DB9D83E50E943B188823D1
:1053E00091F00091D0040E94271810E0000F111FC7
:1053F000005D1D4E0E9492C1F8017183608381E0BF
:1054000080930A0215C082E50E943B18882381F030
:105410000091D0040E94271810E0000F111F005DBA
:105420001D4E0E9492C1F8017183608310920A029E
:105430000E94E86B0E94DD0F4B015C010091D004DB
:1054400010E0F801EE0FFF1FE05DFD4E60817181FD
:10545000882777FD8095982F0E94C5C1F801EE0F2F
:10546000FF1FEE0FFF1FEE5DFD4E11E02081318129
:10547000428153810E9426C318160CF010E010934D
:10548000CE04CC24CA94DC2C7601E0E2F5E0249131
:105490002FA7ECE1F5E0349139ABE8E1F5E0249099
:1054A00048EE442E43E0542E612C712C5AE0352EE8
:1054B0000C94EC368DEF94E00E94DB9D83E50E9416
:1054C0003B18882361F00E9427180E9492C17093B4
:1054D0002F1260932E1281E080930A020FC082E5A2
:1054E0000E943B18882351F00E9427180E9492C105
:1054F00070932F1260932E1210920A020E94DD0FF9
:105500006B017C0160912E1270912F12882777FD1C
:105510008095982F0E94C5C111E020911C123091F6
:105520001D1240911E1250911F120E9426C3181680
:105530000CF010E01093CE04EAEFF4E01491E6EFE3
:10554000F4E00491E2EFF4E0B490AAE0AA2E809196
:10555000CE0460912E1270912F12882309F483C01B
:10556000882777FD8095982F0E94C5C120911C1235
:1055700030911D1240911E1250911F120E9426C39D
:1055800018160CF087C00E94DD0F6C197D098E097A
:105590009F09693E73408105910508F45DC0E09163
:1055A000A40634E0E39FF0011124EE5DFD4E40813E
:1055B000518162817381812FEAEFF4E0882349F001
:1055C0009091C00095FFFCCF8093C60031968491E6
:1055D000F5CF22E030E087E799E00E94313B802F51
:1055E000E6EFF4E0882349F09091C00095FFFCCFEE
:1055F0008093C60031968491F5CF6091A40670E047
:105600004AE050E087E799E00E94513A8B2DE2EFA3
:10561000F4E0882349F09091C00095FFFCCF80937F
:10562000C60031968491F5CF40911C1250911D1205
:1056300060911E1270911F1221E030E087E799E01F
:105640000E94313B8091C00085FFFCCFA092C60034
:105650000E94DD0F6B017C010E9443680E94931F32
:105660000E94779E74CF882777FD8095982F0E949F
:10567000C5C120911C1230911D1240911E125091F3
:105680001F120E9423C187FF05C080910A02882350
:1056900009F479CF88EE94E00E94DB9D0E94DD0F33
:1056A0006093DD047093DE048093DF049093E00444
:1056B0000C94553683E50E943B18882319F10E940B
:1056C000271820E030E0A9010E9423C187FD0FC008
:1056D0000E94271820E030E04FE753E40E9426C3E1
:1056E000181644F00E9427180E9492C105C060E07D
:1056F00070E002C06FEF70E07093A3066093A206A3
:105700000C9455368FEF90E09093A3068093A206F9
:105710000C9455360E94556C0E949B65A09A9FB7C9
:10572000F89480910B01826080930B019FBF0E94CF
:1057300004661092A3061092A20668EE73E080E061
:1057400090E00E940C100E949B650E949D16109292
:10575000140289ED94E00E94DB9D0E94779E0C94D8
:10576000553681E08093E9060C94553683E50E9416
:105770003B188823A1F00E94271820E030E04AE778
:1057800054E40E94F8C30E9497C160930B02709387
:105790000C0280930D0290930E020C94553688E50E
:1057A0000E943B1881110C94C83789E50E943B1870
:1057B00081110C94C8378AE50E943B1881110C9422
:1057C000C83785E40E943B1881110C94C8370C94AB
:1057D000F23783E50E943B180E94271820E030E052
:1057E0004AE754E40E94F8C30E9497C16093D90429
:1057F0007093DA048093DB049093DC040C945536A8
:10580000F3E03F1268C00E9427186B017C0120E082
:1058100030E040EA51E40E9423C187FF3FC0A70166
:105820009601F80160817181828193810E942AC171
:105830002B013C019B01AC0160911311709114117B
:1058400080911511909116110E94F8C36093131165
:10585000709314118093151190931611A301920166
:10586000F40160817181828193810E94F8C3F40107
:105870006083718382839383F5016081718182816A
:1058800093810E94C3C1A30192010E94F8C30E94A8
:1058900097C1F5016083718382839383F801C0828D
:1058A000D182E282F38233940C5F1F4FF4E08F0EBB
:1058B000911C24E0A20EB11C34E0331611F40C94B8
:1058C0005536EFA5F8A98191F8ABEFA70E943B18D8
:1058D000882349F395CF0E942718F80160837183CC
:1058E00082839383E0CFEFE0F4E08491882311F486
:1058F0000C9455369091C00095FFFCCF8093C60064
:105900003196F3CF0091E1041091E2040B5F1F4F39
:105910006AE270E0C8010E948DC8009719F0FC018E
:1059200031971082C8010E94CC9D0C945536ECE052
:10593000F4E08491882341F09091C00095FFFCCF62
:105940008093C6003196F5CF4091D4065091D5068C
:105950006091D6067091D70622E030E087E799E0A3
:105960000E94313BE8E0F4E08491882341F090917B
:10597000C00095FFFCCF8093C6003196F5CF4091D3
:10598000D8065091D9066091DA067091DB0622E0C4
:1059900030E087E799E00E94313BE4E0F4E0849155
:1059A000882341F09091C00095FFFCCF8093C60002
:1059B0003196F5CF4091DC065091DD066091DE0610
:1059C0007091DF0622E030E087E799E00E94313BEA
:1059D000E0E0F4E08491882341F09091C00095FFCD
:1059E000FCCF8093C6003196F5CF4091E0065091F0
:1059F000E1066091E2067091E30622E030E087E77D
:105A000099E00E94313BE5EFF3E08491882341F077
:105A10009091C00095FFFCCF8093C6003196F5CFE2
:105A20000E94F6650E94C5C120913B1130913C1146
:105A300040913D1150913E110E942AC1AB01BC0121
:105A400022E030E087E799E00E94313BE1EFF3E0AC
:105A50008491882341F09091C00095FFFCCF809302
:105A6000C6003196F5CF81E00E94F6650E94C5C15F
:105A700020913F11309140114091411150914211BC
:105A80000E942AC1AB01BC0122E030E087E799E027
:105A90000E94313BEDEEF3E08491882341F0909138
:105AA000C00095FFFCCF8093C6003196F5CF82E011
:105AB0000E94F6650E94C5C12091431130914411A6
:105AC00040914511509146110E942AC1AB01BC0181
:105AD00022E030E087E799E00E94313B8091C000EE
:105AE00085FFFCCF8AE08093C6000C94553680E099
:105AF0000E94B05D0C9455369091C00095FFFCCF8C
