:100000000C94960E0C9450110C9481110C94B21116
:100010000C94E3110C9414120C9445120C94761267
:100020000C94A7120C94C70E0C94C70E0C94C70E18
:100030000C94C70E0C94E9820C94C70E0C94C70E56
:100040000C94C70E0C94965B0C94C70E0C94C70EC0
:100050000C94C70E0C94C70E0C94276C0C94C90E0C
:100060000C94C70E0C9441360C94C70E0C94C70E1A
:100070000C94C70E0C94C70E0C94C70E0C94C70EAC
:100080000C94C70E0C94C70E0C94C70E0C94C70E9C
:100090000C94C70E0C94C70E0C94C70E0C94C70E8C
:1000A0000C94C70E0C94C70E0C94C70E0C94C70E7C
:1000B0000C94C70E0C94C70E0C94C70E0C94C70E6C
:1000C0000C94C70E0C94C70E0C94C70E0C94C70E5C
:1000D0000C94C70E0C94C70E0C94C70E0C94C70E4C
:1000E0000C94C70EFB0F001005100F10881019108C
:1000F0002110291033103D10471056106010881041
:100100006A1074107E10A610A9109C10A010E010A8
:10011000AD10B110B710BB10BF10C510C910CD1075
:10012000E010D310D710DB10EC1EEC1EF71EF71EEC
:10013000F71E021F021F021F171F0D1F0D1F0D1F8D
:10014000706C7F6C9B6CAA6CC46CD36CED6CF16CA6
:10015000F96C084AD73B3BCE016E84BCBFFDC12F72
:100160003D6C74319ABD56833DDA3D00C77F11BEA8
:10017000D9E4BB4C3E916BAAAABE000000803F05AB
:10018000A84CCDB2D44EB93836A9020C50B99186DC
:1001900088083CA6AAAA2ABE000000803F000009E9
:1001A0000A02080B0C0D0706030401000000000002
:1001C00000000000000000000011100F00000000FF
:1001E00000000001021020200808102040102040CC
:1001F00080020102010804020101020408102040EB
:100200008080402010080402018004020180402008
:100210001008040201080402010102040810204031
:100220008001020408102040800505050507050827
:10023000080808020202020A0A0808040404040169
:10024000010101010101010303030303030303048B
:100250000707070C0C0C0C0C0C0C0C02020202061B
:10026000060606060606060B0B0B0B0B0B0B0B000C
:10027000002200250028002B002E0031003400024F
:10028000010000050108010B0100002100240027E6
:10029000002A002D00300033000101000004010796
:1002A000010A0153544F505045442E2000507269AA
:1002B0006E7465722073746F707065642064756508
:1002C00020746F206572726F72732E2046697820D9
:1002D000746865206572726F7220616E6420757338
:1002E00065204D39393920746F20726573746172DD
:1002F000742E202854656D70657261747572652066
:1003000069732072657365742E2053657420697457
:100310002061667465722072657374617274696EAF
:100320006729004B494C4C45442E20005072696EA1
:100330007465722068616C7465642E206B696C6CE6
:1003400028292063616C6C656421006F6B00526525
:1003500073656E643A20002200556E6B6E6F776E87
:1003600020636F6D6D616E643A2022004368616E98
:1003700067652066696C616D656E74005A204F6612
:1003800066736574203A20007A5F6D61783A2000C8
:100390007A5F6D696E3A20005A204F666673657405
:1003A000005A204F6666736574206F6B007A5F6D2C
:1003B00061783A20007A5F6D696E3A2000795F6D4E
:1003C00061783A2000795F6D696E3A2000785F6D40
:1003D00061783A2000785F6D696E3A2000205A3AC1
:1003E0000020593A0020436F756E7420583A20005F
:1003F00020453A00205A3A0020593A00583A00461F
:1004000049524D574152455F4E414D453A4D6172FB
:100410006C696E2056313B20537072696E74657240
:100420002F6772626C206D617368757020666F72E1
:100430002067656E36204649524D574152455F55FB
:10044000524C3A687474703A2F2F6669726D7761F6
:1004500072652E756C74696D616B65722E636F6D5C
:100460002050524F544F434F4C5F56455253494FC3
:100470004E3A312E30204D414348494E455F545944
:1004800050453A556C74696D616B657220455854DE
:1004900052554445525F434F554E543A31205555BD
:1004A00049443A30303030303030302D3030303018
:1004B0002D303030302D303030302D303030303045
:1004C000303030303030300A00556C74696D616BFB
:1004D0006572204F66662E00556C74696D616B65A0
:1004E000722072656164792E0042656420646F6ECB
:1004F000652E0020423A0020453A00543A004265F9
:10050000642048656174696E672E0048656174698E
:100510006E6720646F6E652E0020573A0020453AC2
:1005200000543A0048656174696E672E2E2E0020D3
:1005300042403A0020403A00202F003A0020540068
:10054000202F0020423A00202F006F6B20543A00E9
:100550002569206D696E2C2025692073656300452F
:100560006E642066696C65206C697374004265670F
:10057000696E2066696C65206C697374004E6F202B
:100580006D6F76652E00526573756D696E672070AC
:1005900072696E74005761697420666F722075739A
:1005A00065722E2E2E00536C6565702E2E2E002542
:1005B0006920686F757273202569206D696E757486
:1005C000657300446F6E65207072696E74696E6742
:1005D0002066696C650053544F505045442E2000EE
:1005E0005072696E7465722073746F7070656420E8
:1005F00064756520746F206572726F72732E204669
:10060000697820746865206572726F7220616E640B
:1006100020757365204D39393920746F20726573E8
:10062000746172742E202854656D706572617475E2
:1006300072652069732072657365742E205365742A
:1006400020697420616674657220726573746172CA
:1006500074696E6729006F6B004E6F204C696E6580
:10066000204E756D626572207769746820636865D5
:10067000636B73756D2C204C617374204C696E65CF
:100680003A20004E6F20436865636B73756D207769
:10069000697468206C696E65206E756D6265722C78
:1006A000204C617374204C696E653A200063686564
:1006B000636B73756D206D69736D617463682C2055
:1006C0004C617374204C696E653A20004C696E650C
:1006D000204E756D626572206973206E6F74204CB8
:1006E000617374204C696E65204E756D6265722B66
:1006F000312C204C617374204C696E653A20004D9A
:1007000031313000446F6E6520736176696E672009
:1007100066696C652E006F6B004D323900202050E9
:100720006C616E6E6572427566666572427974655B
:10073000733A20002046726565204D656D6F7279B1
:100740003A2000466562203139203230313500438D
:100750006F6D70696C65643A200028446176696445
:1007600020427261616D2900207C20417574686FA0
:10077000723A20004665622031392032303135200E
:1007800030393A35383A343000204C617374205592
:100790007064617465643A2000312E302E30004D53
:1007A00061726C696E0020536F66747761726520A8
:1007B000526573657400205761746368646F6720C5
:1007C0005265736574002042726F776E206F757486
:1007D000205265736574002045787465726E616C93
:1007E00020526573657400506F77657255700073A1
:1007F00074617274002200656E717565696E6720A0
:1008000022002200656E717565696E67202200FF07
:10081000FFFF0000A0400000A040000000400000DA
:100820004D4300004D43000048430000000000001D
:1008300000000000000000004D4300004D43000098
:100840004843000000000000000000000000656355
:10085000686F3A004572726F723A0041414141E15E
:10086000414143454545454949494944EE4F4F4F6C
:100870004FEF784F555555F55954E261616161E18B
:10088000616163656565656969696964EE6F6F6F6C
:100890006FEFFD6F757575F5797479007C3C3E5E80
:1008A0002B3D3F2F5B5D3B2C2A225C0020746F6F39
:1008B000206C6F6E6720657874727573696F6E2037
:1008C00070726576656E7465640020636F6C642079
:1008D000657874727573696F6E2070726576656E77
:1008E000746564006563686F3A00656E6473746F65
:1008F0007073206869743A205A00205A3A00656E75
:100900006473746F7073206869743A2059002059B9
:100910003A00656E6473746F7073206869743A206E
:10092000580020583A00656E6473746F70732068C5
:1009300069743A200024F4D43050C38E20C2A240FF
:1009400017828B7011127A910D816CD90AA861E11E
:1009500008C7586607615143061E4B5D05C145A790
:10096000041A411104093D9803713931034036DB03
:100970000265339102D4305402802E1D02632CEEA6
:1009800001752AC501B028A001102781018F2564B7
:10099000012B244B01E0223401AC211F018D200DDD
:1009A00001801FFC00841EED00971DDF00B81CD2E3
:1009B00000E61BC600201BBC00641AB200B219A8D6
:1009C000000A19A0006A189900D117910040178BEE
:1009D00000B516840031167E00B31579003A157300
:1009E00000C7146F0058146A00EE13660088136382
:1009F0000025135E00C7125B006C125700151254DD
:100A000000C111510070114F0021114B00D6104947
:100A1000008D1047004610440002104200C00F40F5
:100A200000800F3E00420F3C00060F3B00CB0E380B
:100A300000930E37005C0E3500270E3400F30D32A4
:100A400000C10D3100900D3000600D2E00320D2DD3
:100A500000050D2C00D90C2B00AE0C2900850C29AB
:100A6000005C0C2700350C27000E0C2600E80B2438
:100A700000C40B2400A00B23007D0B23005A0B2184
:100A800000390B2100180B2000F80A1F00D90A1E9C
:100A900000BB0A1E009D0A1D00800A1D00630A1C7F
:100AA00000470A1B002C0A1B00110A1A00F7091A3A
:100AB00000DD091900C4091900AB091900920917D2
:100AC000007B091800630917004C09160036091647
:100AD00000200916000A091500F5081500E00814A1
:100AE00000CC081400B8081400A4081400900813DF
:100AF000007D0812006B0813005808120046081207
:100B00000034081100230811001208110001081117
:100B100000F0071000E0071000D0071000C0071019
:100B200000B0070F00A107100091070E0083070F08
:100B30000074070F0065070E0057070E0049070EE7
:100B4000003B070D002E070E0020070D0013070DB8
:100B50000006070D00F9060C00ED060D00E0060C7E
:100B600000D4060C00C8060C00BC060C00B0060C35
:100B700000A4060B0099060C008D060B0082060BE4
:100B80000077060B006C060B0061060A0057060B87
:100B9000004C060A0042060A0038060A002E060A21
:100BA0000024060A001A060A001006090007060AB1
:100BB00000FD050900F4050900EB050900E205093F
:100BC00000D9050900D0050900C7050900BE0509BF
:100BD00000B5050800AD050800A50509009C05083D
:100BE00000940508008C050800840508007C0508B1
:100BF00000740508006C050700650508005D050721
:100C000000560508004E0507004705070040050887
:100C10000038050700310507002A050700230507EE
:100C2000001C050600160507000F0507000805064D
:100C30000002050700FB040600F5040700EE0406A9
:100C400000E8040600E2040700DB040600D5040601
:100C500000CF040600C9040600C3040600BD040654
:100C600000B7040600B1040500AC040600A60406A3
:100C700000A00405009B04060095040500900406EE
:100C8000008A04050085040500800406007A040536
:100C90000075040500700405006B0405006604057A
:100CA00000610405005C04050057040500520405BA
:100CB000004D04050048040500430405003E0404FB
:100CC000003A04050035040500300404002C040536
:100CD0000027040400230405001E0404001A040471
:100CE0000016040500110404000D040400090405A5
:100CF000000404040000040400FC030400F80304DE
:100D000000F4030400F0030400EC030400E803040F
:100D100000E4030400E0030400DC030400D803043F
:100D200000D4030400D0030400CC030400C8030370
:100D300000C503030024F404D9201BC40C5C0E98E6
:100D400004C4095F0265077101F405F900FB04B3EF
:100D50000048048700C10369005803550003034598
:100D600000BE023A008402310053022A0029022503
:100D70000004022000E4011C00C8011900AF0117A3
:100D8000009801140084011300710110006101102A
:100D90000051010E0043010D0036010B002B010B29
:100DA0000020010B00150109000C010900030108D6
:100DB00000FB000800F3000800EB000700E4000659
:100DC00000DE000600D8000600D2000600CC0005B8
:100DD00000C7000500C2000500BD000400B9000402
:100DE00000B5000400B1000400AD000400A9000437
:100DF00000A5000300A20003009F0004009B000365
:100E00000098000300950002009300030090000387
:100E1000008D0002008B00030088000200860002A3
:100E20000084000300810002007F0002007D0002B8
:100E3000007B0002007900020077000100760002CA
:100E4000007400020072000100710002006F0002D5
:100E5000006D0001006C0002006A000100690002E0
:100E600000670001006600010065000100640002E7
:100E7000006200010061000100600001005F0002EB
:100E8000005D0001005C0001005B0001005A0001F0
:100E900000590001005800010057000100560001F0
:100EA00000550001005400010053000000530001F0
:100EB000005200010051000100500001004F0001EC
:100EC000004E0000004E0001004D0001004C0001EA
:100ED000004B0000004B0001004A000100490001E6
:100EE00000480000004800010047000100460000E3
:100EF00000460001004500000045000100440001DB
:100F000000430000004300010042000000420001D5
:100F1000004100000041000100400001003F0000CE
:100F2000003F0001003E0000003E0001003D0000C7
:100F3000003D0001003C0000003C0000003C0001BE
:100F4000003B0000003B0001003A0000003A0001B5
:100F500000390000003900010038000000380000AE
:100F600000380001003700000037000100360000A3
:100F7000003600000036000100350000003500009A
:100F8000003500010034000000340000003400018E
:100F90000033000000330000003300010032000085
:100FA000003200000032000100310000003100007A
:100FB000003100010030000000300000003000016E
:100FC000002F0000002F0000002F0000002F000164
:100FD000002E0000002E0000002E0001002D000059
:100FE000002D0000002D0000002D0001002C00004D
:100FF000002C0000002C0000002C0001002B000041
:10100000002B0000002B0000002B0001002A000034
:10101000002A0000002A0000002A00010029000028
:10102000002900000029000000290000002900011B
:101030000028000000280000002800000028000010
:101040000028000100270000002700000027000002
:1010500000270000002700010026000000260000F5
:1010600000260000002600000026000100250000E8
:1010700000250000002500000025000000250000DC
:1010800000250001002400000024000000240000CE
:1010900000240000002400010023000000230000C1
:1010A00000230000002300000023000000230000B4
:1010B00000230001002200000022000000220000A6
:1010C0000022000000220000002200010021000098
:1010D000002100000021000000210000002100008C
:1010E000002100000021000100200000002000007D
:1010F0000020000000200000002000000020000070
:101100000020000000200001001F0000001F000060
:10111000001F0000001F0000001F0000001F000053
:10112000001F0001001E0000001E0000001E000045
:10113000001E0000006563686F3A004572723A2035
:101140004D494E54454D50003A20457874727564AF
:101150006572207377697463686564206F66662EB4
:10116000204D494E54454D50207472696767657231
:1011700065642021004572723A204D415854454D16
:1011800050003A20457874727564657220737769EF
:101190007463686564206F66662E204D415854451F
:1011A0004D5020747269676765726564202100483C
:1011B000656174696E67206661696C656400202DE5
:1011C00020496E76616C6964206578747275646517
:1011D00072206E756D626572202100504944204175
:1011E00075746F74756E652066696E697368656481
:1011F000212050757420746865206C617374204BD5
:10120000702C204B6920616E64204B6420636F6EEC
:101210007374616E74732066726F6D2061626F7695
:101220006520696E746F20436F6E666967757261C1
:1012300074696F6E2E6800504944204175746F7454
:10124000756E65206661696C6564212074696D65E1
:101250006F75740020403A006F6B20543A006F6B3A
:1012600020423A00504944204175746F74756E6590
:10127000206661696C6564212054656D70657261DA
:101280007475726520746F6F206869676800204B01
:10129000643A2000204B693A2000204B703A20002D
:1012A00020436C61737369632050494420002054CB
:1012B000753A2000204B753A2000206D61783A2065
:1012C00000206D696E3A200020643A200020626997
:1012D00061733A20006563686F3A004572726F72FD
:1012E0003A004D383420582059205A204500436197
:1012F0006E6E6F7420656E746572207375626469BA
:10130000723A20004D3234004D3233202573006193
:1013100075746F25692E67006572726F722077721F
:101320006974696E6720746F2066696C65004E6F22
:1013300074205344207072696E74696E67002F00C8
:101340005344207072696E74696E672062797465A7
:1013500020002E0044656C6574696F6E20666169BB
:101360006C65642C2046696C653A200046696C65A2
:101370002064656C657465643A002E006F70656E5C
:10138000206661696C65642C2046696C653A2000B2
:1013900057726974696E6720746F2066696C653A6C
:1013A00020002E006F70656E206661696C65642C8C
:1013B0002046696C653A20002E006F70656E2066CD
:1013C00061696C65642C2046696C653A2000466949
:1013D0006C652073656C6563746564002053697A7D
:1013E000653A200046696C65206F70656E65643AE9
:1013F00020002E006F70656E206661696C65642C3C
:101400002046696C653A20004E6F772066726573DE
:10141000682066696C653A20004E6F7720646F69BA
:101420006E672066696C653A20002220706F730039
:101430002220706172656E743A2200535542524FF9
:101440005554494E452043414C4C207461726765A8
:10145000743A2200747279696E6720746F20636138
:101460006C6C207375622D67636F64652066696CB0
:101470006573207769746820746F6F206D616E7971
:10148000206C6576656C732E204D4158206C657616
:10149000656C2069733A0053442063617264206F65
:1014A0006B006F70656E526F6F74206661696C655A
:1014B0006400766F6C756D652E696E697420666167
:1014C000696C656400534420696E697420666169C3
:1014D0006C006563686F3A004572726F723A00483B
:1014E000617264636F6465642044656661756C74E1
:1014F0002053657474696E6773204C6F6164656412
:101500000053746F7265642073657474696E6773D9
:101510002072657472696576656400204400204914
:10152000002020204D33303120500050494420739A
:10153000657474696E67733A00205A002059002060
:10154000204D323036205800486F6D65206F66663A
:1015500073657420286D6D293A00204500205A00DB
:1015600020580020420020540020204D32303520E9
:101570005300416476616E636564207661726961CF
:10158000626C65733A20533D4D696E2066656564F3
:101590007261746520286D6D2F73292C20543D4D88
:1015A000696E2074726176656C206665656472612F
:1015B000746520286D6D2F73292C20423D6D696E56
:1015C000696D756D207365676D656E742074696DE6
:1015D0006520286D73292C20583D6D6178696D75E3
:1015E0006D205859206A65726B20286D6D2F732904
:1015F0002C20205A3D6D6178696D756D205A206AE6
:1016000065726B20286D6D2F73292C2020453D6D50
:101610006178696D756D2045206A65726B20286D53
:101620006D2F73290020540020204D323034205378
:1016300000416363656C65726174696F6E3A205333
:101640003D616363656C65726174696F6E2C2054D3
:101650003D7265747261637420616363656C657269
:101660006174696F6E00204500205A0020590020E7
:10167000204D3230312058004D6178696D756D20F4
:10168000416363656C65726174696F6E20286D6D6E
:101690002F7332293A00204500205A00205900209B
:1016A000204D3230332058004D6178696D756D20C2
:1016B00066656564726174657320286D6D2F73298A
:1016C0003A00204500205A0020590020204D393290
:1016D00020580053746570732070657220756E69B0
:1016E000743A0053657474696E67732053746F7233
:1016F0006564006563686F3A00024361726420723A
:10170000656D6F766564004361726420696E736510
:1017100072746564002D2D3A2D2D002D2D2D005352
:1017200044002059000120004D36303000436861EC
:101730006E67652066696C616D656E7400466C6FDE
:1017400077203000466C6F77203000466C6F770052
:10175000466C6F770046616E207370656564004665
:10176000616E207370656564004E6F7A7A6C6500F7
:101770004E6F7A7A6C6500537065656400537065CE
:101780006564004D61696E00580059005A00457843
:101790007472756465720045787472756465720060
:1017A0004D6F7665205A004D6F76652059004D6F5C
:1017B00076652058004D6F76652061786973004D1D
:1017C0006F766520302E316D6D004D6F766520315E
:1017D0006D6D004D6F76652031306D6D0050726516
:1017E00070617265004D6F76652061786973004D98
:1017F00038300053776974636820706F77657220A2
:101800006F6E004D38310053776974636820706FD4
:10181000776572206F666600436F6F6C646F776EDA
:1018200000507265686561742041425300507265D2
:101830006865617420504C4100473238004175742E
:101840006F20686F6D65004D3834004469736162C4
:101850006C65207374657070657273004D61696E9C
:101860000053746F7265206D656D6F7279004E6FF5
:101870007A7A6C65004E6F7A7A6C650046616E20EC
:1018800073706565640046616E2073706565640001
:1018900054656D70657261747572650053746F7212
:1018A00065206D656D6F7279004E6F7A7A6C650098
:1018B0004E6F7A7A6C650046616E20737065656460
:1018C0000046616E2073706565640054656D7065D7
:1018D000726174757265005072656865617420414B
:1018E000425320636F6E66005072656865617420B4
:1018F000504C4120636F6E66005049442D430050A8
:1019000049442D43005049442D44005049442D443E
:10191000005049442D49005049442D490050494444
:101920002D50005049442D500046616E2073706563
:1019300065640046616E207370656564004E6F7A61
:101940007A6C65004E6F7A7A6C6500436F6E7472C4
:101950006F6C004573746570732F6D6D0045737403
:101960006570732F6D6D005A73746570732F6D6D94
:10197000005A73746570732F6D6D005973746570C0
:10198000732F6D6D005973746570732F6D6D0058F2
:1019900073746570732F6D6D005873746570732F59
:1019A0006D6D00412D7265747261637400412D721A
:1019B00065747261637400416D6178206500416DEA
:1019C0006178206500416D6178207A00416D617811
:1019D000207A00416D6178207900416D617820792D
:1019E00000416D6178207800416D61782078005663
:1019F00054726176206D696E005654726176206D66
:101A0000696E00566D696E00566D696E00566D61A7
:101A100078206500566D6178206500566D617820EC
:101A20007A00566D6178207A00566D6178207900D1
:101A3000566D6178207900566D6178207800566D7A
:101A4000617820780056652D6A65726B0056652DA9
:101A50006A65726B00567A2D6A65726B00567A2D34
:101A60006A65726B005678792D6A65726B005678DC
:101A7000792D6A65726B00416363656C0041636335
:101A8000656C00436F6E74726F6C00466562203146
:101A90003920323031352030393A35383A34330054
:101AA0003131353230305F73696E676C6500556C6B
:101AB00074696D616B65723A5F31352E30322E314B
:101AC000004669726D776172652076657273696F21
:101AD0006E004669726D7761726520766572736912
:101AE0006F6E00526573746F7265206661696C7306
:101AF000616665004C6F6164206D656D6F72790081
:101B000053746F7265206D656D6F7279004D6F74DF
:101B1000696F6E0054656D706572617475726500F1
:101B20004D61696E004D383420582059205A2045A7
:101B3000004D3234004D323320257300052E2E0027
:101B40004D61696E004E6F205344206361726400E2
:101B50005072696E742066726F6D20534400537426
:101B60006F70207072696E7400526573756D6520B8
:101B70007072696E74005061757365207072696E61
:101B80007400436F6E74726F6C0050726570617296
:101B9000650054756E6500496E666F2073637265EB
:101BA000656E004E414E494E495459494E46CDCC82
:101BB000CC3D0AD7233C17B7D13877CC2B3295953B
:101BC000E6241FB14F0A000020410000C842004037
:101BD0001C4620BCBE4CCA1B0E5AAEC59D740C944C
:101BE0005C880C948B9E0C941A9A0C94171F0C947E
:101BF00047100C940F100C9438AE0C94ED6C0C94B0
:101C000074100C94348A0C94BFB30C9495AD0C945E
:101C1000B2A90C9429100C9498AF0C9433100C9426
:101C200066440C94EC960C9419100C94D36C0C94A0
:101C30009B6C0C9483980C947E100C94D8120C948A
:101C4000E0100C94C46C0C9488100C94B7100C9495
:101C5000028D0C94021F0C947A890C94FB0F0C9447
:101C6000CD100C94F16C0C94C9100C946A880C94EF
:101C7000AD100C94F71E0C94EC1E0C94B8AB0C94A5
:101C8000D3100C94A6100C94AA6C0C94706C0C9449
:101C9000A35A0C949C100C94C5100C947F6C0C945B
:101CA0003D100C9438AB0C9478880C94BC910C9437
:101CB00034AA0C94DB100C94E0AE0C9439360C94DE
:101CC000C5AF0C94A3860C94B1100C944FAC0C943B
:101CD0009C8F0C94F96C0C94A0100C9466890C9455
:101CE00035A90C9400100C943D360C94A9100C945A
:101CF00021100C94BB100C940D1F0C94BF100C946D
:101D0000D7100C943D850C94B6AA0C9460100C94DA
:101D100005100C946A100C9455A50C9456100C9454
:101D2000F2AC0C94E8A83936E8A83D3611241FBE61
:101D3000CFEFD1E2DEBFCDBF00E00CBF14E0A0E0EA
:101D4000B2E0E0E8FEE701E00BBF02C007900D92B1
:101D5000A839B107D9F712E1A8E9B4E001C01D9292
:101D6000A136B107E1F71DE1CAE2DDE100E006C0FE
:101D700022970109FE010BBF0E94E8B8C632D107C5
:101D800080E00807A9F70E94C5B30C942EBF0C94FD
:101D900000001F920F920FB60F9211242F933F93C2
:101DA0008F939F93AF93BF938091990490919A04DE
:101DB000A0919B04B0919C043091980423E0230FE0
:101DC0002D3720F40196A11DB11D05C026E8230F73
:101DD0000296A11DB11D20939804809399049093BD
:101DE0009A04A0939B04B0939C0480919D049091CD
:101DF0009E04A0919F04B091A0040196A11DB11D65
:101E000080939D0490939E04A0939F04B093A0049C
:101E1000BF91AF919F918F913F912F910F900FBEE6
:101E20000F901F9018952FB7F894609199047091B6
:101E30009A0480919B0490919C042FBF08953FB712
:101E4000F89480919D0490919E04A0919F04B0917C
:101E5000A00426B5A89B05C02F3F19F00196A11D2F
:101E6000B11D3FBF6627782F892F9A2F620F711DF2
:101E7000811D911D42E0660F771F881F991F4A95AB
:101E8000D1F70895CF92DF92EF92FF92CF93DF9335
:101E90006B017C010E941F0FEB01C114D104E1040E
:101EA000F10479F00E941F0F6C1B7D0B683E73409C
:101EB000A0F381E0C81AD108E108F108C851DC4F4D
:101EC000ECCFDF91CF91FF90EF90DF90CF9008950E
:101ED0000197009739F0880F991F880F991F029773
:101EE0000197F1F70895789484B5826084BD84B534
:101EF000816084BD85B5826085BD85B5816085BD05
:101F0000EEE6F0E0808181608083E1E8F0E010821D
:101F1000808182608083808181608083E0E8F0E05E
:101F2000808181608083E1EBF0E080818460808348
:101F3000E0EBF0E0808181608083E1E9F0E0808186
:101F400082608083808181608083E0E9F0E080812D
:101F500081608083E1EAF0E080818260808380811B
:101F600081608083E0EAF0E0808181608083E1E24B
:101F7000F1E0808182608083808181608083E0E203
:101F8000F1E0808181608083EAE7F0E08081846015
:101F90008083808182608083808181608083808172
:101FA000806880831092C10008951F93CF93DF93C0
:101FB000182FEB0161E00E94E110209711F460E01E
:101FC00004C0CF3FD10539F461E0812FDF91CF917B
:101FD0001F910C941A11E12FF0E0E356FE4F44914B
:101FE00050E0FA013197E131F10508F091C0EE5867
:101FF000FF4F0C94D3B884B5806884BDC7BD8DC035
:1020000084B5806284BDC8BD88C08091800080682E
:1020100080938000D0938900C09388007EC0809117
:102020008000806280938000D0938B00C0938A00F0
:1020300074C08091B00080688093B000C093B300FA
:102040006CC08091B00080628093B000C093B400F7
:1020500064C080919000806880939000D093990034
:10206000C09398005AC08091900080628093900045
:10207000D0939B00C0939A0050C0809190008860DC
:1020800080939000D0939D00C0939C0046C08091A7
:10209000A00080688093A0008091A0008F7B809337
:1020A000A000D093A900C093A80037C08091A000E1
:1020B00080628093A000D093AB00C093AA002DC093
:1020C0008091A00088608093A000D093AD00C09361
:1020D000AC0023C080912001806880932001D093C0
:1020E0002901C093280119C080912001806280934A
:1020F0002001D0932B01C0932A010FC080912001B1
:10210000886080932001D0932D01C0932C0105C0DD
:10211000C038D1050CF058CF52CFDF91CF911F912D
:10212000089590E0FC013197E131F10508F048C0D5
:10213000ED57FF4F0C94D3B8809180008F7703C088
:10214000809180008F7D80938000089584B58F7783
:1021500002C084B58F7D84BD08958091B0008F77D3
:1021600003C08091B0008F7D8093B000089580916E
:1021700090008F7707C0809190008F7D03C0809181
:102180009000877F8093900008958091A0008F77C2
:1021900007C08091A0008F7D03C08091A000877F41
:1021A0008093A0000895809120018F7707C08091CF
:1021B00020018F7D03C080912001877F80932001C3
:1021C0000895CF93DF9390E0FC01ED51FE4F2491F1
:1021D000FC01E75DFD4F8491882349F190E0880F71
:1021E000991FFC01E757FD4FA591B49181599D4F6F
:1021F000FC01C591D4919FB7611108C0F8948C91EE
:10220000209582238C93888182230AC0623051F406
:10221000F8948C91322F309583238C938881822B74
:10222000888304C0F8948C91822B8C939FBFDF919C
:10223000CF9108950F931F93CF93DF931F92CDB744
:10224000DEB7282F30E0F901E356FE4F8491F90103
:10225000ED51FE4F1491F901E75DFD4F049100230C
:10226000C9F0882321F069830E9491106981E02FD1
:10227000F0E0EE0FFF1FE159FD4FA591B4919FB71C
:10228000F8948C91611103C01095812301C0812BBA
:102290008C939FBF0F90DF91CF911F910F91089565
:1022A0001F920F920FB60F9211240BB60F922F931D
:1022B0003F934F935F936F937F938F939F93AF93CE
:1022C000BF93EF93FF938091A5049091A604892B6F
:1022D00029F0E091A504F091A6041995FF91EF91E2
:1022E000BF91AF919F918F917F916F915F914F912E
:1022F0003F912F910F900BBE0F900FBE0F901F902C
:1023000018951F920F920FB60F9211240BB60F92D1
:102310002F933F934F935F936F937F938F939F93ED
:10232000AF93BF93EF93FF938091A7049091A8047C
:10233000892B29F0E091A704F091A8041995FF9149
:10234000EF91BF91AF919F918F917F916F915F912D
:102350004F913F912F910F900BBE0F900FBE0F909A
:102360001F9018951F920F920FB60F9211240BB663
:102370000F922F933F934F935F936F937F938F931E
:102380009F93AF93BF93EF93FF938091A904909194
:10239000AA04892B29F0E091A904F091AA041995C7
:1023A000FF91EF91BF91AF919F918F917F916F912D
:1023B0005F914F913F912F910F900BBE0F900FBEE9
:1023C0000F901F9018951F920F920FB60F92112425
:1023D0000BB60F922F933F934F935F936F937F931F
:1023E0008F939F93AF93BF93EF93FF938091AB0431
:1023F0009091AC04892B29F0E091AB04F091AC04EE
:102400001995FF91EF91BF91AF919F918F917F911E
:102410006F915F914F913F912F910F900BBE0F9055
:102420000FBE0F901F9018951F920F920FB60F922C
:1024300011240BB60F922F933F934F935F936F939B
:102440007F938F939F93AF93BF93EF93FF9380916D
:10245000A1049091A204892B29F0E091A104F091AC
:10246000A2041995FF91EF91BF91AF919F918F9128
:102470007F916F915F914F913F912F910F900BBE84
:102480000F900FBE0F901F9018951F920F920FB6CE
:102490000F9211240BB60F922F933F934F935F939C
:1024A0006F937F938F939F93AF93BF93EF93FF931C
:1024B0008091A3049091A404892B29F0E091A304B6
:1024C000F091A4041995FF91EF91BF91AF919F9165
:1024D0008F917F916F915F914F913F912F910F90CD
:1024E0000BBE0F900FBE0F901F9018951F920F926A
:1024F0000FB60F9211240BB60F922F933F934F9369
:102500005F936F937F938F939F93AF93BF93EF935B
:10251000FF938091AD049091AE04892B29F0E09156
:10252000AD04F091AE041995FF91EF91BF91AF9179
:102530009F918F917F916F915F914F913F912F91DB
:102540000F900BBE0F900FBE0F901F9018951F920B
:102550000F920FB60F9211240BB60F922F933F9349
:102560004F935F936F937F938F939F93AF93BF939B
:10257000EF93FF938091AF049091B004892B29F0E1
:10258000E091AF04F091B0041995FF91EF91BF91E4
:10259000AF919F918F917F916F915F914F913F91FB
:1025A0002F910F900BBE0F900FBE0F901F9018959C
:1025B000CF92DF92EF92FF920F931F93CF93DF930F
:1025C0006C017A01EB01E60EF71E00E010E0CE157B
:1025D000DF0561F06991D601ED91FC910190F081E8
:1025E000E02DC6011995080F191FF1CFC801DF9121
:1025F000CF911F910F91FF90EF90DF90CF900895B2
:102600006115710581F0DB010D900020E9F7AD0146
:1026100041505109461B570BDC01ED91FC910280A2
:10262000F381E02D199480E090E008950C9400135C
:10263000DC01ED91FC910190F081E02D1994FC01F9
:1026400065917591859194910895CF92DF92EF9263
:10265000FF920F931F93CF93DF93EC01CC0FDD1FFD
:10266000CC0FDD1FCE01865D974F0E941F13FE0128
:10267000E456F94FC080D180E280F3808E01085586
:10268000194FA70196010E94D3B3F80160837183AB
:1026900082839383CE018E5B974F0E941F138E011E
:1026A0000057194FA70196010E94D3B3F801608328
:1026B000718382839383CE018A5C974F0E941F139C
:1026C000CB5EDD4FA70196010E94D3B36883798367
:1026D0008A839B83DF91CF911F910F91FF90EF90A1
:1026E000DF90CF9008952F923F924F925F926F921A
:1026F0007F928F929F92AF92BF92CF92DF92EF9292
:10270000FF920F931F93CF93DF9300D000D0CDB7EC
:10271000DEB79A838983FC01E15FF74F94905C01F7
:10272000AA0CBB1CAA0CBB1CC5018855994F1C01E7
:10273000DC011D921D921D921C92139724EB36E032
:1027400040EB56E06CEA76E088EA96E00E94D159C8
:10275000C501825E974F0E941F136B017C01692D9A
:10276000772767FD7095872F972F0E944EB52B0115
:102770003C01F501EA58F94FFC83EB8320E030E09F
:1027800040EC5FE3C701B6010E9481B7A30192014B
:102790000E9481B7AB81BC816D937D938D939C9397
:1027A0001397F501E55DFD4FFE83ED836081718137
:1027B0008281938160930F027093100280931102C3
:1027C0009093120220E030E040E752E40E94B3B45C
:1027D00028E8C22E26E0D22E7B018C0122E836E0CA
:1027E0004EE756E06AE776E086E796E00E943750CB
:1027F0000E944B63D1011D921D921D921C92139752
:1028000024EB36E040EB56E06CEA76E088EA96E0AE
:102810000E94D159C5018E5E974F0E941F134B0134
:102820005C019058A30192010E9481B7EB81FC8169
:10283000608371838283938320E030E040E752E439
:1028400060910F027091100280911102909112021A
:102850000E94B3B47B018C0122E836E04EE756E0DB
:102860006AE776E086E796E00E9437500E944B6365
:10287000A5019401C501B4010E94D3B3A301920143
:102880000E9481B7AB81BC816D937D938D939C93A6
:10289000139720E030E040E05FE3ED81FE8160814E
:1028A0007181828193810E9481B760930F0270933E
:1028B0001002809311029093120220E030E040E772
:1028C00052E40E94B3B47B018C0122E836E04EE76B
:1028D00056E06AE776E086E796E00E9437500E946D
:1028E0004B6389819A810E942513F1018081918136
:1028F000A281B381EB81FC8180839183A283B38326
:1029000010920F02109210021092110210921202F5
:102910000E94865BE981FA81E357F94F81E0808369
:1029200026960FB6F894DEBF0FBECDBFDF91CF91D4
:102930001F910F91FF90EF90DF90CF90BF90AF90DD
:102940009F908F907F906F905F904F903F902F90CF
:102950000895FC012491222341F03091C00035FFFD
:10296000FCCF2093C6000196F4CF22E030E08BE448
:1029700099E00C947238FC012491222341F03091AB
:10298000C00035FFFCCF2093C6000196F4CF2AE0AB
:1029900030E08BE499E00C94C137CF93DF931F9222
:1029A0001F92CDB7DEB780915B1290915C129E01B1
:1029B0002F5F3F4F009719F42156324102C0281B68
:1029C000390B3A83298389819A810F900F90DF9187
:1029D000CF9108952091CB043091CC04243031055F
:1029E0000CF06AC04091CD045091CE0460E6649F23
:1029F0009001659F300D1124BC01C9018B529B4F82
:102A00000E9421BCEEE4F8E08491882341F090918B
:102A1000C00095FFFCCF8093C6003196F5CFE4E06F
:102A2000F8E08491882341F09091C00095FFFCCF9D
:102A30008093C6003196F5CF8091CD049091CE045D
:102A400020E6289FF001299FF00D1124EB52FB4F47
:102A50008191882339F09091C00095FFFCCF80933D
:102A6000C600F6CFE2E0F8E08491882341F090912F
:102A7000C00095FFFCCF8093C6003196F5CF8091C2
:102A8000C00085FFFCCF8AE08093C6008091CD0412
:102A90009091CE04019664E070E00E947EB890931D
:102AA000CE048093CD048091CB049091CC04019608
:102AB0009093CC048093CB0408952091CB04309163
:102AC000CC04243031050CF06AC04091CD04509103
:102AD000CE0460E6649F9001659F300D1124BC0117
:102AE000C9018B529B4F0E94ADBBEEE4F8E084918C
:102AF000882341F09091C00095FFFCCF8093C600E1
:102B00003196F5CFE7EFF7E08491882341F090917B
:102B1000C00095FFFCCF8093C6003196F5CF809121
:102B2000CD049091CE0420E6289FF001299FF00D5E
:102B30001124EB52FB4F8191882339F09091C00012
:102B400095FFFCCF8093C600F6CFE5EFF7E08491C8
:102B5000882341F09091C00095FFFCCF8093C60080
:102B60003196F5CF8091C00085FFFCCF8AE080933D
:102B7000C6008091CD049091CE04019664E070E08F
:102B80000E947EB89093CE048093CD048091CB04B4
:102B90009091CC0401969093CC048093CB0408953B
:102BA000809A889A269A2E980895809A88980895EF
:102BB0000E94D01540E052EC61E070E08BE499E0B7
:102BC0000E947A36EFEEF7E08491882341F09091ED
:102BD000C00095FFFCCF8093C6003196F5CF809161
:102BE000C00085FFFCCF8AE08093C6008EE498E0A9
:102BF000FC012491222341F03091C00035FFFCCF2D
:102C00002093C6003196F5CF24B720FF14C0E7EE1D
:102C1000F7E03491332341F04091C00045FFFCCFF1
:102C20003093C6003196F5CF3091C00035FFFCCF10
:102C30003AE03093C60021FF14C0E7EDF7E034918D
:102C4000332341F04091C00045FFFCCF3093C600D4
:102C50003196F5CF3091C00035FFFCCF3AE030938C
:102C6000C60022FF14C0E6ECF7E03491332341F0B4
:102C70004091C00045FFFCCF3093C6003196F5CFA0
:102C80003091C00035FFFCCF3AE03093C60023FFFF
:102C900014C0E6EBF7E03491332341F04091C000DB
:102CA00045FFFCCF3093C6003196F5CF3091C00080
:102CB00035FFFCCF3AE03093C60025FF14C0E6EAAA
:102CC000F7E02491222341F03091C00035FFFCCF82
:102CD0002093C6003196F5CF2091C00025FFFCCF90
:102CE0002AE02093C60014BEEFE9F7E024912223E6
:102CF00041F03091C00035FFFCCF2093C6003196E3
:102D0000F5CFE9E9F7E02491222341F03091C000AA
:102D100035FFFCCF2093C6003196F5CF2091C0003F
:102D200025FFFCCF2AE02093C600FC012491EEE4AD
:102D3000F8E0222349F03091C00035FFFCCF20930A
:102D4000C60031962491F5CFE9E8F7E024912223DB
:102D500041F03091C00035FFFCCF2093C600319682
:102D6000F5CFE4E7F7E02491222341F03091C00051
:102D700035FFFCCF2093C6003196F5CFE8E6F7E0AB
:102D80002491222341F03091C00035FFFCCF2093E5
:102D9000C6003196F5CFEAE5F7E02491222341F011
:102DA0003091C00035FFFCCF2093C6003196F5CF9F
:102DB0002091C00025FFFCCF2AE02093C600EFE45D
:102DC000F7E02491222341F03091C00035FFFCCF81
:102DD0002093C6003196F5CFE3E4F7E02491222357
:102DE00041F03091C00035FFFCCF2093C6003196F2
:102DF000F5CF2091C00025FFFCCF2AE02093C6002C
:102E0000FC018491EEE4F8E0882349F09091C00041
:102E100095FFFCCF8093C60031968491F5CFE4E313
:102E2000F7E08491882341F09091C00095FFFCCF9A
:102E30008093C6003196F5CF0E94CD144AE050E051
:102E4000BC018BE499E00E949237EDE1F7E08491B8
:102E5000882341F09091C00095FFFCCF8093C6007D
:102E60003196F5CF4AE050E060ED74E08BE499E0F4
:102E70000E9492378091C00085FFFCCF8AE080934A
:102E8000C6001092D1041092D2041092D304109272
:102E9000D4040E94AB7E0E9479660E94E74F0E9494
:102EA000AA7F0E94C9620E94DC94FFEF23ED80E3B9
:102EB000F15020408040E1F700C00000089580916B
:102EC000C5049091C60460E070E001960C94ECB8E3
:102ED0008091C5049091C6044AE050E060E070E043
:102EE00001960C9469BA682F70E02091CF0430915C
:102EF000D00440E6429FC001439F900D11248B52A5
:102F00009B4F0E9416BC9093C6048093C50421E099
:102F1000892B09F420E0822F08950E94130F6093FB
:102F2000C1047093C2048093C3049093C4040895B1
:102F30000E94130F6093C1047093C2048093C30472
:102F40009093C404E091CF04F091D004EF52FB4F72
:102F50008081811114C0EBE4F3E08491882341F077
:102F60009091C00095FFFCCF8093C6003196F5CFBD
:102F70008091C00085FFFCCF8AE08093C600089551
:102F80008BE499E00E94CC36EEE4F3E08491882350
:102F900041F09091C00095FFFCCF8093C600319620
:102FA000F5CF40915A0650915B0660915C06709196
:102FB0005D064F5F5F4F6F4F7F4F2AE030E08BE43D
:102FC00099E00E946B378091C00085FFFCCF8AE0BA
:102FD0008093C6000C9498172F923F924F925F9265
:102FE0006F927F928F929F92AF92BF92CF92DF9219
:102FF000EF92FF920F931F93CF93DF93CDB7DEB77E
:103000006F970FB6F894DEBF0FBECDBF60E6D62E29
:1030100074E0E72EF12CE0EEF5E0B490EAE0CE2E7D
:10302000E6E5F6E0A490992493948091CC099091E0
:10303000CD092091CE093091CF09821B930B8F7758
:103040009927892B39F08091CB049091CC04049777
:103050000CF44DC08091C006882309F48CC3809184
:10306000C8049091C904892B09F085C38091CB04D1
:103070009091CC04892B11F41092B104E3ECF5E0AB
:1030800024904CE3C42ED12CE12CF12C50E1452EA0
:103090005EE0552E612C712C8E010F5F1F4F30E6C4
:1030A000332EEEE4F8E094919F8F409141095091C6
:1030B00042096091430970914409809139099091C6
:1030C0003A09A0913B09B0913C09481759076A0792
:1030D0007B0708F050C38091CB049091CC040497F7
:1030E0000CF049C38091B104811145C321C28BE426
:1030F00099E00E94B0368093CA042091C8043091B0
:10310000C9048A3061F08D3051F08A3321F49091F6
:10311000C704992321F02F3531050CF48DC12115F9
:10312000310509F4A7C18091CD049091CE04D89EB9
:103130008001D99E100D1124F801E20FF31FEB520C
:10314000FB4F10822091C704211171C11092C70456
:10315000FC01EF52FB4F108298012B523B4F39017B
:103160006EE470E0C9010E9416BC009709F4A2C089
:103170009093C6048093C50486199709800F911F08
:103180004AE050E060E070E08A529B4F0E9469BACA
:1031900060935E0670935F0680936006909361066D
:1031A00040905A0650905B0660905C0670905D06F9
:1031B0003FEF431A530A630A730A0091CD0410913A
:1031C000CE04641575058605970509F456C1D09E91
:1031D000C001D19E900D11246FEF76E08B529B4F72
:1031E0000E94DBBB892B09F048C1E4E5F8E084913B
:1031F000882341F09091C00095FFFCCF8093C600DA
:103200003196F5CFECECF6E08491882341F0909173
:10321000C00095FFFCCF8093C6003196F5CF40915A
:103220005A0650915B0660915C0670915D062AE03B
:1032300030E08BE499E00E946B378091C00085FFFD
:10324000FCCF32C09093C6048093C50484199509BD
:10325000860D971D60E070E08A529B4F0E94ECB88B
:103260000E941BB5212F30E02617370709F45EC0F6
:10327000E4E5F8E0849181114BC1EDEAF6E0849138
:1032800081114EC140915A0650915B0660915C06D7
:1032900070915D062AE030E08BE499E00E946B3784
:1032A0008091C00085FFFCCF8AE08093C6000E9419
:1032B000C01737C06AE270E0C3010E9416BC892BB8
:1032C00009F444C0E4E5F8E08491882341F090914A
:1032D000C00095FFFCCF8093C6003196F5CFE9E59D
:1032E000F6E08491882341F09091C00095FFFCCFD7
:1032F0008093C6003196F5CF40915A0650915B06F7
:1033000060915C0670915D062AE030E08BE499E004
:103310000E946B378091C00085FFFCCF8AE08093CC
:10332000C6001092C9041092C80425C280915E069E
:1033300090915F06A0916006B091610680935A0655
:1033400090935B06A0935C06B0935D068091CD04DC
:103350009091CE04D89E8001D99E100D1124C801F1
:103360008B529B4F3C0167E470E00E9416BC0097B3
:1033700009F448C09093C6048093C5048619970940
:10338000800F911F60E070E08A529B4F0E94ECB862
:103390000E941BB564307105A8F58091B3048111BA
:1033A00019C08091BE0681112DC08A2DE6E5F6E098
:1033B000882349F09091C00095FFFCCF8093C60010
:1033C00031968491F5CF8091C00085FFFCCFC092EB
:1033D000C60018C08B2DE0EEF5E0882349F09091EF
:1033E000C00095FFFCCF8093C60031968491F5CF45
:1033F0008091C00085FFFCCFC092C60086ED95E0AD
:103400000E9469948091CD049091CE040196B701F9
:103410000E947EB89093CE048093CD048091CB041B
:103420009091CC0401969093CC048093CB0410929D
:10343000C9041092C804F9CD8B3311F49092C704DB
:103440009091C7049111F1CD4091CD045091CE04DB
:10345000B9016F5F7F4F7093C9046093C804D49E15
:10346000F001D59EF00D1124E20FF31FEB52FB4F3C
:103470008083DBCD1092C7047EC1D09E3001D19EE7
:10348000700C112493012B523B4F29016AE270E02A
:10349000C9010E9416BC009769F5E4E5F8E0849143
:1034A000882341F09091C00095FFFCCF8093C60027
:1034B0003196F5CFE3E8F6E08491882341F09091CE
:1034C000C00095FFFCCF8093C6003196F5CF4091A8
:1034D0005A0650915B0660915C0670915D062AE089
:1034E00030E08BE499E00E946B378091C00085FF4B
:1034F000FCCFDACE20E010E0F301E20FF11DEB5239
:10350000FB4F30813A3209F49DCE2F5F1327F4CF61
:103510009091C00095FFFCCF8093C6003196AACE53
:103520009091C00095FFFCCF8093C6003196A7CE46
:103530008091940890919508A0919608B091970871
:103540008093410990934209A0934309B0934409A1
:103550008CE898E00E94623D482F8093CA048A302C
:10356000B9F04D30A9F0433229F42091C704222349
:1035700079F002C04A33C9F32091C8043091C904DC
:103580002F3531052CF48F3FAFEF9A0709F0D4C0E7
:103590004091410950914209609143097091440959
:1035A0008091390990913A09A0913B09B0913C0969
:1035B000481759076A077B0708F482C0822DE3EC9D
:1035C000F5E0882349F09091C00095FFFCCF8093EF
:1035D000C60031968491F5CF8091C00085FFFCCF65
:1035E0008AE08093C6000E94130F6093B504709325
:1035F000B6048093B7049093B8048090B904909077
:10360000BA04A090BB04B090BC04681979098A0977
:103610009B0928EE33E040E050E00E9492B8490157
:103620005A01CA01B901A70196010E9492B8CA01C4
:10363000B901A70196010E9492B87F936F93C501CB
:10364000B401A30192010E9492B83F932F93AFEA75
:10365000B5E0BF93AF931F930F930E9445BC8F8D2E
:103660000FB6F894DEBF0FBECDBFEEE4F8E08823BE
:1036700049F09091C00095FFFCCF8093C600319631
:103680008491F5CFF8018191882339F09091C000A1
:1036900095FFFCCF8093C600F6CF8091C00085FFD8
:1036A000FCCF8AE08093C600C8010E945A948EEB3A
:1036B00096E00E94C97861E08EEB96E00E942C763D
:1036C0008091CA04833219F481E08093B10420917F
:1036D000C8043091C9042115310509F4CBCE80917D
:1036E000CD049091CE04389EF001399EF00D112446
:1036F000E20FF31FEB52FB4F1082FC01EF52FB4F26
:1037000021E020832091CB043091CC042F5F3F4FE8
:103710003093CC042093CB04019664E070E00E94C7
:103720007EB89093CE048093CD041092C70410927B
:10373000C9041092C804B9CC4B3319F441E040934A
:10374000C7044091C7044111AACC4091CD045091C7
:10375000CE04B9016F5F7F4F7093C9046093C804B2
:10376000349EF001359EF00D1124E20FF31FEB5251
:10377000FB4F80839ACC6F960FB6F894DEBF0FBED6
:10378000CDBFDF91CF911F910F91FF90EF90DF9010
:10379000CF90BF90AF909F908F907F906F905F90F1
:1037A0004F903F902F9008958F929F92AF92BF922B
:1037B000CF92DF92EF92FF920F931F93CF93DF93FD
:1037C000FFE0EF2EF4E0FF2E08EA16E0C6E7D6E0B1
:1037D000AAEBCA2EA6E0DA2EF70181917F010E94A2
:1037E0007317882319F10E945F174B015C01F601E2
:1037F0008081811103C06091550601C061E070E0D5
:1038000080E090E00E944EB5F80120813181428134
:1038100053810E9481B79B01AC01C501B4010E9494
:10382000D3B3688379838A839B8309C0F80180813D
:103830009181A281B38188839983AA83BB830C5F22
:103840001F4F2496FFEFCF1ADF0A83E1E81684E0CA
:10385000F80611F686E40E9473178823D9F00E94B7
:103860005F176B017C016093660670936706809317
:1038700068069093690620E030E0A9010E94AFB687
:10388000181644F4C0920F02D0921002E092110276
:10389000F0921202DF91CF911F910F91FF90EF9064
:1038A000DF90CF90BF90AF909F908F9008950E942F
:1038B000D41B89E40E947317882359F00E945F1774
:1038C00060936A0670936B0680936C0690936D0606
:1038D00008C010926A0610926B0610926C06109245
:1038E0006D068AE40E947317882359F00E945F17BF
:1038F00060936E0670936F068093700690937106C6
:10390000089510926E0610926F0610927006109233
:10391000710608950895CF92DF92EF92FF920F9370
:103920001F930E94130F6093C1047093C20480938D
:10393000C3049093C4042091760630917706409199
:103940007806509179066091A8067091A906809139
:10395000AA069091AB060E94ACB4811179C0209167
:103960007A0630917B0640917C0650917D066091ED
:10397000AC067091AD068091AE069091AF060E94A4
:10398000ACB4811165C020E030E040E752E46091C2
:103990000F027091100280911102909112020E9408
:1039A000B3B4B8E8CB2EB6E0DB2E7B018C0122E865
:1039B00036E04EE756E06AE776E086E796E00E945A
:1039C00037508091760690917706A0917806B09155
:1039D00079068093A8069093A906A093AA06B093AF
:1039E000AB0680917A0690917B06A0917C06B091FF
:1039F0007D068093AC069093AD06A093AE06B0937F
:103A0000AF0680917E0690917F06A0918006B091CE
:103A100081068093B0069093B106A093B206B0934E
:103A2000B3068091820690918306A0918406B0919E
:103A300085068093B4069093B506A093B606B0931E
:103A4000B7061F910F91FF90EF90DF90CF900895F0
:103A50006091290270912A02882777FD8095982F1E
:103A60000E944EB520910F02309110024091110238
:103A7000509112020E9481B720E030E040E752E40A
:103A80000E94B3B420E030E048EC52E488CFAF921B
:103A9000BF92CF92DF92EF92FF920F931F93CF933B
:103AA000DF93D82F20916E0630916F0640917006FB
:103AB0005091710660916A0670916B0680916C0658
:103AC00090916D060E94BCB6C62F172F082FF92EB5
:103AD0006091290270912A02882777FD8095982F9E
:103AE0000E944EB520910F023091100240911102B8
:103AF000509112020E9481B720E030E040E752E48A
:103B00000E94B3B420E030E048EC52E40E94B3B429
:103B1000209188062F93DF93FF920F931F93CF93EB
:103B20005B016C01C2E0EC2E01E020E04AE656E0C9
:103B300066E776E088EA96E00E941649809176066C
:103B400090917706A0917806B09179068093A806A7
:103B50009093A906A093AA06B093AB0680917A062B
:103B600090917B06A0917C06B0917D068093AC0677
:103B70009093AD06A093AE06B093AF0680917E06FB
:103B800090917F06A0918006B09181068093B00647
:103B90009093B106A093B206B093B30680918206CB
:103BA00090918306A0918406B09185068093B40617
:103BB0009093B506A093B606B093B7060E94130F74
:103BC0006093C1047093C2048093C3049093C404AF
:103BD0000F900F900F900F900F900F90DF91CF915B
:103BE0001F910F91FF90EF90DF90CF90BF90AF901B
:103BF0000895F8940E944167159A10928D06179ABD
:103C000010928E06429A10928F06A09A60E08CE085
:103C10000E94E110E4E5F8E08491882341F090915E
:103C2000C00095FFFCCF8093C6003196F5CFECE243
:103C3000F3E08491882341F09091C00095FFFCCF80
:103C40008093C6003196F5CF8091C00085FFFCCFF0
:103C50008AE08093C60083E293E00E9478940E94F9
:103C6000D515FFCFCF92DF92EF92FF920F931F9364
:103C70000E94130F0091BD041091BE042091BF0457
:103C80003091C004C090C104D090C204E090C3043D
:103C9000F090C4046C197D098E099F090617170757
:103CA0002807390730F4012B022B032B11F00E9457
:103CB000F91D80910B0290910C02A0910D02B09120
:103CC0000E02892B8A2B8B2B09F10E94130F009176
:103CD000C1041091C2042091C3043091C404601B3C
:103CE000710B820B930B00910B0210910C0220912F
:103CF0000D0230910E02061717072807390730F416
:103D00009091DE0B8091DD0B981741F01F910F9180
:103D1000FF90EF90DF90CF900C941B50159A10926B
:103D20008D06179A10928E06429A10928F06A09ACC
:103D3000EDCF0E9441678091B304811138C081E0CA
:103D40008093B30480915A0690915B06A0915C0623
:103D5000B0915D068093560690935706A09358063F
:103D6000B0935906E4E5F8E08491882341F09091FE
:103D7000C00095FFFCCF8093C6003196F5CFEDEAE9
:103D8000F2E08491882341F09091C00095FFFCCF30
:103D90008093C6003196F5CF8091C00085FFFCCF9F
:103DA0008AE08093C60083EA92E00C9469940895B7
:103DB0008091B304089567707727E82FF0E0E35609
:103DC000FE4F849190E0FC013697EC30F10578F5D8
:103DD000EC56FF4F0C94D3B88091B100887F80934C
:103DE000B1008091B100862B8093B100089580913D
:103DF0009100887F8093910080919100862B809321
:103E0000910008958091A100887F8093A100809106
:103E1000A100862B8093A100089580912101887FC5
:103E20008093210180912101862B809321010895A7
:103E3000CF93DF93EC01809188068093B40484E5EE
:103E40000E947317811102C080E075C00E945F1745
:103E50000E9420B56093B4046623B1F3EEE4F8E069
:103E60008491882341F09091C00095FFFCCF80930E
:103E7000C6003196F5CFCD36D105B9F054F4C83629
:103E8000D105B1F0C936D10509F045C0E0E3F3E052
:103E900021C0CA3DD10531F0CD3DD105E1F5EBEEB4
:103EA000F2E036C0E2E0F3E029C0E9E1F3E01CC053
:103EB000E7E4F3E08191882371F19091C00095FFD0
:103EC000FCCF8093C600F6CF9091C00095FFFCCF49
:103ED0008093C60081918111F7CF1DC09091C000E1
:103EE00095FFFCCF8093C60081918111F7CF13C05D
:103EF0009091C00095FFFCCF8093C6008191811105
:103F0000F7CF09C09091C00095FFFCCF8093C60009
:103F100081918111F7CF40E050E06091B4048BE4CF
:103F200099E00E94CD378091C00085FFFCCF8AE0E8
:103F30008093C60081E0DF91CF9108952F923F9248
:103F40004F925F926F927F928F929F92AF92BF92A9
:103F5000CF92DF92EF92FF920F931F93CF93DF9355
:103F6000CDB7DEB7E5970FB6F894DEBF0FBECDBF75
:103F700087E40E947317882309F486C30E945F17A1
:103F80000E941BB564307105D9F144F462307105AB
:103F900021F15CF577FF17C00C94AC336A357105DD
:103FA00009F41EC334F46C31710509F471C00C942A
:103FB000AC336B35710509F417C36C35710509F421
:103FC00018C30C94AC338091B304811106C00E94D5
:103FD000D41B0E948B1C0C9441358091B304811139
:103FE00004C00E94571C81E007C08091B304811176
:103FF00007C00E94571C80E00E94471D0C94413569
:1040000086EA95E00E94699480E50E9473178823F0
:1040100039F00E945F170E9420B54B015C0103C07C
:10402000812C912C540183E50E947317882361F041
:104030000E945F1720E030E04AE754E40E9481B715
:104040000E9420B54B015C010E944B630E94130F3C
:104050006B017C01C80CD91CEA1CFB1C0E94130FCD
:104060006093C1047093C2048093C3049093C4040A
:104070000E94130F6C157D058E059F0510F00C94A2
:10408000AC330E946E640E94321E0E940595F0CFF0
:1040900080910F0290911002A0911102B091120232
:1040A0008093620690936306A0936406B0936506BE
:1040B0008091290290912A029093B9068093B806C4
:1040C00084E690E090932A02809329020E94130FC5
:1040D0006093C1047093C2048093C3049093C4049A
:1040E00081E00E948D5B8091A8069091A906A09125
:1040F000AA06B091AB068093760690937706A093BC
:104100007806B09379068091AC069091AD06A091A7
:10411000AE06B091AF0680937A0690937B06A0938B
:104120007C06B0937D068091B0069091B106A09177
:10413000B206B091B30680937E0690937F06A0935B
:104140008006B09381068091B4069091B506A09147
:10415000B606B091B7068093820690938306A0932B
:104160008406B093850610920F02109210021092EE
:1041700011021092120288E50E947317882311F031
:1041800090E00AC089E50E9473178111F9CF8AE592
:104190000E94731791E098279093130291110CC01D
:1041A00088E50E947317882309F46CC189E50E9491
:1041B0007317882309F466C11092A8061092A90605
:1041C0001092AA061092AB061092AC061092AD06A1
:1041D0001092AE061092AF06EFE0F8E0149124EBD7
:1041E00036E040EB56E06CEA76E088EA96E00E9422
:1041F000D1598EE198E00E941F136B017C0120E0F1
:1042000030E040EC5FE30E9481B74B015C01612F1D
:10421000772767FD7095872F972F0E944EB59B01DA
:10422000AC01C501B4010E9481B76093760670931A
:104230007706809378069093790682E298E00E9450
:104240001F134B015C01E0E1F8E0149120E030E045
:1042500040EC5FE30E9481B72B013C01612F77277F
:1042600067FD7095872F972F0E944EB59B01AC017B
:10427000C301B2010E9481B760937A0670937B06F6
:1042800080937C0690937D0620912B0230912C0226
:1042900040912D0250912E0220930F023093100274
:1042A000409311025093120240902F02509030021E
:1042B0006090310270903202C301B2010E94ACB42E
:1042C00087FF08C040920F025092100260921102C4
:1042D00070921202A5019401C701B6010E94AFB607
:1042E000181614F00C94AF33A7019601C501B40160
:1042F0000E94B3B49B01AC010E9481B720E030E082
:1043000040E85FE30E94D3B30E94EEB79B01AC018B
:1043100060910F027091100280911102909112022F
:104320000E9481B760930F02709310028093110274
:104330009093120220E030E040E752E460910F02D7
:104340007091100280911102909112020E94B3B4F8
:10435000E8E8CE2EE6E0DE2E7B018C0122E836E096
:104360004EE756E06AE776E086E796E00E9437502F
:104370000E944B6380E090E00E94251381E090E072
:104380000E94251324EB36E040EB56E06CEA76E021
:1043900088EA96E00E94D1598091A8069091A906DA
:1043A000A091AA06B091AB0680937606909377060B
:1043B000A0937806B09379068091AC069091AD06F3
:1043C000A091AE06B091AF0680937A0690937B06DB
:1043D000A0937C06B0937D0620E030E040E752E4F5
:1043E00060910F027091100280911102909112025F
:1043F0000E94B3B47B018C0122E836E04EE756E020
:104400006AE776E086E796E00E94375010920F0246
:104410001092100210921102109212020E944B632D
:104420000E94865B8091760690917706A09178062F
:10443000B09179068093A8069093A906A093AA0646
:10444000B093AB0680917A0690917B06A0917C0692
:10445000B0917D068093AC069093AD06A093AE0616
:10446000B093AF0680917E0690917F06A091800662
:10447000B09181068093B0069093B106A093B206E6
:10448000B093B3068091130281110C94B53388E583
:104490000E94731781110C94B5338091130281111E
:1044A0000C94BB3389E50E94731781110C94BB33C4
:1044B00088E50E9473178823D1F00E946817672B44
:1044C000682B692BA1F00E945F1720919C06309108
:1044D0009D0640919E0650919F060E94D3B3609323
:1044E000A8067093A9068093AA069093AB0689E567
:1044F0000E9473178823D1F00E946817672B682BDE
:10450000692BA1F00E945F172091A0063091A106AF
:104510004091A2065091A3060E94D3B36093AC06CB
:104520007093AD068093AE069093AF068091130210
:1045300081110C94C1338AE50E94731781110C9488
:10454000C1338AE50E9473178823D1F00E9468174F
:10455000672B682B692BA1F00E945F172091A4069E
:104560003091A5064091A6065091A7060E94D3B3AC
:104570006093B0067093B1068093B2069093B30631
:1045800024EB36E040EB56E06CEA76E088EA96E011
:104590000E94D1598091620690916306A0916406B1
:1045A000B091650680930F0290931002A0931102C0
:1045B000B09312028091B8069091B90690932A02A6
:1045C000809329020E94130F6093C1047093C20468
:1045D0008093C3049093C4040E94865B0C94AC3314
:1045E000109255060C94AC3381E0809355060C94E0
:1045F000AC3385E40E947317811102C00E944B63A3
:104600006FE0C62E64E0D62E7CE9E72E76E0F72E2A
:1046100008EA16E0B12CF60181916F010E94731730
:10462000882339F1F3E0BF120CC00E945F17F80134
:10463000608371838283938384EB96E00E94765A31
:1046400018C00E945F17F701208131814281538198
:104650000E94D3B3F801608371838283938324EB38
:1046600036E040EB56E06CEA76E088EA96E00E949D
:10467000D159B394F4E0EF0EF11C0C5F1F4F24E00E
:10468000B212C9CF0C94AC338DE40E947317882307
:1046900011F40C94DB320E945F170E941BB5623745
:1046A000710511F40C94042B0CF0A7C06F31710547
:1046B00009F441C3A4F56631710509F4E0C1BCF405
:1046C0006131710509F49DC134F46230710508F45B
:1046D0003DC10C94AC336431710509F49CC10CF0FC
:1046E000C8C16231710509F4B1C60C94AC336A31AA
:1046F000710509F4F9C13CF46831710509F4DEC1B2
:104700000CF4C3C1EBC16C31710509F401C20CF4A6
:10471000F9C16E31710509F431C20C94AC336435C2
:10472000710509F493C6A4F56035710509F476C6E0
:1047300054F46032710509F460C26A32710509F4FB
:1047400057C30C94AC336235710509F476C60CF08E
:1047500078C60E9441670E944B63A09A0E94B4638E
:10476000109287061092860668EE73E080E090E073
:104770000E94420F0E944B630E94D51510921402B2
:1047800089EC94E00E9469940E9405950C94AC33E6
:104790006936710509F486C324F56C35710509F491
:1047A0008DC66836710509F44EC36535710511F083
:1047B0000C94AC3383E50E9473170E945F1720E0CE
:1047C00030E04AE754E40E9481B70E9420B560932C
:1047D000BD047093BE048093BF049093C0040C94F6
:1047E000AC336B36710509F413C60CF4E1C56D36B4
:1047F000710509F464C40C94AC336D3D710511F47A
:104800000C94392E0CF048C06E3B710509F4D0C4ED
:10481000ECF46737710509F496C054F463377105F9
:1048200009F4CEC66537710509F4D9C60C94AC33CA
:104830006937710511F40C94E92B14F40C94E42BF2
:104840006C38710509F41DC30C94AC336C3C7105D4
:1048500011F40C94902D8CF4693C710511F40C94B6
:10486000542D6B3C710511F40C94742D683C71054A
:1048700011F00C94AC330C94DC2C6E3C710511F4EB
:104880000C940E2E14F40C94B02D6C3D710511F4A3
:104890000C942A2E0C94AC33643F31E0730711F46E
:1048A0000C94CC2F2CF56D3291E0790711F40C9417
:1048B000C02E64F4623E710511F40C945F2E6C32CC
:1048C000714011F40C948A2E0C94AC336F3221E0B9
:1048D000720711F40C94942F14F40C94862F603901
:1048E000714011F00C94AC330E944B630C94AC33C8
:1048F000683592E0790711F40C94AA3094F4663F7D
:10490000F1E07F0711F40C94D22F14F40C94CF2F04
:10491000673F714011F00C94AC330E94727A0C9492
:10492000AC33603A83E0780709F4D1C1673E93E085
:10493000790711F40C94C4326335734011F00C9470
:10494000AC330C94D52FEDE6F3E04DC785E995E047
:104950000E94699480E50E947317882339F00E94B1
:104960005F170E9420B56B017C0103C0C12CD12CC4
:10497000760183E50E947317882361F00E945F1718
:1049800020E030E04AE754E40E9481B70E9420B55D
:104990006B017C010E944B630E94130F6093C10462
:1049A0007093C2048093C3049093C404C114D104CF
:1049B000E104F104A9F00E94130F4B015C018C0C7F
:1049C0009D1CAE1CBF1C0E94130F681579058A053B
:1049D0009B0588F40E94C99581110DC00C94C733C2
:1049E0000E94C995811107C00E946E640E94321E08
:1049F0000E940595F5CF86E895E00E9469940C9495
:104A0000AC338DE795E00E94699415981798429809
:104A1000A0980C94AC33EDE6F5E08491882341F046
:104A20009091C00095FFFCCF8093C6003196F5CFE2
:104A30008091C00085FFFCCF8AE08093C6008EEB9A
:104A400096E00E948A6FEFE5F5E08491882341F0BB
:104A50009091C00095FFFCCF8093C6003196F5CFB2
:104A60008091C00085FFFCCF8AE08093C6000C9443
:104A7000AC338EEB96E00E94E16F0C94AC338EEB7E
:104A800096E00E94A8700C94AC330091C50410917C
:104A9000C6040C5F1F4F6AE270E0C8010E9416BC9A
:104AA000009719F0FC013197108221E041E0B80134
:104AB0008EEB96E00E9417710C94AC338EEB96E06F
:104AC0000E94AC700E94130F6093B9047093BA04F3
:104AD0008093BB049093BC040C94AC338EEB96E0B3
:104AE0000E94B3700C94AC338091C106882311F4FA
:104AF0000C94AC3383E50E94731781110C94CF336F
:104B00000C94AC338EEB96E00E9466750C94AC333B
:104B10008091C5049091C6046AE270E004960E94F8
:104B200016BC8C010097E1F02091CF043091D004A5
:104B300040E6429FC001439F900D11246EE470E057
:104B40008B529B4F0E9416BC60E270E00E9416BC24
:104B500001969093C6048093C504F80131971082A2
:104B60006091C5047091C6046C5F7F4F21E040E006
:104B70008EEB96E00E9417710C94AC338091C106C5
:104B8000882311F40C94AC3360E08EEB96E00E9425
:104B90001F778091C5049091C6046AE270E0049684
:104BA0000E9416BC8C010097E1F02091CF04309157
:104BB000D00440E6429FC001439F900D11246EE453
:104BC00070E08B529B4F0E9416BC60E270E00E9426
:104BD00016BC01969093C6048093C504F8013197E2
:104BE00010826091C5047091C6046C5F7F4F8EEB9C
:104BF00096E00E942C740C94AC338091C006811115
:104C00000E944B630091C5041091C6040C5F1F4FB6
:104C10006AE270E0C8010E9416BC7C0161E270E0AB
:104C2000C8010E9416BC009719F08C010F5F1F4F3E
:104C3000E114F10419F0F7013197108280E50E9428
:104C40007317F82E2091C5043091C604021713077C
:104C500008F4F12C8091C106882311F40C94AC3334
:104C600021E02F2541E0B8018EEB96E00E941771FC
:104C700083E50E9473178823B9F02091C504309111
:104C8000C6042017310780F40E946817AB01BC01ED
:104C9000409341095093420960934309709344093A
:104CA0008CE898E00E94DA3E8EEB96E00E94AC70B1
:104CB000F1100C94AC330E94130F6093B9047093FD
:104CC000BA048093BB049093BC040C94AC338091E1
:104CD000C5049091C6046AE270E005960E9416BC75
:104CE0008C010097E1F02091CF043091D00440E690
:104CF000429FC001439F900D11246EE470E08B52DF
:104D00009B4F0E9416BC60E270E00E9416BC0196A8
:104D10009093C6048093C504F80131971082609186
:104D2000C5047091C6046B5F7F4F8EEB96E00E94C6
:104D300026740C94AC330E94130F6093B5047093E7
:104D4000B6048093B7049093B8040091B90410910D
:104D5000BA042091BB043091BC04601B710B820B20
:104D6000930B28EE33E040E050E00E9492B8CA0175
:104D7000B9012CE330E040E050E00E9492B87F930C
:104D80006F933F932F9380E595E09F938F938E01D0
:104D90000F5F1F4F1F930F930E9445BCEEE4F8E096
:104DA00084910FB6F894DEBF0FBECDBF882349F0C3
:104DB0009091C00095FFFCCF8093C60031968491FE
:104DC000F5CFF8018191882339F09091C00095FFCB
:104DD000FCCF8093C600F6CF8091C00085FFFCCF4A
:104DE0008AE08093C600C8010E945A940C94AC33A8
:104DF00083E50E947317882311F40C94AC330E944E
:104E00005F176B017C0180E50E947317882351F0C6
:104E1000C701B6010E941BB56F3F710509F010F480
:104E20000C94E0336DE070E020E0E22FEE0FFF0B1A
:104E3000E952FC4F808191818617970711F40C94F9
:104E4000AC332F5FF2CF88E690E00E94181F8111EB
:104E50000C94AC3383E50E947317882371F00091A2
:104E6000B4040E945F1710E0000F111F0F521E4E76
:104E70000E941BB5F801718360830E9406670C9441
:104E8000AC3383E50E947317882311F40C94AC3380
:104E90000E945F170E941BB57093D0116093CF11D1
:104EA0000C94AC3389E690E00E94181F81110C9499
:104EB000AC33EAE4F5E08491882341F09091C0009E
:104EC00095FFFCCF8093C6003196F5CFE091B404F6
:104ED00024E0E29FF0011124E753FE4E408151810E
:104EE0006281738121E030E08BE499E00E947238A6
:104EF000E7E4F5E08491882341F09091C00095FFAC
:104F0000FCCF8093C6003196F5CFE091B404F0E079
:104F1000EE0FFF1FEF52FE4E60817181882777FDF3
:104F20008095982F0E944EB5AB01BC0121E030E086
:104F30008BE499E00E947238E3E4F5E084918823E1
:104F400041F09091C00095FFFCCF8093C600319650
:104F5000F5CF4091C3115091C4116091C51170916A
:104F6000C61121E030E08BE499E00E947238E0E461
:104F7000F5E08491882341F09091C00095FFFCCF2B
:104F80008093C6003196F5CF6091CF117091D0110A
:104F9000882777FD8095982F0E944EB5AB01BC0104
:104FA00021E030E08BE499E00E947238EDE3F5E017
:104FB0008491882341F09091C00095FFFCCF8093AD
:104FC000C6003196F5CF4AE050E060E070E08BE437
:104FD00099E00E949237EBE3F5E08491882341F059
:104FE0009091C00095FFFCCF8093C6003196F5CF1D
:104FF0004091C9115091CA116091CB117091CC119F
:1050000021E030E08BE499E00E947238E8E3F5E0BB
:105010008491882341F09091C00095FFFCCF80934C
:10502000C6003196F5CF6091D1117091D2118827C9
:1050300077FD8095982F0E944EB5AB01BC0121E011
:1050400030E08BE499E00E947238E4E3F5E084916B
:10505000882341F09091C00095FFFCCF8093C6005B
:105060003196F5CF8091B40490E00E9463644AE0E9
:1050700050E0BC018BE499E00E949237EFE2F5E04A
:105080008491882341F09091C00095FFFCCF8093DC
:10509000C6003196F5CF8FEF9FEF0E9463644AE020
:1050A00050E0BC018BE499E00E9492378091C000EF
:1050B00085FFFCCF8AE08093C6000C9441358DE6D5
:1050C00090E00E94181F81110C94AC3384E295E0AB
:1050D0000E94699483E50E947317882391F00091E0
:1050E000B4040E945F1710E0000F111F0F521E4EF4
:1050F0000E941BB5F8017183608381E080930A02EE
:1051000015C082E50E947317882381F00091B404D2
:105110000E945F1710E0000F111F0F521E4E0E94D9
:105120001BB5F8017183608310920A020E94066722
:105130000E94130F4B015C010091B40410E0F801D0
:10514000EE0FFF1FEF52FE4E60817181882777FDC1
:105150008095982F0E944EB5F801EE0FFF1FEE0FBD
:10516000FF1FE753FE4E11E02081318142815381C0
:105170000E94AFB618160CF010E01093B204CC24C5
:10518000CA94DC2C7601E1E2F5E024912FA7EDE151
:10519000F5E0349139ABE9E1F5E0249078EE472E63
:1051A00073E0572E612C712CEAE03E2E0C944334B0
:1051B0008EEF94E00E94699483E50E947317882320
:1051C00061F00E945F170E941BB57093D01160932D
:1051D000CF1181E080930A020FC082E50E9473170D
:1051E000882351F00E945F170E941BB57093D01165
:1051F0006093CF1110920A020E94130F6B017C0181
:105200006091CF117091D011882777FD8095982FEC
:105210000E944EB511E02091C3113091C41140910C
:10522000C5115091C6110E94AFB618160CF010E0CF
:105230001093B204EBEFF4E01491E7EFF4E0049183
:10524000E3EFF4E0B4909AE0A92E8091B20460916B
:10525000CF117091D011882309F483C0882777FD7E
:105260008095982F0E944EB52091C3113091C411A2
:105270004091C5115091C6110E94AFB618160CF09E
:1052800087C00E94130F6C197D098E099F09693E22
:1052900073408105910508F45DC0E091880634E013
:1052A000E39FF0011124E753FE4E4081518162815A
:1052B0007381812FEBEFF4E0882349F09091C000D7
:1052C00095FFFCCF8093C60031968491F5CF22E004
:1052D00030E08BE499E00E947238802FE7EFF4E031
:1052E000882349F09091C00095FFFCCF8093C600C1
:1052F00031968491F5CF6091880670E04AE050E0E5
:105300008BE499E00E9492378B2DE3EFF4E0882341
:1053100049F09091C00095FFFCCF8093C600319674
:105320008491F5CF4091C3115091C4116091C51182
:105330007091C61121E030E08BE499E00E94723850
:105340008091C00085FFFCCFA092C6000E94130F81
:105350006B017C010E946E640E94321E0E940595C2
:1053600074CF882777FD8095982F0E944EB52091A5
:10537000C3113091C4114091C5115091C6110E94C2
:10538000ACB487FF05C080910A02882309F479CF65
:1053900089EE94E00E9469940E94130F6093C10407
:1053A0007093C2048093C3049093C4040C94AC33F0
:1053B00083E50E947317882319F10E945F1720E08C
:1053C00030E0A9010E94ACB487FD0FC00E945F17B6
:1053D00020E030E04FE753E40E94AFB6181644F0E7
:1053E0000E945F170E941BB505C060E070E002C01C
:1053F0006FEF70E070938706609386060C94AC3371
:105400008FEF90E090938706809386060C94AC33E0
:1054100010928706109286060C94AC33269A2E982A
:10542000809A889A81E08093140288ED94E00E942B
:1054300069940E9405950C94AC331092BD060C94AF
:10544000AC3381E08093BD060C94AC3383E50E94BD
:1054500073178823A1F00E945F1720E030E04AE72D
:1054600054E40E9481B70E9420B560930B027093B0
:105470000C0280930D0290930E020C94AC3388E5DD
:105480000E94731781110C941F3589E50E947317D0
:1054900081110C941F358AE50E94731781110C94B9
:1054A0001F3585E40E94731781110C941F350E94EB
:1054B0004B63A09A0E94B4630C94AC338FE094E0E9
:1054C00098AB8FA70FE011E1BFE18B2EB1E19B2ECE
:1054D00083EDA82E80E1B82E312CEFA5F8A981919B
:1054E000F8ABEFA70E947317882309F45BC0F3E0C1
:1054F0003F1251C00E945F176B017C0120E030E039
:1055000040EA51E40E94ACB487FF3FC0A701960176
:10551000F80160817181828193810E94B3B42B0173
:105520003C019B01AC016091E7107091E810809103
:10553000E9109091EA100E9481B76093E710709390
:10554000E8108093E9109093EA10A3019201F4010E
:1055500060817181828193810E9481B7F4016083AF
:10556000718382839383F50160817181828193814C
:105570000E944CB5A30192010E9481B70E9420B500
:10558000F5016083718382839383F801C082D182A5
:10559000E282F38207C00E945F17F8016083718383
:1055A0008283938333940C5F1F4FF4E08F0E911C22
:1055B00024E0A20EB11C34E033128FCF0C94AC3334
:1055C000EFEFF3E08491882311F40C94AC339091C5
:1055D000C00095FFFCCF8093C6003196F3CF0091B9
:1055E000C5041091C6040B5F1F4F6AE270E0C8014A
:1055F0000E9416BC009719F0FC0131971082C80177
:105600000E945A940C94AC33ECEFF3E0849188231D
:1056100041F09091C00095FFFCCF8093C600319679
:10562000F5CF4091A8065091A9066091AA06709105
:10563000AB0622E030E08BE499E00E947238E8EF9C
:10564000F3E08491882341F09091C00095FFFCCF56
:105650008093C6003196F5CF4091AC065091AD06CF
:105660006091AE067091AF0622E030E08BE499E0E5
:105670000E947238E4EFF3E08491882341F0909126
:10568000C00095FFFCCF8093C6003196F5CF4091C6
:10569000B0065091B1066091B2067091B30622E057
:1056A00030E08BE499E00E947238E0EFF3E08491FF
:1056B000882341F09091C00095FFFCCF8093C600F5
:1056C0003196F5CF4091B4065091B5066091B6067B
:1056D0007091B70622E030E08BE499E00E947238C6
:1056E000E5EEF3E08491882341F09091C00095FFAE
:1056F000FCCF8093C6003196F5CF0E94A6630E942E
:105700004EB520910F11309110114091111150910F
:1057100012110E94B3B4AB01BC0122E030E08BE473
:1057200099E00E947238E1EEF3E08491882341F021
:105730009091C00095FFFCCF8093C6003196F5CFC5
:1057400081E00E94A6630E944EB520911311309112
:10575000141140911511509116110E94B3B4AB0170
:10576000BC0122E030E08BE499E00E947238EDED5C
:10577000F3E08491882341F09091C00095FFFCCF25
:105780008093C6003196F5CF82E00E94A6630E9406
:105790004EB5209117113091181140911911509167
:1057A0001A110E94B3B4AB01BC0122E030E08BE4DB
:1057B00099E00E9472388091C00085FFFCCF8AE09A
:1057C0008093C6000C94AC3380E00E948D5B0C94F7
:1057D000AC3381E00E948D5BBFC79091C00095FF04
:1057E000FCCF8093C60081918111F7CF8091C000DA
:1057F00085FFFCCF8AE08093C600E5EDF3E084915D
:10580000882341F09091C00095FFFCCF8093C600A3
:105810003196F5CF009903C0EEE5F3E009C0E8E664
:10582000F3E006C09091C00095FFFCCF8093C600C6
:1058300081918111F7CF8091C00085FFFCCF8AE074
:105840008093C600EDECF3E08491882341F09091C1
:10585000C00095FFFCCF8093C6003196F5CF02992A
:1058600003C0EEE5F3E009C0E8E6F3E006C090917E
:10587000C00095FFFCCF8093C60081918111F7CFC6
:105880008091C00085FFFCCF8AE08093C600E5ECE4
:10589000F3E08491882341F09091C00095FFFCCF04
:1058A0008093C6003196F5CF049903C0EEE5F3E08E
:1058B00009C0E8E6F3E006C09091C00095FFFCCF78
:1058C0008093C60081918111F7CF8091C00085FF40
:1058D000FCCF8AE08093C600EDEBF3E0849188234F
:1058E00041F09091C00095FFFCCF8093C6003196A7
:1058F000F5CF069903C0EEE5F3E009C0E8E6F3E072
:1059000006C09091C00095FFFCCF8093C6008191A6
:105910008111F7CF8091C00085FFFCCF8AE0809392
:10592000C600E5EBF3E08491882341F09091C0003C
:1059300095FFFCCF8093C6003196F5CF379903C011
:10594000EEE5F3E009C0E8E6F3E006C09091C000A0
:1059500095FFFCCF8093C60081918111F7CF809194
:10596000C00085FFFCCF8AE08093C600EDEAF3E03B
:105970008491882341F09091C00095FFFCCF8093E3
:10598000C6003196F5CF359903C0EEE5F3E009C0C6
:10599000E8E6F3E006C09091C00095FFFCCF80934D
:1059A000C60081918111F7CF8091C00085FFFCCFA7
:1059B0008AE08093C600D0C684E40E9473178823CF
:1059C00009F4CAC60E945F1720E030E040E05FE3C0
:1059D0000E9481B76B017C0120E030E0A9010E94A8
:1059E000ACB4882379F0A7019601C701B6010E94E3
:1059F00081B72BED3FE049E450E40E9481B79B0161
:105A0000AC0104C020E030E040E85FE3809188060C
:105A10008093B40484E52AAB3BAB4CAB5DAB0E94F6
:105A200073172AA93BA94CA95DA9811114C0009143
:105A3000B40484E0089F800111240F5D1D4F60E0D5
:105A400070E080E89FE30E94B3B4F8016083718343
:105A50008283938381C62AAB3BAB4CAB5DAB0E9488
:105A60005F170E9420B56093B4042AA93BA94CA9F2
:105A70005DA96623E1F2EEE4F8E08491882341F029
:105A80009091C00095FFFCCF8093C6003196F5CF72
:105A9000E8E8F3E08191882351F29091C00095FFEE
:105AA000FCCF8093C600F6CF0FE014E0AFEFEA2EF4
:105AB000A0E1FA2EF80181918F010E9473178823CB
:105AC00049F00E945F170E9420B5F701608371833F
:105AD00082839383F4E0EF0EF11C24E0033112077C
:105AE00049F70E94A35A38C60FE014E0FFE1EF2EF9
:105AF000F1E1FF2EF80181918F010E947317882335
