:020000023000CC
:10E0000071C0000098C0000096C0000094C00000DD
:10E0100092C0000090C000008EC000008CC00000C4
:10E020008AC0000088C0000086C0000084C00000D4
:10E0300082C0000080C000007EC000007CC00000E4
:10E040007AC0000078C0000076C0000074C00000F4
:10E0500072C0000070C000006EC000006CC0000004
:10E060006AC000000D944CF866C0000064C0000057
:10E0700062C0000060C000005EC000005CC0000024
:10E080005AC0000058C0000056C0000054C0000034
:10E0900052C0000050C000004EC000004CC0000044
:10E0A0004AC0000048C0000046C0000044C0000054
:10E0B00042C0000040C000003EC000003CC0000064
:10E0C0003AC0000038C0000036C0000034C0000074
:10E0D00032C0000030C000002EC000002CC0000084
:10E0E0002AC0000011241FBECFEFD1E2DEBFCDBF9A
:10E0F00001E00CBF12E0A0E0B2E0ECEFF8EF03E0CB
:10E100000BBF02C007900D92AC30B107D9F714E0F5
:10E11000ACE0B2E001C01D92A63CB107E1F70F945C
:10E12000D3F80D947CFC01E20EBF0FEF0DBF11245C
:10E130001FBE0D94D3F864CF209A229A219A2B9A6D
:10E14000089580EA31973197319700008A95D1F789
:10E15000089502D0289801C0289A8FEF98E087FD93
:10E160002A9A87FF2A98880F1B998395299A2998BC
:10E170009A95A9F708950F9480FF08950F931F9320
:10E18000CF93DF93EC01062F611101C001E010E095
:10E190008EE092E021D3882329F01F5F1013F8CF7F
:10E1A00080E005C0CE011AD48111F7CF81E0DF9164
:10E1B000CF911F910F91089561157105810591050A
:10E1C000B9F096958795779567952091020160FF44
:10E1D00002C0206201C02F7D209302012FEF31EE9B
:10E1E00044E0215030404040E1F700C00000E4CF5F
:10E1F0000895DF92EF92FF920F931F93CF93DF93D7
:10E2000007B600FCFDCF23E0FB0180935B00209369
:10E210005700E89507B600FCFDCFDA018B019C01A1
:10E22000C0E0D0E0ED90FD90DD24D3940701F8012B
:10E2300020935B00D0925700E895112407B600FCAC
:10E24000FDCF0E5F1F4F2F4F3F4F2296C115E1E0CC
:10E25000DE0741F725E0FB0180935B002093570028
:10E26000E89507B600FCFDCF21E120935700E89523
:10E2700007B600FCFDCF07B606FCF6CFDA0120E0BA
:10E2800030E08BBFFB0147915691ED91FD914E1708
:10E290005F07E9F080E090E0DC0123E0FC01A0935F
:10E2A0005B0020935700E89507B600FCFDCF81E1A5
:10E2B00080935700E89507B600FCFDCF07B606FC33
:10E2C000F6CF6AE973EE81EE93E876DFFACF6E5F00
:10E2D0007F4F8F4F9F4F2E5F3F4F211541E03407F7
:10E2E00081F6CDB7DEB7E7E00D9456FC80E090E014
:10E2F000DC01ABBFFC0187919691019721E08E3F35
:10E300009F4F08F020E0822F0895F0DF811106C0B2
:10E310006FEF77E880E090E04FDFFACF81E085BFD4
:10E3200015BEF8940C9400000895A2E0B0E0EBE96B
:10E33000F1EF0D9435FCDED68111C8C09A98A29AEF
:10E3400052985A9AD7D68111C1C0D4D68111BEC075
:10E350004A99BCC0CFD68111B9C0C8DF182FCAD620
:10E360008111B4C0C7D68111B1C0111104C0C2D689
:10E370008111ACC009C0E5DEBDD68111A7C092995C
:10E38000A5C04A99A3C0F3CF63E083E092E0F6DE34
:10E3900081110EC019B1147000E062E87FE08FE8CF
:10E3A00093EB0ADF0F5F0430C0F31123B1F38EC08B
:10E3B000909102019062909302014A9908C0112342
:10E3C00031F06CE071E080E090E0F6DEF6CF86E4BC
:10E3D00092E090930D0280930C02812C912C5401B9
:10E3E000C12CD12C760100910C0210910D0240E05D
:10E3F00051E06FEF70E0C8010F9475FCAE014F5F04
:10E400005F4F60E071E0C80146D489819A81892B11
:10E41000B9F120910C0230910D0280E090E0DC0116
:10E42000AC01BD014C0D5D1D6E1D7F1D6BBFFA0162
:10E430004791F90161919F0151E0461301C050E0FD
:10E440008F3F9105A105B10531F00196A11DB11DC8
:10E45000552331F302C0552399F08091020190E2D7
:10E4600089278093020140910C0250910D02C7014F
:10E47000B601BFDE89819A81880E991EA11CB11C4C
:10E48000FFEFDF1AEF0AFF0AC11480EED80683E01F
:10E49000E806F10409F0A7CF81149104A104B104A6
:10E4A00051F060E070E084E090E086DE6AE270EABD
:10E4B00082E094E009C062E070E084E090E07CDEFD
:10E4C00062E070E084E090E077DE1FDF2296ECE00F
:10E4D0000D9451FC0F931F939B01AC01E091380206
:10E4E000F091390222503109410951098681978101
:10E4F000A085B1850297A109B109281739074A07F4
:10E500005B0768F4A281B0E00F9403FC02891389D1
:10E5100024893589600F711F821F931F03C060E03B
:10E5200070E0CB011F910F9108950F931F93CF932C
:10E53000DF93EC01E0913802F091390219821882E0
:10E540006C817D818E819F8161307105810591058E
:10E5500051F1068117812085318560177107820787
:10E56000930708F5611571058105910539F420813E
:10E57000233021F46685778580899189688779873A
:10E580008A879B87611571058105910511F0A2DFCE
:10E5900004C066857785808991896C877D878E87A1
:10E5A0009F8780E001C081E0DF91CF911F910F91A3
:10E5B0000895A0E0B0E0EFEDF2EF0D9439FCEC012E
:10E5C0006A017B0102E010E02EEF31E0DCD4811122
:10E5D00024C08881998185359A4A09F526E330E07F
:10E5E000B701A601CE01CFD4811107C088819981DE
:10E5F0008634914411F480E015C002E010E022E579
:10E6000030E0B701A601CE01BED481110AC08881D5
:10E6100099818634914429F4EECF83E003C082E0EF
:10E6200001C081E0CDB7DEB7E8E00D9455FC4F9214
:10E630005F926F927F92AF92BF92CF92DF92EF92F2
:10E64000FF920F931F93CF93DF9300D01F92CDB70C
:10E65000DEB76B017C01A0903802B09039026230C5
:10E6600071058105910508F4A0C0F50186819781A7
:10E67000A085B185C816D906EA06FB0608F095C044
:10E680008081823009F450C0833009F468C0813041
:10E6900009F08BC02601569447944C0C5D1C9201E6
:10E6A0003170452C55244694612C712C82859385BC
:10E6B000A485B585B301A201480F591F6A1F7B1FAE
:10E6C0002F3FF1E03F0729F002E010E0CE01019674
:10E6D0001AC001E010E02FEF31E0CE01019653D4D3
:10E6E000811163C0F50142855385648575854F5F4F
:10E6F0005F4F6F4F7F4F440D551D661D771D20E006
:10E7000030E0CE0102963FD481114FC069817A81F9
:10E71000C0FE06C0E4E076956795EA95E1F701C092
:10E720007F7080E090E045C096013327220F331FB1
:10E7300077276F2D5E2D4D2DF50182859385A4855C
:10E74000B585480F591F6A1F7B1F02E010E0CE01FC
:10E75000019619D4811129C069817A81E2CF96018D
:10E760002F773327220F331F220F331FB701A60144
:10E7700097E076956795579547959A95D1F7F50166
:10E7800082859385A485B585480F591F6A1F7B1F15
:10E7900004E010E0CE010196F6D3811106C0698134
:10E7A0007A818B819C819F7004C061E070E080E081
:10E7B00090E00F900F900F900F90DF91CF911F91ED
:10E7C0000F91FF90EF90DF90CF90BF90AF907F9030
:10E7D0006F905F904F900895A8E2B0E0E2EFF3EF02
:10E7E0000D9431FC5C01109239021092380239D339
:10E7F00080FDE8C040E050E0BA01CE010196D9DECC
:10E800008130E9F400E110E02EEB31E040E050E02F
:10E81000BA01CE010196B7D3882311F081E0DBC0A5
:10E820008D81811102C086E0D6C049845A846B84F0
:10E830007C84B301A201CE010196BBDE03C0412C52
:10E84000512C3201833051F38111EDCF04E210E0FD
:10E850002DE030E0B301A201CE01019694D38111E5
:10E86000DDCF2A853B8540E050E02115310541058B
:10E87000510521F4288D398D4A8D5B8DAC81B0E036
:10E88000C2D76B017C018A819B81AC0160E070E0A2
:10E89000440E551E661E771ED5011A964D925D9246
:10E8A0006D927C921D97E9811296EC9312972D81BF
:10E8B0003E8115963C932E9314978F819885A0E006
:10E8C000B0E00097A105B10521F48C899D89AE893E
:10E8D000BF89490114E0969487941A95E1F7840161
:10E8E00020E030E00DA31EA32FA338A78C019D01CB
:10E8F000041B150B260B370BC901B8016C197D09D8
:10E900008E099F090DA11EA12FA138A5601B710BB7
:10E91000820B930B2E2F30E040E050E07ED7DA01DF
:10E92000C9010296A11DB11DF50186839783A087B9
:10E93000B187BA01A901465F5F40610971094F3F84
:10E940005F4E6105710508F43FC021E0873F0FE08D
:10E950009007A105B10508F020E0873F9F4FA10572
:10E96000B10520F4222309F45ECF01C023E0D501D4
:10E970002C93233029F488A199A1AAA1BBA106C098
:10E98000D701C601840D951DA61DB71DF50186870B
:10E990009787A08BB18B0DA11EA12FA138A5400E8A
:10E9A000511E621E731E4C0C5D1C6E1C7F1C428A25
:10E9B000538A648A758A1182B0923902A092380211
:10E9C00080E009C082E007C0873F9F4FA105B105E5
:10E9D00068F622E0CCCFA896E0E15FC7ACE3B0E0F8
:10E9E000E3EFF4EF44C7E0903802F0903902E1140D
:10E9F000F10409F43EC1D70111961C929E012F5CCF
:10EA00003F4F3CA32BA39C016901F90180812F5F3B
:10EA10003F4F8032C9F38F3209F469011DA21EA253
:10EA20001FA218A6D6018C91803208F067C0CE01D3
:10EA300081967BDD1982882309F4E5C029C180E035
:10EA400090E028E031E0390FD601A90FB11D9C916B
:10EA5000913208F05FC0C30ED11C81E0913208F002
:10EA600080E08387CE01819660DD811111C129A1EB
:10EA70003AA12F703327F5E0220F331FFA95E1F703
:10EA80004DA55EA56FA578A900E210E0CE01019624
:10EA90007AD28111F6C08981882309F4F8C04C85A7
:10EAA00043FD4FC00BA11CA1FE013196C8019E0180
:10EAB000245F3F4FE217F307E9F5F80183858111E1
:10EAC000A2C044FFE4C0E0913802F0913902808195
:10EAD000833009F0D8C04D895E8960E070E0BA01EA
:10EAE000552744278B8D9C8DA0E0B0E0842B952B7F
:10EAF000A62BB72B8DA39EA3AFA3B8A7EBA1FCA118
:10EB0000DF01CF010B96A817B90709F498CF20E2CF
:10EB10002D93F9CF9F3209F49ECF9E3209F4ABC0FA
:10EB2000821708F098CFDF01A80FB11D9C938F5F6B
:10EB3000932F88CF6191DC015D91CD01651709F4B8
:10EB4000B9CF0091380210913902A9A0BAA0BFEF45
:10EB5000AB1ABB0AA114B10409F499C08DA59EA5F6
:10EB6000AFA5B8A90097A105B10509F490C095011A
:10EB70002F703327232B09F043C00196A11DB11D2F
:10EB80008DA79EA7AFA7B8AB69A57AA58BA59CA5B5
:10EB9000611571058105910541F4F8018481958124
:10EBA000A816B90608F073C02BC0D80112962C9194
:10EBB00030E021503109A501E4E056954795EA95EA
:10EBC000E1F724233523232BD9F431DD623071059D
:10EBD0008105910508F455C0F8010681178120854B
:10EBE0003185601771078207930708F050C069A745
:10EBF0007AA78BA79CA76EDC6DA77EA78FA798AB83
:10EC0000BAA2A9A234CF8981882309F440C08C8597
:10EC100084FD3DC0E0913802F0913902808183305B
:10EC200041F44D895E8960E070E0BA0155274427C0
:10EC300003C040E050E0BA018B8D9C8DA0E0B0E0B5
:10EC4000842B952BA62BB72BF701868F978FA0A32C
:10EC5000B1A38D8D9E8DAF8DB8A1828F938FA48F20
:10EC6000B58F168A178A108E118E81E0818380E01D
:10EC70000FC085E00DC0283009F0EDCE88E02BE014
:10EC800057CF81E005C040E050E0BA012BCF83E0D0
:10EC9000EC96EAE008C6A0E0B0E0E0E5F6EFE3C5F8
:10ECA0004C017B015A01C0913802D0913902FA011E
:10ECB00011821082209709F49AC0898180FF99C03F
:10ECC0008A8D9B8DAC8DBD8D4E895F89688D798DC8
:10ECD000841B950BA60BB70BA70160E070E08417AF
:10ECE0009507A607B70708F47C013401E114F10485
:10ECF00009F47BC08E899F89A88DB98DAC01BD01B7
:10ED0000517066277727452B462B472BC1F5DA80B4
:10ED1000DA94AC01BD0129E0769567955795479542
:10ED20002A95D1F7D422B9F4892B8A2B8B2B29F47D
:10ED30006E8D7F8D88A199A105C06AA17BA18CA150
:10ED40009DA175DC623071058105910598F16AA37A
:10ED50007BA38CA39DA36AA17BA18CA19DA1BADBFF
:10ED6000611571058105910529F1DC01CB018D0D3E
:10ED7000911DA11DB11D8EA39FA3A8A7B9A72E8980
:10ED80003F89317080E092E0821B930B67018E1502
:10ED90009F0508F46C014EA15FA168A579A58114B7
:10EDA000910419F480E090E001C0C3018601EBD02A
:10EDB000882319F0198281E01DC08E899F89A88D52
:10EDC000B98D8C0D9D1DA11DB11D8E8B9F8BA88FA4
:10EDD000B98F6C0C7D1CEC18FD08F50180819181C8
:10EDE0008C0D9D1D9183808381CF80E003C085E0E1
:10EDF00001C084E0CDB7DEB7EEE051C5FF920F93BE
:10EE00001F93CF93DF93C82FD42F152F062FF72EE4
:10EE100087FF08C040E050E0BA0187E7EFDF8230AB
:10EE2000E0F4CF7796D98C2F99D98F2D97D9802F51
:10EE300095D9812F93D98D2F91D9C03421F0C83421
:10EE400021F081E003C085E901C087E887D9CAE0E5
:10EE500084D987FF02C0C150D9F7CDB7DEB7E5E04E
:10EE600027C5A4E0B0E0E6E3F7EF05C565D914E6F1
:10EE700068D91150E9F71AE06FD91150E9F740E06D
:10EE800050E0BA0180E4BADF813009F056C04AEAA6
:10EE900051E060E070E088E4B1DF813039F57E0157
:10EEA00085E0E80EF11C8E010F5F1F4F56D9F80167
:10EEB00081938F01EE15FF05C9F78B81813009F031
:10EEC0003CC08C818A3A09F038C000E117E240E08A
:10EED00050E060E070E489EE91DF8823B9F131D928
:10EEE000015011090115110591F727C040E050E0CC
:10EEF000BA0189EE83DF823028F422E0F22E39EE67
:10EF0000E32E04C0FF24F39491E4E92E00E117E21C
:10EF100040E050E0BA018E2D71DF882339F011D91D
:10EF2000015011090115110599F707C040E052E0A1
:10EF300060E070E080E562DF8111F12CF0923A022E
:10EF40000BD981E0FF20E1F080E01AC040E050E002
:10EF5000BA018AE753DF8111F0CF8E010F5F1F4F97
:10EF6000FCD8F80181938F01EE15FF05C9F789815F
:10EF700086FF03C04CE0F42EE1CF84E0F82EDECF14
:10EF80002496E6E094C4A1E0B0E0E8ECF7EF6FC4AB
:10EF9000D82EC92E790180913A0283FD07C0E9E09D
:10EFA000440F551F661F771FEA95D1F781E526DFCD
:10EFB000882311F081E033C060E4A62E6CE9B62E00
:10EFC000CCD88F3F39F481E0A81AB108A114B1045C
:10EFD000B9F7F0CF8E3F71F752E0A52EBA2CA01AE8
:10EFE000B10AAE18BF08E114F10419F4ED2CFC2CA1
:10EFF00005C0B3D8E1E0EE1AF108F5CFAED8F701BD
:10F0000081937F010150110901151105B9F7A5D8A8
:10F01000F1E0AF1AB108A114B104C9F780E0898307
:10F020009BD889812196EAE03EC4809145028823DD
:10F0300091F18091410290914202A0914302B091DE
:10F040004402811520EC920723E0A207B105B4F435
:10F0500007B606FC20C023E0FC01A0935B002093D0
:10F060005700E8959F5FAF4FBF4F80934102909349
:10F070004202A0934302B0934402089507B606FCEF
:10F080000AC0109241021092420210924302109262
:10F0900044021092450208951F920F920FB60F92EC
:10F0A00011240BB60F922F933F938F939F93EF935F
:10F0B000FF932091C60080913B0290E001968F77EC
:10F0C000992730913C02381741F0E0913B02F0E083
:10F0D000EA5BFB4F208380933B02FF91EF919F916E
:10F0E0008F913F912F910F900BBE0F900FBE0F90FD
:10F0F0001F901895F89420913B0290913C027894CF
:10F1000081E0291301C080E00895A1E0B0E0EAE8C1
:10F11000F8EFB5C39091020120E29227909302018B
:10F120009091C00095FD04C089837FDF8981F8CF6D
:10F130008093C6002196E2E0BEC3809102018F7DDC
:10F140008093020128E288E190E00FB6F894A89538
:10F15000809360000FBE20936000A895CBDF8111E3
:10F1600002C063DFFBCFA89588E10FB6F8948093C7
:10F170006000109260000FBE809102018062809357
:10F180000201F894E0913C02F0E0EA5BFB4F8081E1
:10F1900020913C0230E02F5F3F4F2F7733272093A1
:10F1A0003C0278940895A6E0B0E0E8EDF8EF57C38C
:10F1B00084B7F89414BE98E10FB6F8949093600069
:10F1C000109260000FBE83FDA0D8109245021092ED
:10F1D000410210924202109243021092440286D8D9
:10F1E000882339F0F8E54F2EF2E05F2E612C712C68
:10F1F00005C044244A94542C612C712C22E02093A5
:10F20000C00080E190E09093C5008093C4008EE040
:10F210008093C20088E98093C10010923C02109252
:10F220003B0281E085BF25BF789480910101806217
:10F2300080930101809102018F7D8093020175D836
:10F24000C12CD12C7601812C912C54DF882339F0EC
:10F25000AFEF8A1A9A0A81149104A9F319C0811494
:10F260009104B1F78FE99FE00197F1F700C000002A
:10F270009FEFC91AD90AE90AF90A91E080E04C1413
:10F280005D046E047F0408F090E0892E982EDDCF97
:10F29000B1E08B16910409F0AFC24FDF782E10E079
:10F2A00000E0212C312CC12CD12C7601809102015F
:10F2B000806280930201A12CB12C90E08A9489286D
:10F2C00021F09D833ADF782E9D819330E1F020F488
:10F2D000913071F038F010C0953009F1C0F09630DF
:10F2E00061F130C0FBE17F122DC00BE191E02AC03B
:10F2F0000725172D92E026C0A72CB12CBA2CAA24E2
:10F30000072593E01FC0A728072594E01BC02EE027
:10F31000721217C00725212C312C95E013C09101E2
:10F320002F5F3F4FF101EA5BFD4F70820725190106
:10F330002A153B0538F096E005C0701202C097E030
:10F3400001C090E09D8371DE9D81973019F0812C82
:10F35000912CB4CF60914602633109F4FFC0B0F53F
:10F36000663009F4E5C050F5623009F45CC06330E2
:10F3700009F48DC0613009F002C21092470288E0A2
:10F380008093480281E48093490286E580934A0293
:10F3900082E580934B0289E480934C0283E580935D
:10F3A0004D0280E580934E028FE580934F0282E309
:10F3B00080935002612C2BE030E0E7C1613109F409
:10F3C00079C008F0A7C0603171F1D9C1683109F482
:10F3D00086C048F4653109F4CAC008F488C16631B2
:10F3E00009F485C1CCC16B3109F469C060F46A319C
:10F3F00009F0C5C110924702E1E0F0E089E0809396
:10F400005700E4917CC06D3181F06E3E09F0B7C1C8
:10F410001092470280913D028093480280913E0203
:10F4200080934902A8C1612C47C080914A02803371
:10F4300041F490914C029923A9F09130A9F4E8E9A4
:10F4400016C0982F907591F0803519F4E0E0F0E047
:10F4500004C0883559F4E3E0F0E099E09093570058
:10F46000E49105C0EEE103C0E1E001C0E0E01092EC
:10F470004702109248028093490210924A02E09398
:10F480004B0210924C02612C27E030E07EC1E091EB
:10F490004702E059E33028F4F0E0E050FE4F80816D
:10F4A00001C080E01092470280934802612C23E063
:10F4B00030E06BC1662463941092470264C180916E
:10F4C0004A02882321F0813021F488E903C08EE1CB
:10F4D00001C081E0109247028093480212C08091DF
:10F4E00048028035A1F480914902883069F4E2E055
:10F4F000F0E089E080935700E49110924702E09396
:10F5000048021092490237C1E0E0F0E0F2CFE3E0B8
:10F51000F0E0EFCF109241021092420210924302AB
:10F52000109244021092470281E0809345022AC162
:10F5300080914702C0904802D12CE12CF12C760139
:10F54000DD24CC24F82A80914A02C82A80914902FD
:10F55000D82ACC0CDD1CEE1CFF1CC6C080914502D5
:10F56000882319F007B600FCFDCF10924502809168
:10F57000470290E0982F882720914802822B633120
:10F5800009F09AC0409141025091420260914302B9
:10F59000709144022A013B0130EC531A33E0630AB4
:10F5A00071084114AFE35A066104710450F023E07E
:10F5B000FA0160935B0020935700E89507B600FCC2
:10F5C000FDCF5F5F6F4F7F4F4093410250934202E8
:10F5D0006093430270934402C114D104E104F10426
:10F5E00041F410923D0210923E0210923F0210929E
:10F5F0004002C982DA82EB82FC82B701A601505C2C
:10F600006340710941155F436105710508F46CC0E1
:10F61000A5014A50510980903D0290903E02A09071
:10F620003F02B0904002A0E5B2E041155105B1F0B3
:10F630002C9111966C911197462E512C612C712CA6
:10F64000420E511C611C711C4250510930E0362B96
:10F65000840C951CA61CB71C129602C02FEF3FEF1E
:10F6600061E00901F601E0925B0060935700E895C4
:10F670001124E2E0CE0ED11CE11CF11C0297009790
:10F68000A1F680923D0290923E02A0923F02B0927B
:10F69000400285E029813A814B815C81F9014093E8
:10F6A0005B0080935700E89507B600FCFDCF81E131
:10F6B00080935700E89518C0E0E5F2E0C1BC7727D9
:10F6C000F7FC7A956F2D5E2D4D2D42BD3FEFC31A8D
:10F6D000D30AE30AF30A219120BDFA9AF99AF9991B
:10F6E000FECF0197009751F7109247024BC040910F
:10F6F000470250E0542F442780914802482B9A013A
:10F700002D5F3F4F109247026431B1F4A8E4B2E09C
:10F71000EBBEF601879196918C931296FD0131977D
:10F72000908382E0C80ED11CE11CF11C42505109AB
:10F730004115510569F71CC0E8E4F2E0C1BCBB27E4
:10F74000F7FCBA95AF2D9E2D8D2D82BD9FEFC91A66
:10F75000D90AE90AF90AF89ACF010196DC0160B5E5
:10F760006083415051094115510511F0FC01E6CF6C
:10F770001C92612C0AC0612C24E030E006C080ECB1
:10F7800080934702612C22E030E08BE12D833E83A1
:10F79000BCDC812FBADC3E81832FB7DC2D81722E39
:10F7A000822FB3DC8EE0B1DC05E101272D813E81A3
:10F7B0000227032786E4A82E82E0B82ED901AA5B8F
:10F7C000BD4F4D01A814B90441F0F50171905F01DE
:10F7D000872D9BDC072529DCF5CF802F96DC1F5F6A
:10F7E0008091020190E28927809302011EDC611062
:10F7F00003C0812C912C5ACD0F9485F180E090E0CC
:10F800002696E2E148C062D0A59F900DB49F900D6E
:10F81000A49F800D911D11240895A1E21A2EAA1B08
:10F82000BB1BFD010DC0AA1FBB1FEE1FFF1FA217B0
:10F83000B307E407F50720F0A21BB30BE40BF50BAD
:10F84000661F771F881F991F1A9469F76095709536
:10F85000809590959B01AC01BD01CF0108952F9239
:10F860003F924F925F926F927F928F929F92AF9250
:10F87000BF92CF92DF92EF92FF920F931F93CF939D
:10F88000DF93CDB7DEB7CA1BDB0B0FB6F894DEBF34
:10F890000FBECDBF19942A88398848885F846E844A
:10F8A0007D848C849B84AA84B984C884DF80EE80A4
:10F8B000FD800C811B81AA81B981CE0FD11D0FB6AD
:10F8C000F894DEBF0FBECDBFED010895A29FB00139
:10F8D000B39FC001A39F700D811D1124911DB29F84
:10F8E000700D811D1124911D0895DC0101C06D93DF
:0CF8F00041505040E0F70895F894FFCF1D
:0CF8FC000F03014150502E42494E000005
:040000033000E000E9
:020000023000CC
:10FF00000F921F931FB7F8941F92FF93EF93BF9325
:10FF1000AF939F93FB010BB70F938BBF8F9383E03E
:10FF200080935700E8958091570080FDFCCFFB013E
:10FF3000DA0190E80D901D9081E080935700E895DC
:10FF40008091570080FDFCCF32969A9599F7FB017E
:10FF500085E080935700E8958091570080FDFCCFA5
:10FF600081E180935700E8958091570080FDFCCF98
:10FF700086FDF6CF8F910F910BBF9F91AF91BF91EF
:10FF8000EF91FF911F901FBF1F910F9008950000E8
:10FFC00080935700E8958091570080FDFCCF81E138
:10FFD00080935700E8958091570080FDFCCF86FD07
:04FFE000F6CF0895BB
:00000001FF
